{
	"contracts/ManageLoan.sol": {
		"ManageLoan": {
			"abi": [
				{
					"inputs": [
						{
							"internalType": "address",
							"name": "initialOwner",
							"type": "address"
						}
					],
					"stateMutability": "nonpayable",
					"type": "constructor"
				},
				{
					"inputs": [
						{
							"internalType": "address",
							"name": "owner",
							"type": "address"
						}
					],
					"name": "OwnableInvalidOwner",
					"type": "error"
				},
				{
					"inputs": [
						{
							"internalType": "address",
							"name": "account",
							"type": "address"
						}
					],
					"name": "OwnableUnauthorizedAccount",
					"type": "error"
				},
				{
					"anonymous": false,
					"inputs": [
						{
							"indexed": false,
							"internalType": "uint256",
							"name": "newLoanID",
							"type": "uint256"
						},
						{
							"indexed": true,
							"internalType": "address",
							"name": "lender",
							"type": "address"
						},
						{
							"indexed": true,
							"internalType": "address",
							"name": "borrower",
							"type": "address"
						},
						{
							"indexed": true,
							"internalType": "address",
							"name": "collateralcontract",
							"type": "address"
						},
						{
							"indexed": false,
							"internalType": "uint256",
							"name": "collateralAmount",
							"type": "uint256"
						},
						{
							"indexed": false,
							"internalType": "string",
							"name": "loanCurrency",
							"type": "string"
						},
						{
							"indexed": false,
							"internalType": "uint256",
							"name": "loanAmount",
							"type": "uint256"
						}
					],
					"name": "CreatedNewLoan",
					"type": "event"
				},
				{
					"anonymous": false,
					"inputs": [
						{
							"indexed": false,
							"internalType": "uint256",
							"name": "loanID",
							"type": "uint256"
						},
						{
							"indexed": true,
							"internalType": "address",
							"name": "borrower",
							"type": "address"
						},
						{
							"indexed": true,
							"internalType": "address",
							"name": "lender",
							"type": "address"
						},
						{
							"indexed": false,
							"internalType": "uint256",
							"name": "collateralAmount",
							"type": "uint256"
						}
					],
					"name": "LoanClosed",
					"type": "event"
				},
				{
					"anonymous": false,
					"inputs": [
						{
							"indexed": true,
							"internalType": "address",
							"name": "previousOwner",
							"type": "address"
						},
						{
							"indexed": true,
							"internalType": "address",
							"name": "newOwner",
							"type": "address"
						}
					],
					"name": "OwnershipTransferred",
					"type": "event"
				},
				{
					"inputs": [
						{
							"internalType": "uint256",
							"name": "loanID",
							"type": "uint256"
						}
					],
					"name": "closeRepaidLoan",
					"outputs": [],
					"stateMutability": "nonpayable",
					"type": "function"
				},
				{
					"inputs": [
						{
							"internalType": "address",
							"name": "borrower",
							"type": "address"
						},
						{
							"internalType": "address",
							"name": "lender",
							"type": "address"
						},
						{
							"internalType": "address",
							"name": "collateralcontract",
							"type": "address"
						},
						{
							"internalType": "uint256",
							"name": "collateralAmount",
							"type": "uint256"
						},
						{
							"internalType": "string",
							"name": "loanCurrency",
							"type": "string"
						},
						{
							"internalType": "uint256",
							"name": "loanAmount",
							"type": "uint256"
						}
					],
					"name": "createNewLoan",
					"outputs": [],
					"stateMutability": "payable",
					"type": "function"
				},
				{
					"inputs": [],
					"name": "getAllLoans",
					"outputs": [
						{
							"components": [
								{
									"internalType": "uint256",
									"name": "loanID",
									"type": "uint256"
								},
								{
									"internalType": "address",
									"name": "lender",
									"type": "address"
								},
								{
									"internalType": "address",
									"name": "borrower",
									"type": "address"
								},
								{
									"internalType": "address",
									"name": "collateralContract",
									"type": "address"
								},
								{
									"internalType": "uint256",
									"name": "collateralAmount",
									"type": "uint256"
								},
								{
									"internalType": "string",
									"name": "loanCurrency",
									"type": "string"
								},
								{
									"internalType": "uint256",
									"name": "loanAmount",
									"type": "uint256"
								},
								{
									"internalType": "bool",
									"name": "isClosed",
									"type": "bool"
								}
							],
							"internalType": "struct ManageLoan.Loan[]",
							"name": "",
							"type": "tuple[]"
						}
					],
					"stateMutability": "view",
					"type": "function"
				},
				{
					"inputs": [
						{
							"internalType": "uint256",
							"name": "",
							"type": "uint256"
						}
					],
					"name": "loans",
					"outputs": [
						{
							"internalType": "uint256",
							"name": "loanID",
							"type": "uint256"
						},
						{
							"internalType": "address",
							"name": "lender",
							"type": "address"
						},
						{
							"internalType": "address",
							"name": "borrower",
							"type": "address"
						},
						{
							"internalType": "address",
							"name": "collateralContract",
							"type": "address"
						},
						{
							"internalType": "uint256",
							"name": "collateralAmount",
							"type": "uint256"
						},
						{
							"internalType": "string",
							"name": "loanCurrency",
							"type": "string"
						},
						{
							"internalType": "uint256",
							"name": "loanAmount",
							"type": "uint256"
						},
						{
							"internalType": "bool",
							"name": "isClosed",
							"type": "bool"
						}
					],
					"stateMutability": "view",
					"type": "function"
				},
				{
					"inputs": [],
					"name": "owner",
					"outputs": [
						{
							"internalType": "address",
							"name": "",
							"type": "address"
						}
					],
					"stateMutability": "view",
					"type": "function"
				},
				{
					"inputs": [],
					"name": "renounceOwnership",
					"outputs": [],
					"stateMutability": "nonpayable",
					"type": "function"
				},
				{
					"inputs": [
						{
							"internalType": "address",
							"name": "newOwner",
							"type": "address"
						}
					],
					"name": "transferOwnership",
					"outputs": [],
					"stateMutability": "nonpayable",
					"type": "function"
				}
			],
			"devdoc": {
				"errors": {
					"OwnableInvalidOwner(address)": [
						{
							"details": "The owner is not a valid owner account. (eg. `address(0)`)"
						}
					],
					"OwnableUnauthorizedAccount(address)": [
						{
							"details": "The caller account is not authorized to perform an operation."
						}
					]
				},
				"kind": "dev",
				"methods": {
					"owner()": {
						"details": "Returns the address of the current owner."
					},
					"renounceOwnership()": {
						"details": "Leaves the contract without owner. It will not be possible to call `onlyOwner` functions. Can only be called by the current owner. NOTE: Renouncing ownership will leave the contract without an owner, thereby disabling any functionality that is only available to the owner."
					},
					"transferOwnership(address)": {
						"details": "Transfers ownership of the contract to a new account (`newOwner`). Can only be called by the current owner."
					}
				},
				"version": 1
			},
			"evm": {
				"assembly": "    /* \"contracts/ManageLoan.sol\":262:2855  contract ManageLoan is Ownable {... */\n  mstore(0x40, 0x80)\n    /* \"contracts/ManageLoan.sol\":428:495  constructor(address initialOwner)... */\n  callvalue\n  dup1\n  iszero\n  tag_1\n  jumpi\n  0x00\n  dup1\n  revert\ntag_1:\n  pop\n  mload(0x40)\n  sub(codesize, bytecodeSize)\n  dup1\n  bytecodeSize\n  dup4\n  codecopy\n  dup2\n  dup2\n  add\n  0x40\n  mstore\n  dup2\n  add\n  swap1\n  tag_2\n  swap2\n  swap1\n  tag_3\n  jump\t// in\ntag_2:\n    /* \"contracts/ManageLoan.sol\":479:491  initialOwner */\n  dup1\n    /* \"@openzeppelin/contracts/access/Ownable.sol\":1297:1298  0 */\n  0x00\n    /* \"@openzeppelin/contracts/access/Ownable.sol\":1273:1299  initialOwner == address(0) */\n  0xffffffffffffffffffffffffffffffffffffffff\n  and\n    /* \"@openzeppelin/contracts/access/Ownable.sol\":1273:1285  initialOwner */\n  dup2\n    /* \"@openzeppelin/contracts/access/Ownable.sol\":1273:1299  initialOwner == address(0) */\n  0xffffffffffffffffffffffffffffffffffffffff\n  and\n  sub\n    /* \"@openzeppelin/contracts/access/Ownable.sol\":1269:1364  if (initialOwner == address(0)) {... */\n  tag_7\n  jumpi\n    /* \"@openzeppelin/contracts/access/Ownable.sol\":1350:1351  0 */\n  0x00\n    /* \"@openzeppelin/contracts/access/Ownable.sol\":1322:1353  OwnableInvalidOwner(address(0)) */\n  mload(0x40)\n  0x1e4fbdf700000000000000000000000000000000000000000000000000000000\n  dup2\n  mstore\n  0x04\n  add\n  tag_8\n  swap2\n  swap1\n  tag_9\n  jump\t// in\ntag_8:\n  mload(0x40)\n  dup1\n  swap2\n  sub\n  swap1\n  revert\n    /* \"@openzeppelin/contracts/access/Ownable.sol\":1269:1364  if (initialOwner == address(0)) {... */\ntag_7:\n    /* \"@openzeppelin/contracts/access/Ownable.sol\":1373:1405  _transferOwnership(initialOwner) */\n  tag_10\n    /* \"@openzeppelin/contracts/access/Ownable.sol\":1392:1404  initialOwner */\n  dup2\n    /* \"@openzeppelin/contracts/access/Ownable.sol\":1373:1391  _transferOwnership */\n  shl(0x20, tag_11)\n    /* \"@openzeppelin/contracts/access/Ownable.sol\":1373:1405  _transferOwnership(initialOwner) */\n  0x20\n  shr\n  jump\t// in\ntag_10:\n    /* \"@openzeppelin/contracts/access/Ownable.sol\":1225:1412  constructor(address initialOwner) {... */\n  pop\n    /* \"contracts/ManageLoan.sol\":428:495  constructor(address initialOwner)... */\n  pop\n    /* \"contracts/ManageLoan.sol\":262:2855  contract ManageLoan is Ownable {... */\n  jump(tag_13)\n    /* \"@openzeppelin/contracts/access/Ownable.sol\":2912:3099  function _transferOwnership(address newOwner) internal virtual {... */\ntag_11:\n    /* \"@openzeppelin/contracts/access/Ownable.sol\":2985:3001  address oldOwner */\n  0x00\n    /* \"@openzeppelin/contracts/access/Ownable.sol\":3004:3010  _owner */\n  dup1\n  0x00\n  swap1\n  sload\n  swap1\n  0x0100\n  exp\n  swap1\n  div\n  0xffffffffffffffffffffffffffffffffffffffff\n  and\n    /* \"@openzeppelin/contracts/access/Ownable.sol\":2985:3010  address oldOwner = _owner */\n  swap1\n  pop\n    /* \"@openzeppelin/contracts/access/Ownable.sol\":3029:3037  newOwner */\n  dup2\n    /* \"@openzeppelin/contracts/access/Ownable.sol\":3020:3026  _owner */\n  0x00\n  dup1\n    /* \"@openzeppelin/contracts/access/Ownable.sol\":3020:3037  _owner = newOwner */\n  0x0100\n  exp\n  dup2\n  sload\n  dup2\n  0xffffffffffffffffffffffffffffffffffffffff\n  mul\n  not\n  and\n  swap1\n  dup4\n  0xffffffffffffffffffffffffffffffffffffffff\n  and\n  mul\n  or\n  swap1\n  sstore\n  pop\n    /* \"@openzeppelin/contracts/access/Ownable.sol\":3083:3091  newOwner */\n  dup2\n    /* \"@openzeppelin/contracts/access/Ownable.sol\":3052:3092  OwnershipTransferred(oldOwner, newOwner) */\n  0xffffffffffffffffffffffffffffffffffffffff\n  and\n    /* \"@openzeppelin/contracts/access/Ownable.sol\":3073:3081  oldOwner */\n  dup2\n    /* \"@openzeppelin/contracts/access/Ownable.sol\":3052:3092  OwnershipTransferred(oldOwner, newOwner) */\n  0xffffffffffffffffffffffffffffffffffffffff\n  and\n  0x8be0079c531659141344cd1fd0a4f28419497f9722a3daafe3b4186f6b6457e0\n  mload(0x40)\n  mload(0x40)\n  dup1\n  swap2\n  sub\n  swap1\n  log3\n    /* \"@openzeppelin/contracts/access/Ownable.sol\":2975:3099  {... */\n  pop\n    /* \"@openzeppelin/contracts/access/Ownable.sol\":2912:3099  function _transferOwnership(address newOwner) internal virtual {... */\n  pop\n  jump\t// out\n    /* \"#utility.yul\":88:205   */\ntag_16:\n    /* \"#utility.yul\":197:198   */\n  0x00\n    /* \"#utility.yul\":194:195   */\n  dup1\n    /* \"#utility.yul\":187:199   */\n  revert\n    /* \"#utility.yul\":334:460   */\ntag_18:\n    /* \"#utility.yul\":371:378   */\n  0x00\n    /* \"#utility.yul\":411:453   */\n  0xffffffffffffffffffffffffffffffffffffffff\n    /* \"#utility.yul\":404:409   */\n  dup3\n    /* \"#utility.yul\":400:454   */\n  and\n    /* \"#utility.yul\":389:454   */\n  swap1\n  pop\n    /* \"#utility.yul\":334:460   */\n  swap2\n  swap1\n  pop\n  jump\t// out\n    /* \"#utility.yul\":466:562   */\ntag_19:\n    /* \"#utility.yul\":503:510   */\n  0x00\n    /* \"#utility.yul\":532:556   */\n  tag_29\n    /* \"#utility.yul\":550:555   */\n  dup3\n    /* \"#utility.yul\":532:556   */\n  tag_18\n  jump\t// in\ntag_29:\n    /* \"#utility.yul\":521:556   */\n  swap1\n  pop\n    /* \"#utility.yul\":466:562   */\n  swap2\n  swap1\n  pop\n  jump\t// out\n    /* \"#utility.yul\":568:690   */\ntag_20:\n    /* \"#utility.yul\":641:665   */\n  tag_31\n    /* \"#utility.yul\":659:664   */\n  dup2\n    /* \"#utility.yul\":641:665   */\n  tag_19\n  jump\t// in\ntag_31:\n    /* \"#utility.yul\":634:639   */\n  dup2\n    /* \"#utility.yul\":631:666   */\n  eq\n    /* \"#utility.yul\":621:684   */\n  tag_32\n  jumpi\n    /* \"#utility.yul\":680:681   */\n  0x00\n    /* \"#utility.yul\":677:678   */\n  dup1\n    /* \"#utility.yul\":670:682   */\n  revert\n    /* \"#utility.yul\":621:684   */\ntag_32:\n    /* \"#utility.yul\":568:690   */\n  pop\n  jump\t// out\n    /* \"#utility.yul\":696:839   */\ntag_21:\n    /* \"#utility.yul\":753:758   */\n  0x00\n    /* \"#utility.yul\":784:790   */\n  dup2\n    /* \"#utility.yul\":778:791   */\n  mload\n    /* \"#utility.yul\":769:791   */\n  swap1\n  pop\n    /* \"#utility.yul\":800:833   */\n  tag_34\n    /* \"#utility.yul\":827:832   */\n  dup2\n    /* \"#utility.yul\":800:833   */\n  tag_20\n  jump\t// in\ntag_34:\n    /* \"#utility.yul\":696:839   */\n  swap3\n  swap2\n  pop\n  pop\n  jump\t// out\n    /* \"#utility.yul\":845:1196   */\ntag_3:\n    /* \"#utility.yul\":915:921   */\n  0x00\n    /* \"#utility.yul\":964:966   */\n  0x20\n    /* \"#utility.yul\":952:961   */\n  dup3\n    /* \"#utility.yul\":943:950   */\n  dup5\n    /* \"#utility.yul\":939:962   */\n  sub\n    /* \"#utility.yul\":935:967   */\n  slt\n    /* \"#utility.yul\":932:1051   */\n  iszero\n  tag_36\n  jumpi\n    /* \"#utility.yul\":970:1049   */\n  tag_37\n  tag_16\n  jump\t// in\ntag_37:\n    /* \"#utility.yul\":932:1051   */\ntag_36:\n    /* \"#utility.yul\":1090:1091   */\n  0x00\n    /* \"#utility.yul\":1115:1179   */\n  tag_38\n    /* \"#utility.yul\":1171:1178   */\n  dup5\n    /* \"#utility.yul\":1162:1168   */\n  dup3\n    /* \"#utility.yul\":1151:1160   */\n  dup6\n    /* \"#utility.yul\":1147:1169   */\n  add\n    /* \"#utility.yul\":1115:1179   */\n  tag_21\n  jump\t// in\ntag_38:\n    /* \"#utility.yul\":1105:1179   */\n  swap2\n  pop\n    /* \"#utility.yul\":1061:1189   */\n  pop\n    /* \"#utility.yul\":845:1196   */\n  swap3\n  swap2\n  pop\n  pop\n  jump\t// out\n    /* \"#utility.yul\":1202:1320   */\ntag_22:\n    /* \"#utility.yul\":1289:1313   */\n  tag_40\n    /* \"#utility.yul\":1307:1312   */\n  dup2\n    /* \"#utility.yul\":1289:1313   */\n  tag_19\n  jump\t// in\ntag_40:\n    /* \"#utility.yul\":1284:1287   */\n  dup3\n    /* \"#utility.yul\":1277:1314   */\n  mstore\n    /* \"#utility.yul\":1202:1320   */\n  pop\n  pop\n  jump\t// out\n    /* \"#utility.yul\":1326:1548   */\ntag_9:\n    /* \"#utility.yul\":1419:1423   */\n  0x00\n    /* \"#utility.yul\":1457:1459   */\n  0x20\n    /* \"#utility.yul\":1446:1455   */\n  dup3\n    /* \"#utility.yul\":1442:1460   */\n  add\n    /* \"#utility.yul\":1434:1460   */\n  swap1\n  pop\n    /* \"#utility.yul\":1470:1541   */\n  tag_42\n    /* \"#utility.yul\":1538:1539   */\n  0x00\n    /* \"#utility.yul\":1527:1536   */\n  dup4\n    /* \"#utility.yul\":1523:1540   */\n  add\n    /* \"#utility.yul\":1514:1520   */\n  dup5\n    /* \"#utility.yul\":1470:1541   */\n  tag_22\n  jump\t// in\ntag_42:\n    /* \"#utility.yul\":1326:1548   */\n  swap3\n  swap2\n  pop\n  pop\n  jump\t// out\n    /* \"contracts/ManageLoan.sol\":262:2855  contract ManageLoan is Ownable {... */\ntag_13:\n  dataSize(sub_0)\n  dup1\n  dataOffset(sub_0)\n  0x00\n  codecopy\n  0x00\n  return\nstop\n\nsub_0: assembly {\n        /* \"contracts/ManageLoan.sol\":262:2855  contract ManageLoan is Ownable {... */\n      mstore(0x40, 0x80)\n      jumpi(tag_1, lt(calldatasize, 0x04))\n      shr(0xe0, calldataload(0x00))\n      dup1\n      0x8da5cb5b\n      gt\n      tag_9\n      jumpi\n      dup1\n      0x8da5cb5b\n      eq\n      tag_5\n      jumpi\n      dup1\n      0xa5bfd16a\n      eq\n      tag_6\n      jumpi\n      dup1\n      0xe1ec3c68\n      eq\n      tag_7\n      jumpi\n      dup1\n      0xf2fde38b\n      eq\n      tag_8\n      jumpi\n      jump(tag_1)\n    tag_9:\n      dup1\n      0x715018a6\n      eq\n      tag_2\n      jumpi\n      dup1\n      0x81ae108e\n      eq\n      tag_3\n      jumpi\n      dup1\n      0x8acdb035\n      eq\n      tag_4\n      jumpi\n    tag_1:\n      0x00\n      dup1\n      revert\n        /* \"@openzeppelin/contracts/access/Ownable.sol\":2293:2394  function renounceOwnership() public virtual onlyOwner {... */\n    tag_2:\n      callvalue\n      dup1\n      iszero\n      tag_10\n      jumpi\n      0x00\n      dup1\n      revert\n    tag_10:\n      pop\n      tag_11\n      tag_12\n      jump\t// in\n    tag_11:\n      stop\n        /* \"contracts/ManageLoan.sol\":1942:2739  function closeRepaidLoan(uint loanID) external onlyOwner {... */\n    tag_3:\n      callvalue\n      dup1\n      iszero\n      tag_13\n      jumpi\n      0x00\n      dup1\n      revert\n    tag_13:\n      pop\n      tag_14\n      0x04\n      dup1\n      calldatasize\n      sub\n      dup2\n      add\n      swap1\n      tag_15\n      swap2\n      swap1\n      tag_16\n      jump\t// in\n    tag_15:\n      tag_17\n      jump\t// in\n    tag_14:\n      stop\n        /* \"contracts/ManageLoan.sol\":1101:1932  function createNewLoan(address borrower, address lender, address collateralcontract, uint256 collateralAmount, string memory loanCurrency, uint256 loanAmount) external payable onlyOwner{... */\n    tag_4:\n      tag_18\n      0x04\n      dup1\n      calldatasize\n      sub\n      dup2\n      add\n      swap1\n      tag_19\n      swap2\n      swap1\n      tag_20\n      jump\t// in\n    tag_19:\n      tag_21\n      jump\t// in\n    tag_18:\n      stop\n        /* \"@openzeppelin/contracts/access/Ownable.sol\":1638:1723  function owner() public view virtual returns (address) {... */\n    tag_5:\n      callvalue\n      dup1\n      iszero\n      tag_22\n      jumpi\n      0x00\n      dup1\n      revert\n    tag_22:\n      pop\n      tag_23\n      tag_24\n      jump\t// in\n    tag_23:\n      mload(0x40)\n      tag_25\n      swap2\n      swap1\n      tag_26\n      jump\t// in\n    tag_25:\n      mload(0x40)\n      dup1\n      swap2\n      sub\n      swap1\n      return\n        /* \"contracts/ManageLoan.sol\":2755:2848  function getAllLoans() external view returns ( Loan[] memory) {... */\n    tag_6:\n      callvalue\n      dup1\n      iszero\n      tag_27\n      jumpi\n      0x00\n      dup1\n      revert\n    tag_27:\n      pop\n      tag_28\n      tag_29\n      jump\t// in\n    tag_28:\n      mload(0x40)\n      tag_30\n      swap2\n      swap1\n      tag_31\n      jump\t// in\n    tag_30:\n      mload(0x40)\n      dup1\n      swap2\n      sub\n      swap1\n      return\n        /* \"contracts/ManageLoan.sol\":762:781  Loan[] public loans */\n    tag_7:\n      callvalue\n      dup1\n      iszero\n      tag_32\n      jumpi\n      0x00\n      dup1\n      revert\n    tag_32:\n      pop\n      tag_33\n      0x04\n      dup1\n      calldatasize\n      sub\n      dup2\n      add\n      swap1\n      tag_34\n      swap2\n      swap1\n      tag_16\n      jump\t// in\n    tag_34:\n      tag_35\n      jump\t// in\n    tag_33:\n      mload(0x40)\n      tag_36\n      swap9\n      swap8\n      swap7\n      swap6\n      swap5\n      swap4\n      swap3\n      swap2\n      swap1\n      tag_37\n      jump\t// in\n    tag_36:\n      mload(0x40)\n      dup1\n      swap2\n      sub\n      swap1\n      return\n        /* \"@openzeppelin/contracts/access/Ownable.sol\":2543:2758  function transferOwnership(address newOwner) public virtual onlyOwner {... */\n    tag_8:\n      callvalue\n      dup1\n      iszero\n      tag_38\n      jumpi\n      0x00\n      dup1\n      revert\n    tag_38:\n      pop\n      tag_39\n      0x04\n      dup1\n      calldatasize\n      sub\n      dup2\n      add\n      swap1\n      tag_40\n      swap2\n      swap1\n      tag_41\n      jump\t// in\n    tag_40:\n      tag_42\n      jump\t// in\n    tag_39:\n      stop\n        /* \"@openzeppelin/contracts/access/Ownable.sol\":2293:2394  function renounceOwnership() public virtual onlyOwner {... */\n    tag_12:\n        /* \"@openzeppelin/contracts/access/Ownable.sol\":1531:1544  _checkOwner() */\n      tag_44\n        /* \"@openzeppelin/contracts/access/Ownable.sol\":1531:1542  _checkOwner */\n      tag_45\n        /* \"@openzeppelin/contracts/access/Ownable.sol\":1531:1544  _checkOwner() */\n      jump\t// in\n    tag_44:\n        /* \"@openzeppelin/contracts/access/Ownable.sol\":2357:2387  _transferOwnership(address(0)) */\n      tag_47\n        /* \"@openzeppelin/contracts/access/Ownable.sol\":2384:2385  0 */\n      0x00\n        /* \"@openzeppelin/contracts/access/Ownable.sol\":2357:2375  _transferOwnership */\n      tag_48\n        /* \"@openzeppelin/contracts/access/Ownable.sol\":2357:2387  _transferOwnership(address(0)) */\n      jump\t// in\n    tag_47:\n        /* \"@openzeppelin/contracts/access/Ownable.sol\":2293:2394  function renounceOwnership() public virtual onlyOwner {... */\n      jump\t// out\n        /* \"contracts/ManageLoan.sol\":1942:2739  function closeRepaidLoan(uint loanID) external onlyOwner {... */\n    tag_17:\n        /* \"@openzeppelin/contracts/access/Ownable.sol\":1531:1544  _checkOwner() */\n      tag_50\n        /* \"@openzeppelin/contracts/access/Ownable.sol\":1531:1542  _checkOwner */\n      tag_45\n        /* \"@openzeppelin/contracts/access/Ownable.sol\":1531:1544  _checkOwner() */\n      jump\t// in\n    tag_50:\n        /* \"contracts/ManageLoan.sol\":2059:2060  0 */\n      0x00\n        /* \"contracts/ManageLoan.sol\":2050:2056  loanID */\n      dup2\n        /* \"contracts/ManageLoan.sol\":2050:2060  loanID > 0 */\n      gt\n        /* \"contracts/ManageLoan.sol\":2050:2086  loanID > 0 && loanID <= loans.length */\n      dup1\n      iszero\n      tag_52\n      jumpi\n      pop\n        /* \"contracts/ManageLoan.sol\":2074:2079  loans */\n      0x02\n        /* \"contracts/ManageLoan.sol\":2074:2086  loans.length */\n      dup1\n      sload\n      swap1\n      pop\n        /* \"contracts/ManageLoan.sol\":2064:2070  loanID */\n      dup2\n        /* \"contracts/ManageLoan.sol\":2064:2086  loanID <= loans.length */\n      gt\n      iszero\n        /* \"contracts/ManageLoan.sol\":2050:2086  loanID > 0 && loanID <= loans.length */\n    tag_52:\n        /* \"contracts/ManageLoan.sol\":2042:2113  require(loanID > 0 && loanID <= loans.length, \"Loan ID does not exist\") */\n      tag_53\n      jumpi\n      mload(0x40)\n      0x08c379a000000000000000000000000000000000000000000000000000000000\n      dup2\n      mstore\n      0x04\n      add\n      tag_54\n      swap1\n      tag_55\n      jump\t// in\n    tag_54:\n      mload(0x40)\n      dup1\n      swap2\n      sub\n      swap1\n      revert\n    tag_53:\n        /* \"contracts/ManageLoan.sol\":2134:2151  Loan storage loan */\n      0x00\n        /* \"contracts/ManageLoan.sol\":2154:2159  loans */\n      0x02\n        /* \"contracts/ManageLoan.sol\":2169:2170  1 */\n      0x01\n        /* \"contracts/ManageLoan.sol\":2160:2166  loanID */\n      dup4\n        /* \"contracts/ManageLoan.sol\":2160:2170  loanID - 1 */\n      tag_56\n      swap2\n      swap1\n      tag_57\n      jump\t// in\n    tag_56:\n        /* \"contracts/ManageLoan.sol\":2154:2171  loans[loanID - 1] */\n      dup2\n      sload\n      dup2\n      lt\n      tag_58\n      jumpi\n      tag_59\n      tag_60\n      jump\t// in\n    tag_59:\n    tag_58:\n      swap1\n      0x00\n      mstore\n      keccak256(0x00, 0x20)\n      swap1\n      0x08\n      mul\n      add\n        /* \"contracts/ManageLoan.sol\":2134:2171  Loan storage loan = loans[loanID - 1] */\n      swap1\n      pop\n        /* \"contracts/ManageLoan.sol\":2267:2271  loan */\n      dup1\n        /* \"contracts/ManageLoan.sol\":2267:2280  loan.isClosed */\n      0x07\n      add\n      0x00\n      swap1\n      sload\n      swap1\n      0x0100\n      exp\n      swap1\n      div\n      0xff\n      and\n        /* \"contracts/ManageLoan.sol\":2266:2280  !loan.isClosed */\n      iszero\n        /* \"contracts/ManageLoan.sol\":2258:2307  require(!loan.isClosed, \"Loan is already closed\") */\n      tag_62\n      jumpi\n      mload(0x40)\n      0x08c379a000000000000000000000000000000000000000000000000000000000\n      dup2\n      mstore\n      0x04\n      add\n      tag_63\n      swap1\n      tag_64\n      jump\t// in\n    tag_63:\n      mload(0x40)\n      dup1\n      swap2\n      sub\n      swap1\n      revert\n    tag_62:\n        /* \"contracts/ManageLoan.sol\":2372:2376  true */\n      0x01\n        /* \"contracts/ManageLoan.sol\":2356:2360  loan */\n      dup2\n        /* \"contracts/ManageLoan.sol\":2356:2369  loan.isClosed */\n      0x07\n      add\n      0x00\n        /* \"contracts/ManageLoan.sol\":2356:2376  loan.isClosed = true */\n      0x0100\n      exp\n      dup2\n      sload\n      dup2\n      0xff\n      mul\n      not\n      and\n      swap1\n      dup4\n      iszero\n      iszero\n      mul\n      or\n      swap1\n      sstore\n      pop\n        /* \"contracts/ManageLoan.sol\":2477:2481  loan */\n      dup1\n        /* \"contracts/ManageLoan.sol\":2477:2500  loan.collateralContract */\n      0x03\n      add\n      0x00\n      swap1\n      sload\n      swap1\n      0x0100\n      exp\n      swap1\n      div\n      0xffffffffffffffffffffffffffffffffffffffff\n      and\n        /* \"contracts/ManageLoan.sol\":2470:2510  IERC20(loan.collateralContract).transfer */\n      0xffffffffffffffffffffffffffffffffffffffff\n      and\n      0xa9059cbb\n        /* \"contracts/ManageLoan.sol\":2511:2515  loan */\n      dup3\n        /* \"contracts/ManageLoan.sol\":2511:2524  loan.borrower */\n      0x02\n      add\n      0x00\n      swap1\n      sload\n      swap1\n      0x0100\n      exp\n      swap1\n      div\n      0xffffffffffffffffffffffffffffffffffffffff\n      and\n        /* \"contracts/ManageLoan.sol\":2526:2530  loan */\n      dup4\n        /* \"contracts/ManageLoan.sol\":2526:2547  loan.collateralAmount */\n      0x04\n      add\n      sload\n        /* \"contracts/ManageLoan.sol\":2470:2548  IERC20(loan.collateralContract).transfer(loan.borrower, loan.collateralAmount) */\n      mload(0x40)\n      dup4\n      0xffffffff\n      and\n      0xe0\n      shl\n      dup2\n      mstore\n      0x04\n      add\n      tag_65\n      swap3\n      swap2\n      swap1\n      tag_66\n      jump\t// in\n    tag_65:\n      0x20\n      mload(0x40)\n      dup1\n      dup4\n      sub\n      dup2\n      0x00\n      dup8\n      gas\n      call\n      iszero\n      dup1\n      iszero\n      tag_68\n      jumpi\n      returndatasize\n      0x00\n      dup1\n      returndatacopy\n      revert(0x00, returndatasize)\n    tag_68:\n      pop\n      pop\n      pop\n      pop\n      mload(0x40)\n      returndatasize\n      not(0x1f)\n      0x1f\n      dup3\n      add\n      and\n      dup3\n      add\n      dup1\n      0x40\n      mstore\n      pop\n      dup2\n      add\n      swap1\n      tag_69\n      swap2\n      swap1\n      tag_70\n      jump\t// in\n    tag_69:\n        /* \"contracts/ManageLoan.sol\":2448:2602  require(... */\n      tag_71\n      jumpi\n      mload(0x40)\n      0x08c379a000000000000000000000000000000000000000000000000000000000\n      dup2\n      mstore\n      0x04\n      add\n      tag_72\n      swap1\n      tag_73\n      jump\t// in\n    tag_72:\n      mload(0x40)\n      dup1\n      swap2\n      sub\n      swap1\n      revert\n    tag_71:\n        /* \"contracts/ManageLoan.sol\":2696:2700  loan */\n      dup1\n        /* \"contracts/ManageLoan.sol\":2696:2707  loan.lender */\n      0x01\n      add\n      0x00\n      swap1\n      sload\n      swap1\n      0x0100\n      exp\n      swap1\n      div\n      0xffffffffffffffffffffffffffffffffffffffff\n      and\n        /* \"contracts/ManageLoan.sol\":2662:2731  LoanClosed(loanID, loan.borrower, loan.lender, loan.collateralAmount) */\n      0xffffffffffffffffffffffffffffffffffffffff\n      and\n        /* \"contracts/ManageLoan.sol\":2681:2685  loan */\n      dup2\n        /* \"contracts/ManageLoan.sol\":2681:2694  loan.borrower */\n      0x02\n      add\n      0x00\n      swap1\n      sload\n      swap1\n      0x0100\n      exp\n      swap1\n      div\n      0xffffffffffffffffffffffffffffffffffffffff\n      and\n        /* \"contracts/ManageLoan.sol\":2662:2731  LoanClosed(loanID, loan.borrower, loan.lender, loan.collateralAmount) */\n      0xffffffffffffffffffffffffffffffffffffffff\n      and\n      0x9b1e4a3e564e29a165c2bc2add6a4a310a9070d6a908e2c54661b76c1fb32ef6\n        /* \"contracts/ManageLoan.sol\":2673:2679  loanID */\n      dup5\n        /* \"contracts/ManageLoan.sol\":2709:2713  loan */\n      dup5\n        /* \"contracts/ManageLoan.sol\":2709:2730  loan.collateralAmount */\n      0x04\n      add\n      sload\n        /* \"contracts/ManageLoan.sol\":2662:2731  LoanClosed(loanID, loan.borrower, loan.lender, loan.collateralAmount) */\n      mload(0x40)\n      tag_74\n      swap3\n      swap2\n      swap1\n      tag_75\n      jump\t// in\n    tag_74:\n      mload(0x40)\n      dup1\n      swap2\n      sub\n      swap1\n      log3\n        /* \"contracts/ManageLoan.sol\":1999:2739  {... */\n      pop\n        /* \"contracts/ManageLoan.sol\":1942:2739  function closeRepaidLoan(uint loanID) external onlyOwner {... */\n      pop\n      jump\t// out\n        /* \"contracts/ManageLoan.sol\":1101:1932  function createNewLoan(address borrower, address lender, address collateralcontract, uint256 collateralAmount, string memory loanCurrency, uint256 loanAmount) external payable onlyOwner{... */\n    tag_21:\n        /* \"@openzeppelin/contracts/access/Ownable.sol\":1531:1544  _checkOwner() */\n      tag_77\n        /* \"@openzeppelin/contracts/access/Ownable.sol\":1531:1542  _checkOwner */\n      tag_45\n        /* \"@openzeppelin/contracts/access/Ownable.sol\":1531:1544  _checkOwner() */\n      jump\t// in\n    tag_77:\n        /* \"contracts/ManageLoan.sol\":1342:1368  _loanIDCounter.increment() */\n      tag_79\n        /* \"contracts/ManageLoan.sol\":1342:1356  _loanIDCounter */\n      0x01\n        /* \"contracts/ManageLoan.sol\":1342:1366  _loanIDCounter.increment */\n      tag_80\n        /* \"contracts/ManageLoan.sol\":1342:1368  _loanIDCounter.increment() */\n      jump\t// in\n    tag_79:\n        /* \"contracts/ManageLoan.sol\":1379:1393  uint newLoanID */\n      0x00\n        /* \"contracts/ManageLoan.sol\":1396:1420  _loanIDCounter.current() */\n      tag_81\n        /* \"contracts/ManageLoan.sol\":1396:1410  _loanIDCounter */\n      0x01\n        /* \"contracts/ManageLoan.sol\":1396:1418  _loanIDCounter.current */\n      tag_82\n        /* \"contracts/ManageLoan.sol\":1396:1420  _loanIDCounter.current() */\n      jump\t// in\n    tag_81:\n        /* \"contracts/ManageLoan.sol\":1379:1420  uint newLoanID = _loanIDCounter.current() */\n      swap1\n      pop\n        /* \"contracts/ManageLoan.sol\":1433:1452  Loan memory newLoan */\n      tag_83\n      tag_84\n      jump\t// in\n    tag_83:\n        /* \"contracts/ManageLoan.sol\":1480:1489  newLoanID */\n      dup2\n        /* \"contracts/ManageLoan.sol\":1463:1470  newLoan */\n      dup2\n        /* \"contracts/ManageLoan.sol\":1463:1477  newLoan.loanID */\n      0x00\n      add\n        /* \"contracts/ManageLoan.sol\":1463:1489  newLoan.loanID = newLoanID */\n      dup2\n      dup2\n      mstore\n      pop\n      pop\n        /* \"contracts/ManageLoan.sol\":1517:1523  lender */\n      dup7\n        /* \"contracts/ManageLoan.sol\":1500:1507  newLoan */\n      dup2\n        /* \"contracts/ManageLoan.sol\":1500:1514  newLoan.lender */\n      0x20\n      add\n        /* \"contracts/ManageLoan.sol\":1500:1523  newLoan.lender = lender */\n      swap1\n      0xffffffffffffffffffffffffffffffffffffffff\n      and\n      swap1\n      dup2\n      0xffffffffffffffffffffffffffffffffffffffff\n      and\n      dup2\n      mstore\n      pop\n      pop\n        /* \"contracts/ManageLoan.sol\":1553:1561  borrower */\n      dup8\n        /* \"contracts/ManageLoan.sol\":1534:1541  newLoan */\n      dup2\n        /* \"contracts/ManageLoan.sol\":1534:1550  newLoan.borrower */\n      0x40\n      add\n        /* \"contracts/ManageLoan.sol\":1534:1561  newLoan.borrower = borrower */\n      swap1\n      0xffffffffffffffffffffffffffffffffffffffff\n      and\n      swap1\n      dup2\n      0xffffffffffffffffffffffffffffffffffffffff\n      and\n      dup2\n      mstore\n      pop\n      pop\n        /* \"contracts/ManageLoan.sol\":1601:1619  collateralcontract */\n      dup6\n        /* \"contracts/ManageLoan.sol\":1572:1579  newLoan */\n      dup2\n        /* \"contracts/ManageLoan.sol\":1572:1598  newLoan.collateralContract */\n      0x60\n      add\n        /* \"contracts/ManageLoan.sol\":1572:1619  newLoan.collateralContract = collateralcontract */\n      swap1\n      0xffffffffffffffffffffffffffffffffffffffff\n      and\n      swap1\n      dup2\n      0xffffffffffffffffffffffffffffffffffffffff\n      and\n      dup2\n      mstore\n      pop\n      pop\n        /* \"contracts/ManageLoan.sol\":1657:1673  collateralAmount */\n      dup5\n        /* \"contracts/ManageLoan.sol\":1630:1637  newLoan */\n      dup2\n        /* \"contracts/ManageLoan.sol\":1630:1654  newLoan.collateralAmount */\n      0x80\n      add\n        /* \"contracts/ManageLoan.sol\":1630:1673  newLoan.collateralAmount = collateralAmount */\n      dup2\n      dup2\n      mstore\n      pop\n      pop\n        /* \"contracts/ManageLoan.sol\":1707:1719  loanCurrency */\n      dup4\n        /* \"contracts/ManageLoan.sol\":1684:1691  newLoan */\n      dup2\n        /* \"contracts/ManageLoan.sol\":1684:1704  newLoan.loanCurrency */\n      0xa0\n      add\n        /* \"contracts/ManageLoan.sol\":1684:1719  newLoan.loanCurrency = loanCurrency */\n      dup2\n      swap1\n      mstore\n      pop\n        /* \"contracts/ManageLoan.sol\":1751:1761  loanAmount */\n      dup3\n        /* \"contracts/ManageLoan.sol\":1730:1737  newLoan */\n      dup2\n        /* \"contracts/ManageLoan.sol\":1730:1748  newLoan.loanAmount */\n      0xc0\n      add\n        /* \"contracts/ManageLoan.sol\":1730:1761  newLoan.loanAmount = loanAmount */\n      dup2\n      dup2\n      mstore\n      pop\n      pop\n        /* \"contracts/ManageLoan.sol\":1772:1777  loans */\n      0x02\n        /* \"contracts/ManageLoan.sol\":1783:1790  newLoan */\n      dup2\n        /* \"contracts/ManageLoan.sol\":1772:1791  loans.push(newLoan) */\n      swap1\n      dup1\n      0x01\n      dup2\n      sload\n      add\n      dup1\n      dup3\n      sstore\n      dup1\n      swap2\n      pop\n      pop\n      0x01\n      swap1\n      sub\n      swap1\n      0x00\n      mstore\n      keccak256(0x00, 0x20)\n      swap1\n      0x08\n      mul\n      add\n      0x00\n      swap1\n      swap2\n      swap1\n      swap2\n      swap1\n      swap2\n      pop\n      0x00\n      dup3\n      add\n      mload\n      dup2\n      0x00\n      add\n      sstore\n      0x20\n      dup3\n      add\n      mload\n      dup2\n      0x01\n      add\n      exp(0x0100, 0x00)\n      dup2\n      sload\n      dup2\n      0xffffffffffffffffffffffffffffffffffffffff\n      mul\n      not\n      and\n      swap1\n      dup4\n      0xffffffffffffffffffffffffffffffffffffffff\n      and\n      mul\n      or\n      swap1\n      sstore\n      pop\n      0x40\n      dup3\n      add\n      mload\n      dup2\n      0x02\n      add\n      exp(0x0100, 0x00)\n      dup2\n      sload\n      dup2\n      0xffffffffffffffffffffffffffffffffffffffff\n      mul\n      not\n      and\n      swap1\n      dup4\n      0xffffffffffffffffffffffffffffffffffffffff\n      and\n      mul\n      or\n      swap1\n      sstore\n      pop\n      0x60\n      dup3\n      add\n      mload\n      dup2\n      0x03\n      add\n      exp(0x0100, 0x00)\n      dup2\n      sload\n      dup2\n      0xffffffffffffffffffffffffffffffffffffffff\n      mul\n      not\n      and\n      swap1\n      dup4\n      0xffffffffffffffffffffffffffffffffffffffff\n      and\n      mul\n      or\n      swap1\n      sstore\n      pop\n      0x80\n      dup3\n      add\n      mload\n      dup2\n      0x04\n      add\n      sstore\n      0xa0\n      dup3\n      add\n      mload\n      dup2\n      0x05\n      add\n      swap1\n      dup2\n      tag_86\n      swap2\n      swap1\n      tag_87\n      jump\t// in\n    tag_86:\n      pop\n      0xc0\n      dup3\n      add\n      mload\n      dup2\n      0x06\n      add\n      sstore\n      0xe0\n      dup3\n      add\n      mload\n      dup2\n      0x07\n      add\n      exp(0x0100, 0x00)\n      dup2\n      sload\n      dup2\n      0xff\n      mul\n      not\n      and\n      swap1\n      dup4\n      iszero\n      iszero\n      mul\n      or\n      swap1\n      sstore\n      pop\n      pop\n      pop\n        /* \"contracts/ManageLoan.sol\":1852:1870  collateralcontract */\n      dup6\n        /* \"contracts/ManageLoan.sol\":1809:1914  CreatedNewLoan(newLoanID, lender,borrower, collateralcontract ,collateralAmount, loanCurrency,loanAmount) */\n      0xffffffffffffffffffffffffffffffffffffffff\n      and\n        /* \"contracts/ManageLoan.sol\":1842:1850  borrower */\n      dup9\n        /* \"contracts/ManageLoan.sol\":1809:1914  CreatedNewLoan(newLoanID, lender,borrower, collateralcontract ,collateralAmount, loanCurrency,loanAmount) */\n      0xffffffffffffffffffffffffffffffffffffffff\n      and\n        /* \"contracts/ManageLoan.sol\":1835:1841  lender */\n      dup9\n        /* \"contracts/ManageLoan.sol\":1809:1914  CreatedNewLoan(newLoanID, lender,borrower, collateralcontract ,collateralAmount, loanCurrency,loanAmount) */\n      0xffffffffffffffffffffffffffffffffffffffff\n      and\n      0xc78bdcaf3378384d924b5b97d40513067ac0127e564e504c88d7f0ef78db15bf\n        /* \"contracts/ManageLoan.sol\":1824:1833  newLoanID */\n      dup6\n        /* \"contracts/ManageLoan.sol\":1872:1888  collateralAmount */\n      dup10\n        /* \"contracts/ManageLoan.sol\":1890:1902  loanCurrency */\n      dup10\n        /* \"contracts/ManageLoan.sol\":1903:1913  loanAmount */\n      dup10\n        /* \"contracts/ManageLoan.sol\":1809:1914  CreatedNewLoan(newLoanID, lender,borrower, collateralcontract ,collateralAmount, loanCurrency,loanAmount) */\n      mload(0x40)\n      tag_88\n      swap5\n      swap4\n      swap3\n      swap2\n      swap1\n      tag_89\n      jump\t// in\n    tag_88:\n      mload(0x40)\n      dup1\n      swap2\n      sub\n      swap1\n      log4\n        /* \"contracts/ManageLoan.sol\":1286:1932  {... */\n      pop\n      pop\n        /* \"contracts/ManageLoan.sol\":1101:1932  function createNewLoan(address borrower, address lender, address collateralcontract, uint256 collateralAmount, string memory loanCurrency, uint256 loanAmount) external payable onlyOwner{... */\n      pop\n      pop\n      pop\n      pop\n      pop\n      pop\n      jump\t// out\n        /* \"@openzeppelin/contracts/access/Ownable.sol\":1638:1723  function owner() public view virtual returns (address) {... */\n    tag_24:\n        /* \"@openzeppelin/contracts/access/Ownable.sol\":1684:1691  address */\n      0x00\n        /* \"@openzeppelin/contracts/access/Ownable.sol\":1710:1716  _owner */\n      dup1\n      0x00\n      swap1\n      sload\n      swap1\n      0x0100\n      exp\n      swap1\n      div\n      0xffffffffffffffffffffffffffffffffffffffff\n      and\n        /* \"@openzeppelin/contracts/access/Ownable.sol\":1703:1716  return _owner */\n      swap1\n      pop\n        /* \"@openzeppelin/contracts/access/Ownable.sol\":1638:1723  function owner() public view virtual returns (address) {... */\n      swap1\n      jump\t// out\n        /* \"contracts/ManageLoan.sol\":2755:2848  function getAllLoans() external view returns ( Loan[] memory) {... */\n    tag_29:\n        /* \"contracts/ManageLoan.sol\":2802:2815  Loan[] memory */\n      0x60\n        /* \"contracts/ManageLoan.sol\":2835:2840  loans */\n      0x02\n        /* \"contracts/ManageLoan.sol\":2828:2840  return loans */\n      dup1\n      sload\n      dup1\n      0x20\n      mul\n      0x20\n      add\n      mload(0x40)\n      swap1\n      dup2\n      add\n      0x40\n      mstore\n      dup1\n      swap3\n      swap2\n      swap1\n      dup2\n      dup2\n      mstore\n      0x20\n      add\n      0x00\n      swap1\n    tag_92:\n      dup3\n      dup3\n      lt\n      iszero\n      tag_93\n      jumpi\n      dup4\n      dup3\n      swap1\n      0x00\n      mstore\n      keccak256(0x00, 0x20)\n      swap1\n      0x08\n      mul\n      add\n      mload(0x40)\n      dup1\n      0x0100\n      add\n      0x40\n      mstore\n      swap1\n      dup2\n      0x00\n      dup3\n      add\n      sload\n      dup2\n      mstore\n      0x20\n      add\n      0x01\n      dup3\n      add\n      0x00\n      swap1\n      sload\n      swap1\n      0x0100\n      exp\n      swap1\n      div\n      0xffffffffffffffffffffffffffffffffffffffff\n      and\n      0xffffffffffffffffffffffffffffffffffffffff\n      and\n      0xffffffffffffffffffffffffffffffffffffffff\n      and\n      dup2\n      mstore\n      0x20\n      add\n      0x02\n      dup3\n      add\n      0x00\n      swap1\n      sload\n      swap1\n      0x0100\n      exp\n      swap1\n      div\n      0xffffffffffffffffffffffffffffffffffffffff\n      and\n      0xffffffffffffffffffffffffffffffffffffffff\n      and\n      0xffffffffffffffffffffffffffffffffffffffff\n      and\n      dup2\n      mstore\n      0x20\n      add\n      0x03\n      dup3\n      add\n      0x00\n      swap1\n      sload\n      swap1\n      0x0100\n      exp\n      swap1\n      div\n      0xffffffffffffffffffffffffffffffffffffffff\n      and\n      0xffffffffffffffffffffffffffffffffffffffff\n      and\n      0xffffffffffffffffffffffffffffffffffffffff\n      and\n      dup2\n      mstore\n      0x20\n      add\n      0x04\n      dup3\n      add\n      sload\n      dup2\n      mstore\n      0x20\n      add\n      0x05\n      dup3\n      add\n      dup1\n      sload\n      tag_95\n      swap1\n      tag_96\n      jump\t// in\n    tag_95:\n      dup1\n      0x1f\n      add\n      0x20\n      dup1\n      swap2\n      div\n      mul\n      0x20\n      add\n      mload(0x40)\n      swap1\n      dup2\n      add\n      0x40\n      mstore\n      dup1\n      swap3\n      swap2\n      swap1\n      dup2\n      dup2\n      mstore\n      0x20\n      add\n      dup3\n      dup1\n      sload\n      tag_97\n      swap1\n      tag_96\n      jump\t// in\n    tag_97:\n      dup1\n      iszero\n      tag_98\n      jumpi\n      dup1\n      0x1f\n      lt\n      tag_99\n      jumpi\n      0x0100\n      dup1\n      dup4\n      sload\n      div\n      mul\n      dup4\n      mstore\n      swap2\n      0x20\n      add\n      swap2\n      jump(tag_98)\n    tag_99:\n      dup3\n      add\n      swap2\n      swap1\n      0x00\n      mstore\n      keccak256(0x00, 0x20)\n      swap1\n    tag_100:\n      dup2\n      sload\n      dup2\n      mstore\n      swap1\n      0x01\n      add\n      swap1\n      0x20\n      add\n      dup1\n      dup4\n      gt\n      tag_100\n      jumpi\n      dup3\n      swap1\n      sub\n      0x1f\n      and\n      dup3\n      add\n      swap2\n    tag_98:\n      pop\n      pop\n      pop\n      pop\n      pop\n      dup2\n      mstore\n      0x20\n      add\n      0x06\n      dup3\n      add\n      sload\n      dup2\n      mstore\n      0x20\n      add\n      0x07\n      dup3\n      add\n      0x00\n      swap1\n      sload\n      swap1\n      0x0100\n      exp\n      swap1\n      div\n      0xff\n      and\n      iszero\n      iszero\n      iszero\n      iszero\n      dup2\n      mstore\n      pop\n      pop\n      dup2\n      mstore\n      0x20\n      add\n      swap1\n      0x01\n      add\n      swap1\n      jump(tag_92)\n    tag_93:\n      pop\n      pop\n      pop\n      pop\n      swap1\n      pop\n        /* \"contracts/ManageLoan.sol\":2755:2848  function getAllLoans() external view returns ( Loan[] memory) {... */\n      swap1\n      jump\t// out\n        /* \"contracts/ManageLoan.sol\":762:781  Loan[] public loans */\n    tag_35:\n      0x02\n      dup2\n      dup2\n      sload\n      dup2\n      lt\n      tag_101\n      jumpi\n      0x00\n      dup1\n      revert\n    tag_101:\n      swap1\n      0x00\n      mstore\n      keccak256(0x00, 0x20)\n      swap1\n      0x08\n      mul\n      add\n      0x00\n      swap2\n      pop\n      swap1\n      pop\n      dup1\n      0x00\n      add\n      sload\n      swap1\n      dup1\n      0x01\n      add\n      0x00\n      swap1\n      sload\n      swap1\n      0x0100\n      exp\n      swap1\n      div\n      0xffffffffffffffffffffffffffffffffffffffff\n      and\n      swap1\n      dup1\n      0x02\n      add\n      0x00\n      swap1\n      sload\n      swap1\n      0x0100\n      exp\n      swap1\n      div\n      0xffffffffffffffffffffffffffffffffffffffff\n      and\n      swap1\n      dup1\n      0x03\n      add\n      0x00\n      swap1\n      sload\n      swap1\n      0x0100\n      exp\n      swap1\n      div\n      0xffffffffffffffffffffffffffffffffffffffff\n      and\n      swap1\n      dup1\n      0x04\n      add\n      sload\n      swap1\n      dup1\n      0x05\n      add\n      dup1\n      sload\n      tag_103\n      swap1\n      tag_96\n      jump\t// in\n    tag_103:\n      dup1\n      0x1f\n      add\n      0x20\n      dup1\n      swap2\n      div\n      mul\n      0x20\n      add\n      mload(0x40)\n      swap1\n      dup2\n      add\n      0x40\n      mstore\n      dup1\n      swap3\n      swap2\n      swap1\n      dup2\n      dup2\n      mstore\n      0x20\n      add\n      dup3\n      dup1\n      sload\n      tag_104\n      swap1\n      tag_96\n      jump\t// in\n    tag_104:\n      dup1\n      iszero\n      tag_105\n      jumpi\n      dup1\n      0x1f\n      lt\n      tag_106\n      jumpi\n      0x0100\n      dup1\n      dup4\n      sload\n      div\n      mul\n      dup4\n      mstore\n      swap2\n      0x20\n      add\n      swap2\n      jump(tag_105)\n    tag_106:\n      dup3\n      add\n      swap2\n      swap1\n      0x00\n      mstore\n      keccak256(0x00, 0x20)\n      swap1\n    tag_107:\n      dup2\n      sload\n      dup2\n      mstore\n      swap1\n      0x01\n      add\n      swap1\n      0x20\n      add\n      dup1\n      dup4\n      gt\n      tag_107\n      jumpi\n      dup3\n      swap1\n      sub\n      0x1f\n      and\n      dup3\n      add\n      swap2\n    tag_105:\n      pop\n      pop\n      pop\n      pop\n      pop\n      swap1\n      dup1\n      0x06\n      add\n      sload\n      swap1\n      dup1\n      0x07\n      add\n      0x00\n      swap1\n      sload\n      swap1\n      0x0100\n      exp\n      swap1\n      div\n      0xff\n      and\n      swap1\n      pop\n      dup9\n      jump\t// out\n        /* \"@openzeppelin/contracts/access/Ownable.sol\":2543:2758  function transferOwnership(address newOwner) public virtual onlyOwner {... */\n    tag_42:\n        /* \"@openzeppelin/contracts/access/Ownable.sol\":1531:1544  _checkOwner() */\n      tag_109\n        /* \"@openzeppelin/contracts/access/Ownable.sol\":1531:1542  _checkOwner */\n      tag_45\n        /* \"@openzeppelin/contracts/access/Ownable.sol\":1531:1544  _checkOwner() */\n      jump\t// in\n    tag_109:\n        /* \"@openzeppelin/contracts/access/Ownable.sol\":2647:2648  0 */\n      0x00\n        /* \"@openzeppelin/contracts/access/Ownable.sol\":2627:2649  newOwner == address(0) */\n      0xffffffffffffffffffffffffffffffffffffffff\n      and\n        /* \"@openzeppelin/contracts/access/Ownable.sol\":2627:2635  newOwner */\n      dup2\n        /* \"@openzeppelin/contracts/access/Ownable.sol\":2627:2649  newOwner == address(0) */\n      0xffffffffffffffffffffffffffffffffffffffff\n      and\n      sub\n        /* \"@openzeppelin/contracts/access/Ownable.sol\":2623:2714  if (newOwner == address(0)) {... */\n      tag_111\n      jumpi\n        /* \"@openzeppelin/contracts/access/Ownable.sol\":2700:2701  0 */\n      0x00\n        /* \"@openzeppelin/contracts/access/Ownable.sol\":2672:2703  OwnableInvalidOwner(address(0)) */\n      mload(0x40)\n      0x1e4fbdf700000000000000000000000000000000000000000000000000000000\n      dup2\n      mstore\n      0x04\n      add\n      tag_112\n      swap2\n      swap1\n      tag_26\n      jump\t// in\n    tag_112:\n      mload(0x40)\n      dup1\n      swap2\n      sub\n      swap1\n      revert\n        /* \"@openzeppelin/contracts/access/Ownable.sol\":2623:2714  if (newOwner == address(0)) {... */\n    tag_111:\n        /* \"@openzeppelin/contracts/access/Ownable.sol\":2723:2751  _transferOwnership(newOwner) */\n      tag_113\n        /* \"@openzeppelin/contracts/access/Ownable.sol\":2742:2750  newOwner */\n      dup2\n        /* \"@openzeppelin/contracts/access/Ownable.sol\":2723:2741  _transferOwnership */\n      tag_48\n        /* \"@openzeppelin/contracts/access/Ownable.sol\":2723:2751  _transferOwnership(newOwner) */\n      jump\t// in\n    tag_113:\n        /* \"@openzeppelin/contracts/access/Ownable.sol\":2543:2758  function transferOwnership(address newOwner) public virtual onlyOwner {... */\n      pop\n      jump\t// out\n        /* \"@openzeppelin/contracts/access/Ownable.sol\":1796:1958  function _checkOwner() internal view virtual {... */\n    tag_45:\n        /* \"@openzeppelin/contracts/access/Ownable.sol\":1866:1878  _msgSender() */\n      tag_115\n        /* \"@openzeppelin/contracts/access/Ownable.sol\":1866:1876  _msgSender */\n      tag_116\n        /* \"@openzeppelin/contracts/access/Ownable.sol\":1866:1878  _msgSender() */\n      jump\t// in\n    tag_115:\n        /* \"@openzeppelin/contracts/access/Ownable.sol\":1855:1878  owner() != _msgSender() */\n      0xffffffffffffffffffffffffffffffffffffffff\n      and\n        /* \"@openzeppelin/contracts/access/Ownable.sol\":1855:1862  owner() */\n      tag_117\n        /* \"@openzeppelin/contracts/access/Ownable.sol\":1855:1860  owner */\n      tag_24\n        /* \"@openzeppelin/contracts/access/Ownable.sol\":1855:1862  owner() */\n      jump\t// in\n    tag_117:\n        /* \"@openzeppelin/contracts/access/Ownable.sol\":1855:1878  owner() != _msgSender() */\n      0xffffffffffffffffffffffffffffffffffffffff\n      and\n      eq\n        /* \"@openzeppelin/contracts/access/Ownable.sol\":1851:1952  if (owner() != _msgSender()) {... */\n      tag_118\n      jumpi\n        /* \"@openzeppelin/contracts/access/Ownable.sol\":1928:1940  _msgSender() */\n      tag_119\n        /* \"@openzeppelin/contracts/access/Ownable.sol\":1928:1938  _msgSender */\n      tag_116\n        /* \"@openzeppelin/contracts/access/Ownable.sol\":1928:1940  _msgSender() */\n      jump\t// in\n    tag_119:\n        /* \"@openzeppelin/contracts/access/Ownable.sol\":1901:1941  OwnableUnauthorizedAccount(_msgSender()) */\n      mload(0x40)\n      0x118cdaa700000000000000000000000000000000000000000000000000000000\n      dup2\n      mstore\n      0x04\n      add\n      tag_120\n      swap2\n      swap1\n      tag_26\n      jump\t// in\n    tag_120:\n      mload(0x40)\n      dup1\n      swap2\n      sub\n      swap1\n      revert\n        /* \"@openzeppelin/contracts/access/Ownable.sol\":1851:1952  if (owner() != _msgSender()) {... */\n    tag_118:\n        /* \"@openzeppelin/contracts/access/Ownable.sol\":1796:1958  function _checkOwner() internal view virtual {... */\n      jump\t// out\n        /* \"@openzeppelin/contracts/access/Ownable.sol\":2912:3099  function _transferOwnership(address newOwner) internal virtual {... */\n    tag_48:\n        /* \"@openzeppelin/contracts/access/Ownable.sol\":2985:3001  address oldOwner */\n      0x00\n        /* \"@openzeppelin/contracts/access/Ownable.sol\":3004:3010  _owner */\n      dup1\n      0x00\n      swap1\n      sload\n      swap1\n      0x0100\n      exp\n      swap1\n      div\n      0xffffffffffffffffffffffffffffffffffffffff\n      and\n        /* \"@openzeppelin/contracts/access/Ownable.sol\":2985:3010  address oldOwner = _owner */\n      swap1\n      pop\n        /* \"@openzeppelin/contracts/access/Ownable.sol\":3029:3037  newOwner */\n      dup2\n        /* \"@openzeppelin/contracts/access/Ownable.sol\":3020:3026  _owner */\n      0x00\n      dup1\n        /* \"@openzeppelin/contracts/access/Ownable.sol\":3020:3037  _owner = newOwner */\n      0x0100\n      exp\n      dup2\n      sload\n      dup2\n      0xffffffffffffffffffffffffffffffffffffffff\n      mul\n      not\n      and\n      swap1\n      dup4\n      0xffffffffffffffffffffffffffffffffffffffff\n      and\n      mul\n      or\n      swap1\n      sstore\n      pop\n        /* \"@openzeppelin/contracts/access/Ownable.sol\":3083:3091  newOwner */\n      dup2\n        /* \"@openzeppelin/contracts/access/Ownable.sol\":3052:3092  OwnershipTransferred(oldOwner, newOwner) */\n      0xffffffffffffffffffffffffffffffffffffffff\n      and\n        /* \"@openzeppelin/contracts/access/Ownable.sol\":3073:3081  oldOwner */\n      dup2\n        /* \"@openzeppelin/contracts/access/Ownable.sol\":3052:3092  OwnershipTransferred(oldOwner, newOwner) */\n      0xffffffffffffffffffffffffffffffffffffffff\n      and\n      0x8be0079c531659141344cd1fd0a4f28419497f9722a3daafe3b4186f6b6457e0\n      mload(0x40)\n      mload(0x40)\n      dup1\n      swap2\n      sub\n      swap1\n      log3\n        /* \"@openzeppelin/contracts/access/Ownable.sol\":2975:3099  {... */\n      pop\n        /* \"@openzeppelin/contracts/access/Ownable.sol\":2912:3099  function _transferOwnership(address newOwner) internal virtual {... */\n      pop\n      jump\t// out\n        /* \"@openzeppelin/contracts/utils/Counters.sol\":945:1068  function increment(Counter storage counter) internal {... */\n    tag_80:\n        /* \"@openzeppelin/contracts/utils/Counters.sol\":1050:1051  1 */\n      0x01\n        /* \"@openzeppelin/contracts/utils/Counters.sol\":1032:1039  counter */\n      dup2\n        /* \"@openzeppelin/contracts/utils/Counters.sol\":1032:1046  counter._value */\n      0x00\n      add\n      0x00\n        /* \"@openzeppelin/contracts/utils/Counters.sol\":1032:1051  counter._value += 1 */\n      dup3\n      dup3\n      sload\n      add\n      swap3\n      pop\n      pop\n      dup2\n      swap1\n      sstore\n      pop\n        /* \"@openzeppelin/contracts/utils/Counters.sol\":945:1068  function increment(Counter storage counter) internal {... */\n      pop\n      jump\t// out\n        /* \"@openzeppelin/contracts/utils/Counters.sol\":827:939  function current(Counter storage counter) internal view returns (uint256) {... */\n    tag_82:\n        /* \"@openzeppelin/contracts/utils/Counters.sol\":892:899  uint256 */\n      0x00\n        /* \"@openzeppelin/contracts/utils/Counters.sol\":918:925  counter */\n      dup2\n        /* \"@openzeppelin/contracts/utils/Counters.sol\":918:932  counter._value */\n      0x00\n      add\n      sload\n        /* \"@openzeppelin/contracts/utils/Counters.sol\":911:932  return counter._value */\n      swap1\n      pop\n        /* \"@openzeppelin/contracts/utils/Counters.sol\":827:939  function current(Counter storage counter) internal view returns (uint256) {... */\n      swap2\n      swap1\n      pop\n      jump\t// out\n        /* \"@openzeppelin/contracts/utils/Context.sol\":656:752  function _msgSender() internal view virtual returns (address) {... */\n    tag_116:\n        /* \"@openzeppelin/contracts/utils/Context.sol\":709:716  address */\n      0x00\n        /* \"@openzeppelin/contracts/utils/Context.sol\":735:745  msg.sender */\n      caller\n        /* \"@openzeppelin/contracts/utils/Context.sol\":728:745  return msg.sender */\n      swap1\n      pop\n        /* \"@openzeppelin/contracts/utils/Context.sol\":656:752  function _msgSender() internal view virtual returns (address) {... */\n      swap1\n      jump\t// out\n    tag_84:\n      mload(0x40)\n      dup1\n      0x0100\n      add\n      0x40\n      mstore\n      dup1\n      0x00\n      dup2\n      mstore\n      0x20\n      add\n      and(0xffffffffffffffffffffffffffffffffffffffff, 0x00)\n      dup2\n      mstore\n      0x20\n      add\n      and(0xffffffffffffffffffffffffffffffffffffffff, 0x00)\n      dup2\n      mstore\n      0x20\n      add\n      and(0xffffffffffffffffffffffffffffffffffffffff, 0x00)\n      dup2\n      mstore\n      0x20\n      add\n      0x00\n      dup2\n      mstore\n      0x20\n      add\n      0x60\n      dup2\n      mstore\n      0x20\n      add\n      0x00\n      dup2\n      mstore\n      0x20\n      add\n      iszero(iszero(0x00))\n      dup2\n      mstore\n      pop\n      swap1\n      jump\t// out\n        /* \"#utility.yul\":7:82   */\n    tag_125:\n        /* \"#utility.yul\":40:46   */\n      0x00\n        /* \"#utility.yul\":73:75   */\n      0x40\n        /* \"#utility.yul\":67:76   */\n      mload\n        /* \"#utility.yul\":57:76   */\n      swap1\n      pop\n        /* \"#utility.yul\":7:82   */\n      swap1\n      jump\t// out\n        /* \"#utility.yul\":88:205   */\n    tag_126:\n        /* \"#utility.yul\":197:198   */\n      0x00\n        /* \"#utility.yul\":194:195   */\n      dup1\n        /* \"#utility.yul\":187:199   */\n      revert\n        /* \"#utility.yul\":211:328   */\n    tag_127:\n        /* \"#utility.yul\":320:321   */\n      0x00\n        /* \"#utility.yul\":317:318   */\n      dup1\n        /* \"#utility.yul\":310:322   */\n      revert\n        /* \"#utility.yul\":334:411   */\n    tag_128:\n        /* \"#utility.yul\":371:378   */\n      0x00\n        /* \"#utility.yul\":400:405   */\n      dup2\n        /* \"#utility.yul\":389:405   */\n      swap1\n      pop\n        /* \"#utility.yul\":334:411   */\n      swap2\n      swap1\n      pop\n      jump\t// out\n        /* \"#utility.yul\":417:539   */\n    tag_129:\n        /* \"#utility.yul\":490:514   */\n      tag_196\n        /* \"#utility.yul\":508:513   */\n      dup2\n        /* \"#utility.yul\":490:514   */\n      tag_128\n      jump\t// in\n    tag_196:\n        /* \"#utility.yul\":483:488   */\n      dup2\n        /* \"#utility.yul\":480:515   */\n      eq\n        /* \"#utility.yul\":470:533   */\n      tag_197\n      jumpi\n        /* \"#utility.yul\":529:530   */\n      0x00\n        /* \"#utility.yul\":526:527   */\n      dup1\n        /* \"#utility.yul\":519:531   */\n      revert\n        /* \"#utility.yul\":470:533   */\n    tag_197:\n        /* \"#utility.yul\":417:539   */\n      pop\n      jump\t// out\n        /* \"#utility.yul\":545:684   */\n    tag_130:\n        /* \"#utility.yul\":591:596   */\n      0x00\n        /* \"#utility.yul\":629:635   */\n      dup2\n        /* \"#utility.yul\":616:636   */\n      calldataload\n        /* \"#utility.yul\":607:636   */\n      swap1\n      pop\n        /* \"#utility.yul\":645:678   */\n      tag_199\n        /* \"#utility.yul\":672:677   */\n      dup2\n        /* \"#utility.yul\":645:678   */\n      tag_129\n      jump\t// in\n    tag_199:\n        /* \"#utility.yul\":545:684   */\n      swap3\n      swap2\n      pop\n      pop\n      jump\t// out\n        /* \"#utility.yul\":690:1019   */\n    tag_16:\n        /* \"#utility.yul\":749:755   */\n      0x00\n        /* \"#utility.yul\":798:800   */\n      0x20\n        /* \"#utility.yul\":786:795   */\n      dup3\n        /* \"#utility.yul\":777:784   */\n      dup5\n        /* \"#utility.yul\":773:796   */\n      sub\n        /* \"#utility.yul\":769:801   */\n      slt\n        /* \"#utility.yul\":766:885   */\n      iszero\n      tag_201\n      jumpi\n        /* \"#utility.yul\":804:883   */\n      tag_202\n      tag_126\n      jump\t// in\n    tag_202:\n        /* \"#utility.yul\":766:885   */\n    tag_201:\n        /* \"#utility.yul\":924:925   */\n      0x00\n        /* \"#utility.yul\":949:1002   */\n      tag_203\n        /* \"#utility.yul\":994:1001   */\n      dup5\n        /* \"#utility.yul\":985:991   */\n      dup3\n        /* \"#utility.yul\":974:983   */\n      dup6\n        /* \"#utility.yul\":970:992   */\n      add\n        /* \"#utility.yul\":949:1002   */\n      tag_130\n      jump\t// in\n    tag_203:\n        /* \"#utility.yul\":939:1002   */\n      swap2\n      pop\n        /* \"#utility.yul\":895:1012   */\n      pop\n        /* \"#utility.yul\":690:1019   */\n      swap3\n      swap2\n      pop\n      pop\n      jump\t// out\n        /* \"#utility.yul\":1025:1151   */\n    tag_131:\n        /* \"#utility.yul\":1062:1069   */\n      0x00\n        /* \"#utility.yul\":1102:1144   */\n      0xffffffffffffffffffffffffffffffffffffffff\n        /* \"#utility.yul\":1095:1100   */\n      dup3\n        /* \"#utility.yul\":1091:1145   */\n      and\n        /* \"#utility.yul\":1080:1145   */\n      swap1\n      pop\n        /* \"#utility.yul\":1025:1151   */\n      swap2\n      swap1\n      pop\n      jump\t// out\n        /* \"#utility.yul\":1157:1253   */\n    tag_132:\n        /* \"#utility.yul\":1194:1201   */\n      0x00\n        /* \"#utility.yul\":1223:1247   */\n      tag_206\n        /* \"#utility.yul\":1241:1246   */\n      dup3\n        /* \"#utility.yul\":1223:1247   */\n      tag_131\n      jump\t// in\n    tag_206:\n        /* \"#utility.yul\":1212:1247   */\n      swap1\n      pop\n        /* \"#utility.yul\":1157:1253   */\n      swap2\n      swap1\n      pop\n      jump\t// out\n        /* \"#utility.yul\":1259:1381   */\n    tag_133:\n        /* \"#utility.yul\":1332:1356   */\n      tag_208\n        /* \"#utility.yul\":1350:1355   */\n      dup2\n        /* \"#utility.yul\":1332:1356   */\n      tag_132\n      jump\t// in\n    tag_208:\n        /* \"#utility.yul\":1325:1330   */\n      dup2\n        /* \"#utility.yul\":1322:1357   */\n      eq\n        /* \"#utility.yul\":1312:1375   */\n      tag_209\n      jumpi\n        /* \"#utility.yul\":1371:1372   */\n      0x00\n        /* \"#utility.yul\":1368:1369   */\n      dup1\n        /* \"#utility.yul\":1361:1373   */\n      revert\n        /* \"#utility.yul\":1312:1375   */\n    tag_209:\n        /* \"#utility.yul\":1259:1381   */\n      pop\n      jump\t// out\n        /* \"#utility.yul\":1387:1526   */\n    tag_134:\n        /* \"#utility.yul\":1433:1438   */\n      0x00\n        /* \"#utility.yul\":1471:1477   */\n      dup2\n        /* \"#utility.yul\":1458:1478   */\n      calldataload\n        /* \"#utility.yul\":1449:1478   */\n      swap1\n      pop\n        /* \"#utility.yul\":1487:1520   */\n      tag_211\n        /* \"#utility.yul\":1514:1519   */\n      dup2\n        /* \"#utility.yul\":1487:1520   */\n      tag_133\n      jump\t// in\n    tag_211:\n        /* \"#utility.yul\":1387:1526   */\n      swap3\n      swap2\n      pop\n      pop\n      jump\t// out\n        /* \"#utility.yul\":1532:1649   */\n    tag_135:\n        /* \"#utility.yul\":1641:1642   */\n      0x00\n        /* \"#utility.yul\":1638:1639   */\n      dup1\n        /* \"#utility.yul\":1631:1643   */\n      revert\n        /* \"#utility.yul\":1655:1772   */\n    tag_136:\n        /* \"#utility.yul\":1764:1765   */\n      0x00\n        /* \"#utility.yul\":1761:1762   */\n      dup1\n        /* \"#utility.yul\":1754:1766   */\n      revert\n        /* \"#utility.yul\":1778:1880   */\n    tag_137:\n        /* \"#utility.yul\":1819:1825   */\n      0x00\n        /* \"#utility.yul\":1870:1872   */\n      0x1f\n        /* \"#utility.yul\":1866:1873   */\n      not\n        /* \"#utility.yul\":1861:1863   */\n      0x1f\n        /* \"#utility.yul\":1854:1859   */\n      dup4\n        /* \"#utility.yul\":1850:1864   */\n      add\n        /* \"#utility.yul\":1846:1874   */\n      and\n        /* \"#utility.yul\":1836:1874   */\n      swap1\n      pop\n        /* \"#utility.yul\":1778:1880   */\n      swap2\n      swap1\n      pop\n      jump\t// out\n        /* \"#utility.yul\":1886:2066   */\n    tag_138:\n        /* \"#utility.yul\":1934:2011   */\n      0x4e487b7100000000000000000000000000000000000000000000000000000000\n        /* \"#utility.yul\":1931:1932   */\n      0x00\n        /* \"#utility.yul\":1924:2012   */\n      mstore\n        /* \"#utility.yul\":2031:2035   */\n      0x41\n        /* \"#utility.yul\":2028:2029   */\n      0x04\n        /* \"#utility.yul\":2021:2036   */\n      mstore\n        /* \"#utility.yul\":2055:2059   */\n      0x24\n        /* \"#utility.yul\":2052:2053   */\n      0x00\n        /* \"#utility.yul\":2045:2060   */\n      revert\n        /* \"#utility.yul\":2072:2353   */\n    tag_139:\n        /* \"#utility.yul\":2155:2182   */\n      tag_217\n        /* \"#utility.yul\":2177:2181   */\n      dup3\n        /* \"#utility.yul\":2155:2182   */\n      tag_137\n      jump\t// in\n    tag_217:\n        /* \"#utility.yul\":2147:2153   */\n      dup2\n        /* \"#utility.yul\":2143:2183   */\n      add\n        /* \"#utility.yul\":2285:2291   */\n      dup2\n        /* \"#utility.yul\":2273:2283   */\n      dup2\n        /* \"#utility.yul\":2270:2292   */\n      lt\n        /* \"#utility.yul\":2249:2267   */\n      0xffffffffffffffff\n        /* \"#utility.yul\":2237:2247   */\n      dup3\n        /* \"#utility.yul\":2234:2268   */\n      gt\n        /* \"#utility.yul\":2231:2293   */\n      or\n        /* \"#utility.yul\":2228:2316   */\n      iszero\n      tag_218\n      jumpi\n        /* \"#utility.yul\":2296:2314   */\n      tag_219\n      tag_138\n      jump\t// in\n    tag_219:\n        /* \"#utility.yul\":2228:2316   */\n    tag_218:\n        /* \"#utility.yul\":2336:2346   */\n      dup1\n        /* \"#utility.yul\":2332:2334   */\n      0x40\n        /* \"#utility.yul\":2325:2347   */\n      mstore\n        /* \"#utility.yul\":2115:2353   */\n      pop\n        /* \"#utility.yul\":2072:2353   */\n      pop\n      pop\n      jump\t// out\n        /* \"#utility.yul\":2359:2488   */\n    tag_140:\n        /* \"#utility.yul\":2393:2399   */\n      0x00\n        /* \"#utility.yul\":2420:2440   */\n      tag_221\n      tag_125\n      jump\t// in\n    tag_221:\n        /* \"#utility.yul\":2410:2440   */\n      swap1\n      pop\n        /* \"#utility.yul\":2449:2482   */\n      tag_222\n        /* \"#utility.yul\":2477:2481   */\n      dup3\n        /* \"#utility.yul\":2469:2475   */\n      dup3\n        /* \"#utility.yul\":2449:2482   */\n      tag_139\n      jump\t// in\n    tag_222:\n        /* \"#utility.yul\":2359:2488   */\n      swap2\n      swap1\n      pop\n      jump\t// out\n        /* \"#utility.yul\":2494:2802   */\n    tag_141:\n        /* \"#utility.yul\":2556:2560   */\n      0x00\n        /* \"#utility.yul\":2646:2664   */\n      0xffffffffffffffff\n        /* \"#utility.yul\":2638:2644   */\n      dup3\n        /* \"#utility.yul\":2635:2665   */\n      gt\n        /* \"#utility.yul\":2632:2688   */\n      iszero\n      tag_224\n      jumpi\n        /* \"#utility.yul\":2668:2686   */\n      tag_225\n      tag_138\n      jump\t// in\n    tag_225:\n        /* \"#utility.yul\":2632:2688   */\n    tag_224:\n        /* \"#utility.yul\":2706:2735   */\n      tag_226\n        /* \"#utility.yul\":2728:2734   */\n      dup3\n        /* \"#utility.yul\":2706:2735   */\n      tag_137\n      jump\t// in\n    tag_226:\n        /* \"#utility.yul\":2698:2735   */\n      swap1\n      pop\n        /* \"#utility.yul\":2790:2794   */\n      0x20\n        /* \"#utility.yul\":2784:2788   */\n      dup2\n        /* \"#utility.yul\":2780:2795   */\n      add\n        /* \"#utility.yul\":2772:2795   */\n      swap1\n      pop\n        /* \"#utility.yul\":2494:2802   */\n      swap2\n      swap1\n      pop\n      jump\t// out\n        /* \"#utility.yul\":2808:2956   */\n    tag_142:\n        /* \"#utility.yul\":2906:2912   */\n      dup3\n        /* \"#utility.yul\":2901:2904   */\n      dup2\n        /* \"#utility.yul\":2896:2899   */\n      dup4\n        /* \"#utility.yul\":2883:2913   */\n      calldatacopy\n        /* \"#utility.yul\":2947:2948   */\n      0x00\n        /* \"#utility.yul\":2938:2944   */\n      dup4\n        /* \"#utility.yul\":2933:2936   */\n      dup4\n        /* \"#utility.yul\":2929:2945   */\n      add\n        /* \"#utility.yul\":2922:2949   */\n      mstore\n        /* \"#utility.yul\":2808:2956   */\n      pop\n      pop\n      pop\n      jump\t// out\n        /* \"#utility.yul\":2962:3387   */\n    tag_143:\n        /* \"#utility.yul\":3040:3045   */\n      0x00\n        /* \"#utility.yul\":3065:3131   */\n      tag_229\n        /* \"#utility.yul\":3081:3130   */\n      tag_230\n        /* \"#utility.yul\":3123:3129   */\n      dup5\n        /* \"#utility.yul\":3081:3130   */\n      tag_141\n      jump\t// in\n    tag_230:\n        /* \"#utility.yul\":3065:3131   */\n      tag_140\n      jump\t// in\n    tag_229:\n        /* \"#utility.yul\":3056:3131   */\n      swap1\n      pop\n        /* \"#utility.yul\":3154:3160   */\n      dup3\n        /* \"#utility.yul\":3147:3152   */\n      dup2\n        /* \"#utility.yul\":3140:3161   */\n      mstore\n        /* \"#utility.yul\":3192:3196   */\n      0x20\n        /* \"#utility.yul\":3185:3190   */\n      dup2\n        /* \"#utility.yul\":3181:3197   */\n      add\n        /* \"#utility.yul\":3230:3233   */\n      dup5\n        /* \"#utility.yul\":3221:3227   */\n      dup5\n        /* \"#utility.yul\":3216:3219   */\n      dup5\n        /* \"#utility.yul\":3212:3228   */\n      add\n        /* \"#utility.yul\":3209:3234   */\n      gt\n        /* \"#utility.yul\":3206:3318   */\n      iszero\n      tag_231\n      jumpi\n        /* \"#utility.yul\":3237:3316   */\n      tag_232\n      tag_136\n      jump\t// in\n    tag_232:\n        /* \"#utility.yul\":3206:3318   */\n    tag_231:\n        /* \"#utility.yul\":3327:3381   */\n      tag_233\n        /* \"#utility.yul\":3374:3380   */\n      dup5\n        /* \"#utility.yul\":3369:3372   */\n      dup3\n        /* \"#utility.yul\":3364:3367   */\n      dup6\n        /* \"#utility.yul\":3327:3381   */\n      tag_142\n      jump\t// in\n    tag_233:\n        /* \"#utility.yul\":3046:3387   */\n      pop\n        /* \"#utility.yul\":2962:3387   */\n      swap4\n      swap3\n      pop\n      pop\n      pop\n      jump\t// out\n        /* \"#utility.yul\":3407:3747   */\n    tag_144:\n        /* \"#utility.yul\":3463:3468   */\n      0x00\n        /* \"#utility.yul\":3512:3515   */\n      dup3\n        /* \"#utility.yul\":3505:3509   */\n      0x1f\n        /* \"#utility.yul\":3497:3503   */\n      dup4\n        /* \"#utility.yul\":3493:3510   */\n      add\n        /* \"#utility.yul\":3489:3516   */\n      slt\n        /* \"#utility.yul\":3479:3601   */\n      tag_235\n      jumpi\n        /* \"#utility.yul\":3520:3599   */\n      tag_236\n      tag_135\n      jump\t// in\n    tag_236:\n        /* \"#utility.yul\":3479:3601   */\n    tag_235:\n        /* \"#utility.yul\":3637:3643   */\n      dup2\n        /* \"#utility.yul\":3624:3644   */\n      calldataload\n        /* \"#utility.yul\":3662:3741   */\n      tag_237\n        /* \"#utility.yul\":3737:3740   */\n      dup5\n        /* \"#utility.yul\":3729:3735   */\n      dup3\n        /* \"#utility.yul\":3722:3726   */\n      0x20\n        /* \"#utility.yul\":3714:3720   */\n      dup7\n        /* \"#utility.yul\":3710:3727   */\n      add\n        /* \"#utility.yul\":3662:3741   */\n      tag_143\n      jump\t// in\n    tag_237:\n        /* \"#utility.yul\":3653:3741   */\n      swap2\n      pop\n        /* \"#utility.yul\":3469:3747   */\n      pop\n        /* \"#utility.yul\":3407:3747   */\n      swap3\n      swap2\n      pop\n      pop\n      jump\t// out\n        /* \"#utility.yul\":3753:4990   */\n    tag_20:\n        /* \"#utility.yul\":3867:3873   */\n      0x00\n        /* \"#utility.yul\":3875:3881   */\n      dup1\n        /* \"#utility.yul\":3883:3889   */\n      0x00\n        /* \"#utility.yul\":3891:3897   */\n      dup1\n        /* \"#utility.yul\":3899:3905   */\n      0x00\n        /* \"#utility.yul\":3907:3913   */\n      dup1\n        /* \"#utility.yul\":3956:3959   */\n      0xc0\n        /* \"#utility.yul\":3944:3953   */\n      dup8\n        /* \"#utility.yul\":3935:3942   */\n      dup10\n        /* \"#utility.yul\":3931:3954   */\n      sub\n        /* \"#utility.yul\":3927:3960   */\n      slt\n        /* \"#utility.yul\":3924:4044   */\n      iszero\n      tag_239\n      jumpi\n        /* \"#utility.yul\":3963:4042   */\n      tag_240\n      tag_126\n      jump\t// in\n    tag_240:\n        /* \"#utility.yul\":3924:4044   */\n    tag_239:\n        /* \"#utility.yul\":4083:4084   */\n      0x00\n        /* \"#utility.yul\":4108:4161   */\n      tag_241\n        /* \"#utility.yul\":4153:4160   */\n      dup10\n        /* \"#utility.yul\":4144:4150   */\n      dup3\n        /* \"#utility.yul\":4133:4142   */\n      dup11\n        /* \"#utility.yul\":4129:4151   */\n      add\n        /* \"#utility.yul\":4108:4161   */\n      tag_134\n      jump\t// in\n    tag_241:\n        /* \"#utility.yul\":4098:4161   */\n      swap7\n      pop\n        /* \"#utility.yul\":4054:4171   */\n      pop\n        /* \"#utility.yul\":4210:4212   */\n      0x20\n        /* \"#utility.yul\":4236:4289   */\n      tag_242\n        /* \"#utility.yul\":4281:4288   */\n      dup10\n        /* \"#utility.yul\":4272:4278   */\n      dup3\n        /* \"#utility.yul\":4261:4270   */\n      dup11\n        /* \"#utility.yul\":4257:4279   */\n      add\n        /* \"#utility.yul\":4236:4289   */\n      tag_134\n      jump\t// in\n    tag_242:\n        /* \"#utility.yul\":4226:4289   */\n      swap6\n      pop\n        /* \"#utility.yul\":4181:4299   */\n      pop\n        /* \"#utility.yul\":4338:4340   */\n      0x40\n        /* \"#utility.yul\":4364:4417   */\n      tag_243\n        /* \"#utility.yul\":4409:4416   */\n      dup10\n        /* \"#utility.yul\":4400:4406   */\n      dup3\n        /* \"#utility.yul\":4389:4398   */\n      dup11\n        /* \"#utility.yul\":4385:4407   */\n      add\n        /* \"#utility.yul\":4364:4417   */\n      tag_134\n      jump\t// in\n    tag_243:\n        /* \"#utility.yul\":4354:4417   */\n      swap5\n      pop\n        /* \"#utility.yul\":4309:4427   */\n      pop\n        /* \"#utility.yul\":4466:4468   */\n      0x60\n        /* \"#utility.yul\":4492:4545   */\n      tag_244\n        /* \"#utility.yul\":4537:4544   */\n      dup10\n        /* \"#utility.yul\":4528:4534   */\n      dup3\n        /* \"#utility.yul\":4517:4526   */\n      dup11\n        /* \"#utility.yul\":4513:4535   */\n      add\n        /* \"#utility.yul\":4492:4545   */\n      tag_130\n      jump\t// in\n    tag_244:\n        /* \"#utility.yul\":4482:4545   */\n      swap4\n      pop\n        /* \"#utility.yul\":4437:4555   */\n      pop\n        /* \"#utility.yul\":4622:4625   */\n      0x80\n        /* \"#utility.yul\":4611:4620   */\n      dup8\n        /* \"#utility.yul\":4607:4626   */\n      add\n        /* \"#utility.yul\":4594:4627   */\n      calldataload\n        /* \"#utility.yul\":4654:4672   */\n      0xffffffffffffffff\n        /* \"#utility.yul\":4646:4652   */\n      dup2\n        /* \"#utility.yul\":4643:4673   */\n      gt\n        /* \"#utility.yul\":4640:4757   */\n      iszero\n      tag_245\n      jumpi\n        /* \"#utility.yul\":4676:4755   */\n      tag_246\n      tag_127\n      jump\t// in\n    tag_246:\n        /* \"#utility.yul\":4640:4757   */\n    tag_245:\n        /* \"#utility.yul\":4781:4844   */\n      tag_247\n        /* \"#utility.yul\":4836:4843   */\n      dup10\n        /* \"#utility.yul\":4827:4833   */\n      dup3\n        /* \"#utility.yul\":4816:4825   */\n      dup11\n        /* \"#utility.yul\":4812:4834   */\n      add\n        /* \"#utility.yul\":4781:4844   */\n      tag_144\n      jump\t// in\n    tag_247:\n        /* \"#utility.yul\":4771:4844   */\n      swap3\n      pop\n        /* \"#utility.yul\":4565:4854   */\n      pop\n        /* \"#utility.yul\":4893:4896   */\n      0xa0\n        /* \"#utility.yul\":4920:4973   */\n      tag_248\n        /* \"#utility.yul\":4965:4972   */\n      dup10\n        /* \"#utility.yul\":4956:4962   */\n      dup3\n        /* \"#utility.yul\":4945:4954   */\n      dup11\n        /* \"#utility.yul\":4941:4963   */\n      add\n        /* \"#utility.yul\":4920:4973   */\n      tag_130\n      jump\t// in\n    tag_248:\n        /* \"#utility.yul\":4910:4973   */\n      swap2\n      pop\n        /* \"#utility.yul\":4864:4983   */\n      pop\n        /* \"#utility.yul\":3753:4990   */\n      swap3\n      swap6\n      pop\n      swap3\n      swap6\n      pop\n      swap3\n      swap6\n      jump\t// out\n        /* \"#utility.yul\":4996:5114   */\n    tag_145:\n        /* \"#utility.yul\":5083:5107   */\n      tag_250\n        /* \"#utility.yul\":5101:5106   */\n      dup2\n        /* \"#utility.yul\":5083:5107   */\n      tag_132\n      jump\t// in\n    tag_250:\n        /* \"#utility.yul\":5078:5081   */\n      dup3\n        /* \"#utility.yul\":5071:5108   */\n      mstore\n        /* \"#utility.yul\":4996:5114   */\n      pop\n      pop\n      jump\t// out\n        /* \"#utility.yul\":5120:5342   */\n    tag_26:\n        /* \"#utility.yul\":5213:5217   */\n      0x00\n        /* \"#utility.yul\":5251:5253   */\n      0x20\n        /* \"#utility.yul\":5240:5249   */\n      dup3\n        /* \"#utility.yul\":5236:5254   */\n      add\n        /* \"#utility.yul\":5228:5254   */\n      swap1\n      pop\n        /* \"#utility.yul\":5264:5335   */\n      tag_252\n        /* \"#utility.yul\":5332:5333   */\n      0x00\n        /* \"#utility.yul\":5321:5330   */\n      dup4\n        /* \"#utility.yul\":5317:5334   */\n      add\n        /* \"#utility.yul\":5308:5314   */\n      dup5\n        /* \"#utility.yul\":5264:5335   */\n      tag_145\n      jump\t// in\n    tag_252:\n        /* \"#utility.yul\":5120:5342   */\n      swap3\n      swap2\n      pop\n      pop\n      jump\t// out\n        /* \"#utility.yul\":5348:5483   */\n    tag_146:\n        /* \"#utility.yul\":5436:5442   */\n      0x00\n        /* \"#utility.yul\":5470:5475   */\n      dup2\n        /* \"#utility.yul\":5464:5476   */\n      mload\n        /* \"#utility.yul\":5454:5476   */\n      swap1\n      pop\n        /* \"#utility.yul\":5348:5483   */\n      swap2\n      swap1\n      pop\n      jump\t// out\n        /* \"#utility.yul\":5489:5694   */\n    tag_147:\n        /* \"#utility.yul\":5609:5620   */\n      0x00\n        /* \"#utility.yul\":5643:5649   */\n      dup3\n        /* \"#utility.yul\":5638:5641   */\n      dup3\n        /* \"#utility.yul\":5631:5650   */\n      mstore\n        /* \"#utility.yul\":5683:5687   */\n      0x20\n        /* \"#utility.yul\":5678:5681   */\n      dup3\n        /* \"#utility.yul\":5674:5688   */\n      add\n        /* \"#utility.yul\":5659:5688   */\n      swap1\n      pop\n        /* \"#utility.yul\":5489:5694   */\n      swap3\n      swap2\n      pop\n      pop\n      jump\t// out\n        /* \"#utility.yul\":5700:5853   */\n    tag_148:\n        /* \"#utility.yul\":5788:5792   */\n      0x00\n        /* \"#utility.yul\":5811:5814   */\n      dup2\n        /* \"#utility.yul\":5803:5814   */\n      swap1\n      pop\n        /* \"#utility.yul\":5841:5845   */\n      0x20\n        /* \"#utility.yul\":5836:5839   */\n      dup3\n        /* \"#utility.yul\":5832:5846   */\n      add\n        /* \"#utility.yul\":5824:5846   */\n      swap1\n      pop\n        /* \"#utility.yul\":5700:5853   */\n      swap2\n      swap1\n      pop\n      jump\t// out\n        /* \"#utility.yul\":5859:5967   */\n    tag_149:\n        /* \"#utility.yul\":5936:5960   */\n      tag_257\n        /* \"#utility.yul\":5954:5959   */\n      dup2\n        /* \"#utility.yul\":5936:5960   */\n      tag_128\n      jump\t// in\n    tag_257:\n        /* \"#utility.yul\":5931:5934   */\n      dup3\n        /* \"#utility.yul\":5924:5961   */\n      mstore\n        /* \"#utility.yul\":5859:5967   */\n      pop\n      pop\n      jump\t// out\n        /* \"#utility.yul\":5973:6081   */\n    tag_150:\n        /* \"#utility.yul\":6050:6074   */\n      tag_259\n        /* \"#utility.yul\":6068:6073   */\n      dup2\n        /* \"#utility.yul\":6050:6074   */\n      tag_132\n      jump\t// in\n    tag_259:\n        /* \"#utility.yul\":6045:6048   */\n      dup3\n        /* \"#utility.yul\":6038:6075   */\n      mstore\n        /* \"#utility.yul\":5973:6081   */\n      pop\n      pop\n      jump\t// out\n        /* \"#utility.yul\":6087:6186   */\n    tag_151:\n        /* \"#utility.yul\":6139:6145   */\n      0x00\n        /* \"#utility.yul\":6173:6178   */\n      dup2\n        /* \"#utility.yul\":6167:6179   */\n      mload\n        /* \"#utility.yul\":6157:6179   */\n      swap1\n      pop\n        /* \"#utility.yul\":6087:6186   */\n      swap2\n      swap1\n      pop\n      jump\t// out\n        /* \"#utility.yul\":6192:6351   */\n    tag_152:\n        /* \"#utility.yul\":6266:6277   */\n      0x00\n        /* \"#utility.yul\":6300:6306   */\n      dup3\n        /* \"#utility.yul\":6295:6298   */\n      dup3\n        /* \"#utility.yul\":6288:6307   */\n      mstore\n        /* \"#utility.yul\":6340:6344   */\n      0x20\n        /* \"#utility.yul\":6335:6338   */\n      dup3\n        /* \"#utility.yul\":6331:6345   */\n      add\n        /* \"#utility.yul\":6316:6345   */\n      swap1\n      pop\n        /* \"#utility.yul\":6192:6351   */\n      swap3\n      swap2\n      pop\n      pop\n      jump\t// out\n        /* \"#utility.yul\":6357:6496   */\n    tag_153:\n        /* \"#utility.yul\":6446:6452   */\n      dup3\n        /* \"#utility.yul\":6441:6444   */\n      dup2\n        /* \"#utility.yul\":6436:6439   */\n      dup4\n        /* \"#utility.yul\":6430:6453   */\n      mcopy\n        /* \"#utility.yul\":6487:6488   */\n      0x00\n        /* \"#utility.yul\":6478:6484   */\n      dup4\n        /* \"#utility.yul\":6473:6476   */\n      dup4\n        /* \"#utility.yul\":6469:6485   */\n      add\n        /* \"#utility.yul\":6462:6489   */\n      mstore\n        /* \"#utility.yul\":6357:6496   */\n      pop\n      pop\n      pop\n      jump\t// out\n        /* \"#utility.yul\":6502:6859   */\n    tag_154:\n        /* \"#utility.yul\":6580:6583   */\n      0x00\n        /* \"#utility.yul\":6608:6647   */\n      tag_264\n        /* \"#utility.yul\":6641:6646   */\n      dup3\n        /* \"#utility.yul\":6608:6647   */\n      tag_151\n      jump\t// in\n    tag_264:\n        /* \"#utility.yul\":6663:6724   */\n      tag_265\n        /* \"#utility.yul\":6717:6723   */\n      dup2\n        /* \"#utility.yul\":6712:6715   */\n      dup6\n        /* \"#utility.yul\":6663:6724   */\n      tag_152\n      jump\t// in\n    tag_265:\n        /* \"#utility.yul\":6656:6724   */\n      swap4\n      pop\n        /* \"#utility.yul\":6733:6798   */\n      tag_266\n        /* \"#utility.yul\":6791:6797   */\n      dup2\n        /* \"#utility.yul\":6786:6789   */\n      dup6\n        /* \"#utility.yul\":6779:6783   */\n      0x20\n        /* \"#utility.yul\":6772:6777   */\n      dup7\n        /* \"#utility.yul\":6768:6784   */\n      add\n        /* \"#utility.yul\":6733:6798   */\n      tag_153\n      jump\t// in\n    tag_266:\n        /* \"#utility.yul\":6823:6852   */\n      tag_267\n        /* \"#utility.yul\":6845:6851   */\n      dup2\n        /* \"#utility.yul\":6823:6852   */\n      tag_137\n      jump\t// in\n    tag_267:\n        /* \"#utility.yul\":6818:6821   */\n      dup5\n        /* \"#utility.yul\":6814:6853   */\n      add\n        /* \"#utility.yul\":6807:6853   */\n      swap2\n      pop\n        /* \"#utility.yul\":6584:6859   */\n      pop\n        /* \"#utility.yul\":6502:6859   */\n      swap3\n      swap2\n      pop\n      pop\n      jump\t// out\n        /* \"#utility.yul\":6865:6955   */\n    tag_155:\n        /* \"#utility.yul\":6899:6906   */\n      0x00\n        /* \"#utility.yul\":6942:6947   */\n      dup2\n        /* \"#utility.yul\":6935:6948   */\n      iszero\n        /* \"#utility.yul\":6928:6949   */\n      iszero\n        /* \"#utility.yul\":6917:6949   */\n      swap1\n      pop\n        /* \"#utility.yul\":6865:6955   */\n      swap2\n      swap1\n      pop\n      jump\t// out\n        /* \"#utility.yul\":6961:7060   */\n    tag_156:\n        /* \"#utility.yul\":7032:7053   */\n      tag_270\n        /* \"#utility.yul\":7047:7052   */\n      dup2\n        /* \"#utility.yul\":7032:7053   */\n      tag_155\n      jump\t// in\n    tag_270:\n        /* \"#utility.yul\":7027:7030   */\n      dup3\n        /* \"#utility.yul\":7020:7054   */\n      mstore\n        /* \"#utility.yul\":6961:7060   */\n      pop\n      pop\n      jump\t// out\n        /* \"#utility.yul\":7122:8802   */\n    tag_157:\n        /* \"#utility.yul\":7223:7226   */\n      0x00\n        /* \"#utility.yul\":7259:7265   */\n      0x0100\n        /* \"#utility.yul\":7254:7257   */\n      dup4\n        /* \"#utility.yul\":7250:7266   */\n      add\n        /* \"#utility.yul\":7350:7354   */\n      0x00\n        /* \"#utility.yul\":7343:7348   */\n      dup4\n        /* \"#utility.yul\":7339:7355   */\n      add\n        /* \"#utility.yul\":7333:7356   */\n      mload\n        /* \"#utility.yul\":7369:7432   */\n      tag_272\n        /* \"#utility.yul\":7426:7430   */\n      0x00\n        /* \"#utility.yul\":7421:7424   */\n      dup7\n        /* \"#utility.yul\":7417:7431   */\n      add\n        /* \"#utility.yul\":7403:7415   */\n      dup3\n        /* \"#utility.yul\":7369:7432   */\n      tag_149\n      jump\t// in\n    tag_272:\n        /* \"#utility.yul\":7276:7442   */\n      pop\n        /* \"#utility.yul\":7526:7530   */\n      0x20\n        /* \"#utility.yul\":7519:7524   */\n      dup4\n        /* \"#utility.yul\":7515:7531   */\n      add\n        /* \"#utility.yul\":7509:7532   */\n      mload\n        /* \"#utility.yul\":7545:7608   */\n      tag_273\n        /* \"#utility.yul\":7602:7606   */\n      0x20\n        /* \"#utility.yul\":7597:7600   */\n      dup7\n        /* \"#utility.yul\":7593:7607   */\n      add\n        /* \"#utility.yul\":7579:7591   */\n      dup3\n        /* \"#utility.yul\":7545:7608   */\n      tag_150\n      jump\t// in\n    tag_273:\n        /* \"#utility.yul\":7452:7618   */\n      pop\n        /* \"#utility.yul\":7704:7708   */\n      0x40\n        /* \"#utility.yul\":7697:7702   */\n      dup4\n        /* \"#utility.yul\":7693:7709   */\n      add\n        /* \"#utility.yul\":7687:7710   */\n      mload\n        /* \"#utility.yul\":7723:7786   */\n      tag_274\n        /* \"#utility.yul\":7780:7784   */\n      0x40\n        /* \"#utility.yul\":7775:7778   */\n      dup7\n        /* \"#utility.yul\":7771:7785   */\n      add\n        /* \"#utility.yul\":7757:7769   */\n      dup3\n        /* \"#utility.yul\":7723:7786   */\n      tag_150\n      jump\t// in\n    tag_274:\n        /* \"#utility.yul\":7628:7796   */\n      pop\n        /* \"#utility.yul\":7892:7896   */\n      0x60\n        /* \"#utility.yul\":7885:7890   */\n      dup4\n        /* \"#utility.yul\":7881:7897   */\n      add\n        /* \"#utility.yul\":7875:7898   */\n      mload\n        /* \"#utility.yul\":7911:7974   */\n      tag_275\n        /* \"#utility.yul\":7968:7972   */\n      0x60\n        /* \"#utility.yul\":7963:7966   */\n      dup7\n        /* \"#utility.yul\":7959:7973   */\n      add\n        /* \"#utility.yul\":7945:7957   */\n      dup3\n        /* \"#utility.yul\":7911:7974   */\n      tag_150\n      jump\t// in\n    tag_275:\n        /* \"#utility.yul\":7806:7984   */\n      pop\n        /* \"#utility.yul\":8078:8082   */\n      0x80\n        /* \"#utility.yul\":8071:8076   */\n      dup4\n        /* \"#utility.yul\":8067:8083   */\n      add\n        /* \"#utility.yul\":8061:8084   */\n      mload\n        /* \"#utility.yul\":8097:8160   */\n      tag_276\n        /* \"#utility.yul\":8154:8158   */\n      0x80\n        /* \"#utility.yul\":8149:8152   */\n      dup7\n        /* \"#utility.yul\":8145:8159   */\n      add\n        /* \"#utility.yul\":8131:8143   */\n      dup3\n        /* \"#utility.yul\":8097:8160   */\n      tag_149\n      jump\t// in\n    tag_276:\n        /* \"#utility.yul\":7994:8170   */\n      pop\n        /* \"#utility.yul\":8260:8264   */\n      0xa0\n        /* \"#utility.yul\":8253:8258   */\n      dup4\n        /* \"#utility.yul\":8249:8265   */\n      add\n        /* \"#utility.yul\":8243:8266   */\n      mload\n        /* \"#utility.yul\":8313:8316   */\n      dup5\n        /* \"#utility.yul\":8307:8311   */\n      dup3\n        /* \"#utility.yul\":8303:8317   */\n      sub\n        /* \"#utility.yul\":8296:8300   */\n      0xa0\n        /* \"#utility.yul\":8291:8294   */\n      dup7\n        /* \"#utility.yul\":8287:8301   */\n      add\n        /* \"#utility.yul\":8280:8318   */\n      mstore\n        /* \"#utility.yul\":8339:8412   */\n      tag_277\n        /* \"#utility.yul\":8407:8411   */\n      dup3\n        /* \"#utility.yul\":8393:8405   */\n      dup3\n        /* \"#utility.yul\":8339:8412   */\n      tag_154\n      jump\t// in\n    tag_277:\n        /* \"#utility.yul\":8331:8412   */\n      swap2\n      pop\n        /* \"#utility.yul\":8180:8423   */\n      pop\n        /* \"#utility.yul\":8511:8515   */\n      0xc0\n        /* \"#utility.yul\":8504:8509   */\n      dup4\n        /* \"#utility.yul\":8500:8516   */\n      add\n        /* \"#utility.yul\":8494:8517   */\n      mload\n        /* \"#utility.yul\":8530:8593   */\n      tag_278\n        /* \"#utility.yul\":8587:8591   */\n      0xc0\n        /* \"#utility.yul\":8582:8585   */\n      dup7\n        /* \"#utility.yul\":8578:8592   */\n      add\n        /* \"#utility.yul\":8564:8576   */\n      dup3\n        /* \"#utility.yul\":8530:8593   */\n      tag_149\n      jump\t// in\n    tag_278:\n        /* \"#utility.yul\":8433:8603   */\n      pop\n        /* \"#utility.yul\":8689:8693   */\n      0xe0\n        /* \"#utility.yul\":8682:8687   */\n      dup4\n        /* \"#utility.yul\":8678:8694   */\n      add\n        /* \"#utility.yul\":8672:8695   */\n      mload\n        /* \"#utility.yul\":8708:8765   */\n      tag_279\n        /* \"#utility.yul\":8759:8763   */\n      0xe0\n        /* \"#utility.yul\":8754:8757   */\n      dup7\n        /* \"#utility.yul\":8750:8764   */\n      add\n        /* \"#utility.yul\":8736:8748   */\n      dup3\n        /* \"#utility.yul\":8708:8765   */\n      tag_156\n      jump\t// in\n    tag_279:\n        /* \"#utility.yul\":8613:8775   */\n      pop\n        /* \"#utility.yul\":8792:8796   */\n      dup1\n        /* \"#utility.yul\":8785:8796   */\n      swap2\n      pop\n        /* \"#utility.yul\":7228:8802   */\n      pop\n        /* \"#utility.yul\":7122:8802   */\n      swap3\n      swap2\n      pop\n      pop\n      jump\t// out\n        /* \"#utility.yul\":8808:9048   */\n    tag_158:\n        /* \"#utility.yul\":8919:8929   */\n      0x00\n        /* \"#utility.yul\":8954:9042   */\n      tag_281\n        /* \"#utility.yul\":9038:9041   */\n      dup4\n        /* \"#utility.yul\":9030:9036   */\n      dup4\n        /* \"#utility.yul\":8954:9042   */\n      tag_157\n      jump\t// in\n    tag_281:\n        /* \"#utility.yul\":8940:9042   */\n      swap1\n      pop\n        /* \"#utility.yul\":8808:9048   */\n      swap3\n      swap2\n      pop\n      pop\n      jump\t// out\n        /* \"#utility.yul\":9054:9188   */\n    tag_159:\n        /* \"#utility.yul\":9145:9149   */\n      0x00\n        /* \"#utility.yul\":9177:9181   */\n      0x20\n        /* \"#utility.yul\":9172:9175   */\n      dup3\n        /* \"#utility.yul\":9168:9182   */\n      add\n        /* \"#utility.yul\":9160:9182   */\n      swap1\n      pop\n        /* \"#utility.yul\":9054:9188   */\n      swap2\n      swap1\n      pop\n      jump\t// out\n        /* \"#utility.yul\":9254:10333   */\n    tag_160:\n        /* \"#utility.yul\":9415:9418   */\n      0x00\n        /* \"#utility.yul\":9444:9519   */\n      tag_284\n        /* \"#utility.yul\":9513:9518   */\n      dup3\n        /* \"#utility.yul\":9444:9519   */\n      tag_146\n      jump\t// in\n    tag_284:\n        /* \"#utility.yul\":9535:9642   */\n      tag_285\n        /* \"#utility.yul\":9635:9641   */\n      dup2\n        /* \"#utility.yul\":9630:9633   */\n      dup6\n        /* \"#utility.yul\":9535:9642   */\n      tag_147\n      jump\t// in\n    tag_285:\n        /* \"#utility.yul\":9528:9642   */\n      swap4\n      pop\n        /* \"#utility.yul\":9668:9671   */\n      dup4\n        /* \"#utility.yul\":9713:9717   */\n      0x20\n        /* \"#utility.yul\":9705:9711   */\n      dup3\n        /* \"#utility.yul\":9701:9718   */\n      mul\n        /* \"#utility.yul\":9696:9699   */\n      dup6\n        /* \"#utility.yul\":9692:9719   */\n      add\n        /* \"#utility.yul\":9743:9820   */\n      tag_286\n        /* \"#utility.yul\":9814:9819   */\n      dup6\n        /* \"#utility.yul\":9743:9820   */\n      tag_148\n      jump\t// in\n    tag_286:\n        /* \"#utility.yul\":9843:9850   */\n      dup1\n        /* \"#utility.yul\":9874:9875   */\n      0x00\n        /* \"#utility.yul\":9859:10288   */\n    tag_287:\n        /* \"#utility.yul\":9884:9890   */\n      dup6\n        /* \"#utility.yul\":9881:9882   */\n      dup2\n        /* \"#utility.yul\":9878:9891   */\n      lt\n        /* \"#utility.yul\":9859:10288   */\n      iszero\n      tag_289\n      jumpi\n        /* \"#utility.yul\":9955:9964   */\n      dup5\n        /* \"#utility.yul\":9949:9953   */\n      dup5\n        /* \"#utility.yul\":9945:9965   */\n      sub\n        /* \"#utility.yul\":9940:9943   */\n      dup10\n        /* \"#utility.yul\":9933:9966   */\n      mstore\n        /* \"#utility.yul\":10006:10012   */\n      dup2\n        /* \"#utility.yul\":10000:10013   */\n      mload\n        /* \"#utility.yul\":10034:10140   */\n      tag_290\n        /* \"#utility.yul\":10135:10139   */\n      dup6\n        /* \"#utility.yul\":10120:10133   */\n      dup3\n        /* \"#utility.yul\":10034:10140   */\n      tag_158\n      jump\t// in\n    tag_290:\n        /* \"#utility.yul\":10026:10140   */\n      swap5\n      pop\n        /* \"#utility.yul\":10163:10244   */\n      tag_291\n        /* \"#utility.yul\":10237:10243   */\n      dup4\n        /* \"#utility.yul\":10163:10244   */\n      tag_159\n      jump\t// in\n    tag_291:\n        /* \"#utility.yul\":10153:10244   */\n      swap3\n      pop\n        /* \"#utility.yul\":10273:10277   */\n      0x20\n        /* \"#utility.yul\":10268:10271   */\n      dup11\n        /* \"#utility.yul\":10264:10278   */\n      add\n        /* \"#utility.yul\":10257:10278   */\n      swap10\n      pop\n        /* \"#utility.yul\":9919:10288   */\n      pop\n        /* \"#utility.yul\":9906:9907   */\n      0x01\n        /* \"#utility.yul\":9903:9904   */\n      dup2\n        /* \"#utility.yul\":9899:9908   */\n      add\n        /* \"#utility.yul\":9894:9908   */\n      swap1\n      pop\n        /* \"#utility.yul\":9859:10288   */\n      jump(tag_287)\n    tag_289:\n        /* \"#utility.yul\":9863:9877   */\n      pop\n        /* \"#utility.yul\":10304:10308   */\n      dup3\n        /* \"#utility.yul\":10297:10308   */\n      swap8\n      pop\n        /* \"#utility.yul\":10324:10327   */\n      dup8\n        /* \"#utility.yul\":10317:10327   */\n      swap6\n      pop\n        /* \"#utility.yul\":9420:10333   */\n      pop\n      pop\n      pop\n      pop\n      pop\n        /* \"#utility.yul\":9254:10333   */\n      swap3\n      swap2\n      pop\n      pop\n      jump\t// out\n        /* \"#utility.yul\":10339:10796   */\n    tag_31:\n        /* \"#utility.yul\":10524:10528   */\n      0x00\n        /* \"#utility.yul\":10562:10564   */\n      0x20\n        /* \"#utility.yul\":10551:10560   */\n      dup3\n        /* \"#utility.yul\":10547:10565   */\n      add\n        /* \"#utility.yul\":10539:10565   */\n      swap1\n      pop\n        /* \"#utility.yul\":10611:10620   */\n      dup2\n        /* \"#utility.yul\":10605:10609   */\n      dup2\n        /* \"#utility.yul\":10601:10621   */\n      sub\n        /* \"#utility.yul\":10597:10598   */\n      0x00\n        /* \"#utility.yul\":10586:10595   */\n      dup4\n        /* \"#utility.yul\":10582:10599   */\n      add\n        /* \"#utility.yul\":10575:10622   */\n      mstore\n        /* \"#utility.yul\":10639:10789   */\n      tag_293\n        /* \"#utility.yul\":10784:10788   */\n      dup2\n        /* \"#utility.yul\":10775:10781   */\n      dup5\n        /* \"#utility.yul\":10639:10789   */\n      tag_160\n      jump\t// in\n    tag_293:\n        /* \"#utility.yul\":10631:10789   */\n      swap1\n      pop\n        /* \"#utility.yul\":10339:10796   */\n      swap3\n      swap2\n      pop\n      pop\n      jump\t// out\n        /* \"#utility.yul\":10802:10920   */\n    tag_161:\n        /* \"#utility.yul\":10889:10913   */\n      tag_295\n        /* \"#utility.yul\":10907:10912   */\n      dup2\n        /* \"#utility.yul\":10889:10913   */\n      tag_128\n      jump\t// in\n    tag_295:\n        /* \"#utility.yul\":10884:10887   */\n      dup3\n        /* \"#utility.yul\":10877:10914   */\n      mstore\n        /* \"#utility.yul\":10802:10920   */\n      pop\n      pop\n      jump\t// out\n        /* \"#utility.yul\":10926:11095   */\n    tag_162:\n        /* \"#utility.yul\":11010:11021   */\n      0x00\n        /* \"#utility.yul\":11044:11050   */\n      dup3\n        /* \"#utility.yul\":11039:11042   */\n      dup3\n        /* \"#utility.yul\":11032:11051   */\n      mstore\n        /* \"#utility.yul\":11084:11088   */\n      0x20\n        /* \"#utility.yul\":11079:11082   */\n      dup3\n        /* \"#utility.yul\":11075:11089   */\n      add\n        /* \"#utility.yul\":11060:11089   */\n      swap1\n      pop\n        /* \"#utility.yul\":10926:11095   */\n      swap3\n      swap2\n      pop\n      pop\n      jump\t// out\n        /* \"#utility.yul\":11101:11478   */\n    tag_163:\n        /* \"#utility.yul\":11189:11192   */\n      0x00\n        /* \"#utility.yul\":11217:11256   */\n      tag_298\n        /* \"#utility.yul\":11250:11255   */\n      dup3\n        /* \"#utility.yul\":11217:11256   */\n      tag_151\n      jump\t// in\n    tag_298:\n        /* \"#utility.yul\":11272:11343   */\n      tag_299\n        /* \"#utility.yul\":11336:11342   */\n      dup2\n        /* \"#utility.yul\":11331:11334   */\n      dup6\n        /* \"#utility.yul\":11272:11343   */\n      tag_162\n      jump\t// in\n    tag_299:\n        /* \"#utility.yul\":11265:11343   */\n      swap4\n      pop\n        /* \"#utility.yul\":11352:11417   */\n      tag_300\n        /* \"#utility.yul\":11410:11416   */\n      dup2\n        /* \"#utility.yul\":11405:11408   */\n      dup6\n        /* \"#utility.yul\":11398:11402   */\n      0x20\n        /* \"#utility.yul\":11391:11396   */\n      dup7\n        /* \"#utility.yul\":11387:11403   */\n      add\n        /* \"#utility.yul\":11352:11417   */\n      tag_153\n      jump\t// in\n    tag_300:\n        /* \"#utility.yul\":11442:11471   */\n      tag_301\n        /* \"#utility.yul\":11464:11470   */\n      dup2\n        /* \"#utility.yul\":11442:11471   */\n      tag_137\n      jump\t// in\n    tag_301:\n        /* \"#utility.yul\":11437:11440   */\n      dup5\n        /* \"#utility.yul\":11433:11472   */\n      add\n        /* \"#utility.yul\":11426:11472   */\n      swap2\n      pop\n        /* \"#utility.yul\":11193:11478   */\n      pop\n        /* \"#utility.yul\":11101:11478   */\n      swap3\n      swap2\n      pop\n      pop\n      jump\t// out\n        /* \"#utility.yul\":11484:11593   */\n    tag_164:\n        /* \"#utility.yul\":11565:11586   */\n      tag_303\n        /* \"#utility.yul\":11580:11585   */\n      dup2\n        /* \"#utility.yul\":11565:11586   */\n      tag_155\n      jump\t// in\n    tag_303:\n        /* \"#utility.yul\":11560:11563   */\n      dup3\n        /* \"#utility.yul\":11553:11587   */\n      mstore\n        /* \"#utility.yul\":11484:11593   */\n      pop\n      pop\n      jump\t// out\n        /* \"#utility.yul\":11599:12675   */\n    tag_37:\n        /* \"#utility.yul\":11902:11906   */\n      0x00\n        /* \"#utility.yul\":11940:11943   */\n      0x0100\n        /* \"#utility.yul\":11929:11938   */\n      dup3\n        /* \"#utility.yul\":11925:11944   */\n      add\n        /* \"#utility.yul\":11917:11944   */\n      swap1\n      pop\n        /* \"#utility.yul\":11954:12025   */\n      tag_305\n        /* \"#utility.yul\":12022:12023   */\n      0x00\n        /* \"#utility.yul\":12011:12020   */\n      dup4\n        /* \"#utility.yul\":12007:12024   */\n      add\n        /* \"#utility.yul\":11998:12004   */\n      dup12\n        /* \"#utility.yul\":11954:12025   */\n      tag_161\n      jump\t// in\n    tag_305:\n        /* \"#utility.yul\":12035:12107   */\n      tag_306\n        /* \"#utility.yul\":12103:12105   */\n      0x20\n        /* \"#utility.yul\":12092:12101   */\n      dup4\n        /* \"#utility.yul\":12088:12106   */\n      add\n        /* \"#utility.yul\":12079:12085   */\n      dup11\n        /* \"#utility.yul\":12035:12107   */\n      tag_145\n      jump\t// in\n    tag_306:\n        /* \"#utility.yul\":12117:12189   */\n      tag_307\n        /* \"#utility.yul\":12185:12187   */\n      0x40\n        /* \"#utility.yul\":12174:12183   */\n      dup4\n        /* \"#utility.yul\":12170:12188   */\n      add\n        /* \"#utility.yul\":12161:12167   */\n      dup10\n        /* \"#utility.yul\":12117:12189   */\n      tag_145\n      jump\t// in\n    tag_307:\n        /* \"#utility.yul\":12199:12271   */\n      tag_308\n        /* \"#utility.yul\":12267:12269   */\n      0x60\n        /* \"#utility.yul\":12256:12265   */\n      dup4\n        /* \"#utility.yul\":12252:12270   */\n      add\n        /* \"#utility.yul\":12243:12249   */\n      dup9\n        /* \"#utility.yul\":12199:12271   */\n      tag_145\n      jump\t// in\n    tag_308:\n        /* \"#utility.yul\":12281:12354   */\n      tag_309\n        /* \"#utility.yul\":12349:12352   */\n      0x80\n        /* \"#utility.yul\":12338:12347   */\n      dup4\n        /* \"#utility.yul\":12334:12353   */\n      add\n        /* \"#utility.yul\":12325:12331   */\n      dup8\n        /* \"#utility.yul\":12281:12354   */\n      tag_161\n      jump\t// in\n    tag_309:\n        /* \"#utility.yul\":12402:12411   */\n      dup2\n        /* \"#utility.yul\":12396:12400   */\n      dup2\n        /* \"#utility.yul\":12392:12412   */\n      sub\n        /* \"#utility.yul\":12386:12389   */\n      0xa0\n        /* \"#utility.yul\":12375:12384   */\n      dup4\n        /* \"#utility.yul\":12371:12390   */\n      add\n        /* \"#utility.yul\":12364:12413   */\n      mstore\n        /* \"#utility.yul\":12430:12508   */\n      tag_310\n        /* \"#utility.yul\":12503:12507   */\n      dup2\n        /* \"#utility.yul\":12494:12500   */\n      dup7\n        /* \"#utility.yul\":12430:12508   */\n      tag_163\n      jump\t// in\n    tag_310:\n        /* \"#utility.yul\":12422:12508   */\n      swap1\n      pop\n        /* \"#utility.yul\":12518:12591   */\n      tag_311\n        /* \"#utility.yul\":12586:12589   */\n      0xc0\n        /* \"#utility.yul\":12575:12584   */\n      dup4\n        /* \"#utility.yul\":12571:12590   */\n      add\n        /* \"#utility.yul\":12562:12568   */\n      dup6\n        /* \"#utility.yul\":12518:12591   */\n      tag_161\n      jump\t// in\n    tag_311:\n        /* \"#utility.yul\":12601:12668   */\n      tag_312\n        /* \"#utility.yul\":12663:12666   */\n      0xe0\n        /* \"#utility.yul\":12652:12661   */\n      dup4\n        /* \"#utility.yul\":12648:12667   */\n      add\n        /* \"#utility.yul\":12639:12645   */\n      dup5\n        /* \"#utility.yul\":12601:12668   */\n      tag_164\n      jump\t// in\n    tag_312:\n        /* \"#utility.yul\":11599:12675   */\n      swap10\n      swap9\n      pop\n      pop\n      pop\n      pop\n      pop\n      pop\n      pop\n      pop\n      pop\n      jump\t// out\n        /* \"#utility.yul\":12681:13010   */\n    tag_41:\n        /* \"#utility.yul\":12740:12746   */\n      0x00\n        /* \"#utility.yul\":12789:12791   */\n      0x20\n        /* \"#utility.yul\":12777:12786   */\n      dup3\n        /* \"#utility.yul\":12768:12775   */\n      dup5\n        /* \"#utility.yul\":12764:12787   */\n      sub\n        /* \"#utility.yul\":12760:12792   */\n      slt\n        /* \"#utility.yul\":12757:12876   */\n      iszero\n      tag_314\n      jumpi\n        /* \"#utility.yul\":12795:12874   */\n      tag_315\n      tag_126\n      jump\t// in\n    tag_315:\n        /* \"#utility.yul\":12757:12876   */\n    tag_314:\n        /* \"#utility.yul\":12915:12916   */\n      0x00\n        /* \"#utility.yul\":12940:12993   */\n      tag_316\n        /* \"#utility.yul\":12985:12992   */\n      dup5\n        /* \"#utility.yul\":12976:12982   */\n      dup3\n        /* \"#utility.yul\":12965:12974   */\n      dup6\n        /* \"#utility.yul\":12961:12983   */\n      add\n        /* \"#utility.yul\":12940:12993   */\n      tag_134\n      jump\t// in\n    tag_316:\n        /* \"#utility.yul\":12930:12993   */\n      swap2\n      pop\n        /* \"#utility.yul\":12886:13003   */\n      pop\n        /* \"#utility.yul\":12681:13010   */\n      swap3\n      swap2\n      pop\n      pop\n      jump\t// out\n        /* \"#utility.yul\":13016:13188   */\n    tag_165:\n        /* \"#utility.yul\":13156:13180   */\n      0x4c6f616e20494420646f6573206e6f7420657869737400000000000000000000\n        /* \"#utility.yul\":13152:13153   */\n      0x00\n        /* \"#utility.yul\":13144:13150   */\n      dup3\n        /* \"#utility.yul\":13140:13154   */\n      add\n        /* \"#utility.yul\":13133:13181   */\n      mstore\n        /* \"#utility.yul\":13016:13188   */\n      pop\n      jump\t// out\n        /* \"#utility.yul\":13194:13560   */\n    tag_166:\n        /* \"#utility.yul\":13336:13339   */\n      0x00\n        /* \"#utility.yul\":13357:13424   */\n      tag_319\n        /* \"#utility.yul\":13421:13423   */\n      0x16\n        /* \"#utility.yul\":13416:13419   */\n      dup4\n        /* \"#utility.yul\":13357:13424   */\n      tag_162\n      jump\t// in\n    tag_319:\n        /* \"#utility.yul\":13350:13424   */\n      swap2\n      pop\n        /* \"#utility.yul\":13433:13526   */\n      tag_320\n        /* \"#utility.yul\":13522:13525   */\n      dup3\n        /* \"#utility.yul\":13433:13526   */\n      tag_165\n      jump\t// in\n    tag_320:\n        /* \"#utility.yul\":13551:13553   */\n      0x20\n        /* \"#utility.yul\":13546:13549   */\n      dup3\n        /* \"#utility.yul\":13542:13554   */\n      add\n        /* \"#utility.yul\":13535:13554   */\n      swap1\n      pop\n        /* \"#utility.yul\":13194:13560   */\n      swap2\n      swap1\n      pop\n      jump\t// out\n        /* \"#utility.yul\":13566:13985   */\n    tag_55:\n        /* \"#utility.yul\":13732:13736   */\n      0x00\n        /* \"#utility.yul\":13770:13772   */\n      0x20\n        /* \"#utility.yul\":13759:13768   */\n      dup3\n        /* \"#utility.yul\":13755:13773   */\n      add\n        /* \"#utility.yul\":13747:13773   */\n      swap1\n      pop\n        /* \"#utility.yul\":13819:13828   */\n      dup2\n        /* \"#utility.yul\":13813:13817   */\n      dup2\n        /* \"#utility.yul\":13809:13829   */\n      sub\n        /* \"#utility.yul\":13805:13806   */\n      0x00\n        /* \"#utility.yul\":13794:13803   */\n      dup4\n        /* \"#utility.yul\":13790:13807   */\n      add\n        /* \"#utility.yul\":13783:13830   */\n      mstore\n        /* \"#utility.yul\":13847:13978   */\n      tag_322\n        /* \"#utility.yul\":13973:13977   */\n      dup2\n        /* \"#utility.yul\":13847:13978   */\n      tag_166\n      jump\t// in\n    tag_322:\n        /* \"#utility.yul\":13839:13978   */\n      swap1\n      pop\n        /* \"#utility.yul\":13566:13985   */\n      swap2\n      swap1\n      pop\n      jump\t// out\n        /* \"#utility.yul\":13991:14171   */\n    tag_167:\n        /* \"#utility.yul\":14039:14116   */\n      0x4e487b7100000000000000000000000000000000000000000000000000000000\n        /* \"#utility.yul\":14036:14037   */\n      0x00\n        /* \"#utility.yul\":14029:14117   */\n      mstore\n        /* \"#utility.yul\":14136:14140   */\n      0x11\n        /* \"#utility.yul\":14133:14134   */\n      0x04\n        /* \"#utility.yul\":14126:14141   */\n      mstore\n        /* \"#utility.yul\":14160:14164   */\n      0x24\n        /* \"#utility.yul\":14157:14158   */\n      0x00\n        /* \"#utility.yul\":14150:14165   */\n      revert\n        /* \"#utility.yul\":14177:14371   */\n    tag_57:\n        /* \"#utility.yul\":14217:14221   */\n      0x00\n        /* \"#utility.yul\":14237:14257   */\n      tag_325\n        /* \"#utility.yul\":14255:14256   */\n      dup3\n        /* \"#utility.yul\":14237:14257   */\n      tag_128\n      jump\t// in\n    tag_325:\n        /* \"#utility.yul\":14232:14257   */\n      swap2\n      pop\n        /* \"#utility.yul\":14271:14291   */\n      tag_326\n        /* \"#utility.yul\":14289:14290   */\n      dup4\n        /* \"#utility.yul\":14271:14291   */\n      tag_128\n      jump\t// in\n    tag_326:\n        /* \"#utility.yul\":14266:14291   */\n      swap3\n      pop\n        /* \"#utility.yul\":14315:14316   */\n      dup3\n        /* \"#utility.yul\":14312:14313   */\n      dup3\n        /* \"#utility.yul\":14308:14317   */\n      sub\n        /* \"#utility.yul\":14300:14317   */\n      swap1\n      pop\n        /* \"#utility.yul\":14339:14340   */\n      dup2\n        /* \"#utility.yul\":14333:14337   */\n      dup2\n        /* \"#utility.yul\":14330:14341   */\n      gt\n        /* \"#utility.yul\":14327:14364   */\n      iszero\n      tag_327\n      jumpi\n        /* \"#utility.yul\":14344:14362   */\n      tag_328\n      tag_167\n      jump\t// in\n    tag_328:\n        /* \"#utility.yul\":14327:14364   */\n    tag_327:\n        /* \"#utility.yul\":14177:14371   */\n      swap3\n      swap2\n      pop\n      pop\n      jump\t// out\n        /* \"#utility.yul\":14377:14557   */\n    tag_60:\n        /* \"#utility.yul\":14425:14502   */\n      0x4e487b7100000000000000000000000000000000000000000000000000000000\n        /* \"#utility.yul\":14422:14423   */\n      0x00\n        /* \"#utility.yul\":14415:14503   */\n      mstore\n        /* \"#utility.yul\":14522:14526   */\n      0x32\n        /* \"#utility.yul\":14519:14520   */\n      0x04\n        /* \"#utility.yul\":14512:14527   */\n      mstore\n        /* \"#utility.yul\":14546:14550   */\n      0x24\n        /* \"#utility.yul\":14543:14544   */\n      0x00\n        /* \"#utility.yul\":14536:14551   */\n      revert\n        /* \"#utility.yul\":14563:14735   */\n    tag_168:\n        /* \"#utility.yul\":14703:14727   */\n      0x4c6f616e20697320616c726561647920636c6f73656400000000000000000000\n        /* \"#utility.yul\":14699:14700   */\n      0x00\n        /* \"#utility.yul\":14691:14697   */\n      dup3\n        /* \"#utility.yul\":14687:14701   */\n      add\n        /* \"#utility.yul\":14680:14728   */\n      mstore\n        /* \"#utility.yul\":14563:14735   */\n      pop\n      jump\t// out\n        /* \"#utility.yul\":14741:15107   */\n    tag_169:\n        /* \"#utility.yul\":14883:14886   */\n      0x00\n        /* \"#utility.yul\":14904:14971   */\n      tag_332\n        /* \"#utility.yul\":14968:14970   */\n      0x16\n        /* \"#utility.yul\":14963:14966   */\n      dup4\n        /* \"#utility.yul\":14904:14971   */\n      tag_162\n      jump\t// in\n    tag_332:\n        /* \"#utility.yul\":14897:14971   */\n      swap2\n      pop\n        /* \"#utility.yul\":14980:15073   */\n      tag_333\n        /* \"#utility.yul\":15069:15072   */\n      dup3\n        /* \"#utility.yul\":14980:15073   */\n      tag_168\n      jump\t// in\n    tag_333:\n        /* \"#utility.yul\":15098:15100   */\n      0x20\n        /* \"#utility.yul\":15093:15096   */\n      dup3\n        /* \"#utility.yul\":15089:15101   */\n      add\n        /* \"#utility.yul\":15082:15101   */\n      swap1\n      pop\n        /* \"#utility.yul\":14741:15107   */\n      swap2\n      swap1\n      pop\n      jump\t// out\n        /* \"#utility.yul\":15113:15532   */\n    tag_64:\n        /* \"#utility.yul\":15279:15283   */\n      0x00\n        /* \"#utility.yul\":15317:15319   */\n      0x20\n        /* \"#utility.yul\":15306:15315   */\n      dup3\n        /* \"#utility.yul\":15302:15320   */\n      add\n        /* \"#utility.yul\":15294:15320   */\n      swap1\n      pop\n        /* \"#utility.yul\":15366:15375   */\n      dup2\n        /* \"#utility.yul\":15360:15364   */\n      dup2\n        /* \"#utility.yul\":15356:15376   */\n      sub\n        /* \"#utility.yul\":15352:15353   */\n      0x00\n        /* \"#utility.yul\":15341:15350   */\n      dup4\n        /* \"#utility.yul\":15337:15354   */\n      add\n        /* \"#utility.yul\":15330:15377   */\n      mstore\n        /* \"#utility.yul\":15394:15525   */\n      tag_335\n        /* \"#utility.yul\":15520:15524   */\n      dup2\n        /* \"#utility.yul\":15394:15525   */\n      tag_169\n      jump\t// in\n    tag_335:\n        /* \"#utility.yul\":15386:15525   */\n      swap1\n      pop\n        /* \"#utility.yul\":15113:15532   */\n      swap2\n      swap1\n      pop\n      jump\t// out\n        /* \"#utility.yul\":15538:15870   */\n    tag_66:\n        /* \"#utility.yul\":15659:15663   */\n      0x00\n        /* \"#utility.yul\":15697:15699   */\n      0x40\n        /* \"#utility.yul\":15686:15695   */\n      dup3\n        /* \"#utility.yul\":15682:15700   */\n      add\n        /* \"#utility.yul\":15674:15700   */\n      swap1\n      pop\n        /* \"#utility.yul\":15710:15781   */\n      tag_337\n        /* \"#utility.yul\":15778:15779   */\n      0x00\n        /* \"#utility.yul\":15767:15776   */\n      dup4\n        /* \"#utility.yul\":15763:15780   */\n      add\n        /* \"#utility.yul\":15754:15760   */\n      dup6\n        /* \"#utility.yul\":15710:15781   */\n      tag_145\n      jump\t// in\n    tag_337:\n        /* \"#utility.yul\":15791:15863   */\n      tag_338\n        /* \"#utility.yul\":15859:15861   */\n      0x20\n        /* \"#utility.yul\":15848:15857   */\n      dup4\n        /* \"#utility.yul\":15844:15862   */\n      add\n        /* \"#utility.yul\":15835:15841   */\n      dup5\n        /* \"#utility.yul\":15791:15863   */\n      tag_161\n      jump\t// in\n    tag_338:\n        /* \"#utility.yul\":15538:15870   */\n      swap4\n      swap3\n      pop\n      pop\n      pop\n      jump\t// out\n        /* \"#utility.yul\":15876:15992   */\n    tag_170:\n        /* \"#utility.yul\":15946:15967   */\n      tag_340\n        /* \"#utility.yul\":15961:15966   */\n      dup2\n        /* \"#utility.yul\":15946:15967   */\n      tag_155\n      jump\t// in\n    tag_340:\n        /* \"#utility.yul\":15939:15944   */\n      dup2\n        /* \"#utility.yul\":15936:15968   */\n      eq\n        /* \"#utility.yul\":15926:15986   */\n      tag_341\n      jumpi\n        /* \"#utility.yul\":15982:15983   */\n      0x00\n        /* \"#utility.yul\":15979:15980   */\n      dup1\n        /* \"#utility.yul\":15972:15984   */\n      revert\n        /* \"#utility.yul\":15926:15986   */\n    tag_341:\n        /* \"#utility.yul\":15876:15992   */\n      pop\n      jump\t// out\n        /* \"#utility.yul\":15998:16135   */\n    tag_171:\n        /* \"#utility.yul\":16052:16057   */\n      0x00\n        /* \"#utility.yul\":16083:16089   */\n      dup2\n        /* \"#utility.yul\":16077:16090   */\n      mload\n        /* \"#utility.yul\":16068:16090   */\n      swap1\n      pop\n        /* \"#utility.yul\":16099:16129   */\n      tag_343\n        /* \"#utility.yul\":16123:16128   */\n      dup2\n        /* \"#utility.yul\":16099:16129   */\n      tag_170\n      jump\t// in\n    tag_343:\n        /* \"#utility.yul\":15998:16135   */\n      swap3\n      swap2\n      pop\n      pop\n      jump\t// out\n        /* \"#utility.yul\":16141:16486   */\n    tag_70:\n        /* \"#utility.yul\":16208:16214   */\n      0x00\n        /* \"#utility.yul\":16257:16259   */\n      0x20\n        /* \"#utility.yul\":16245:16254   */\n      dup3\n        /* \"#utility.yul\":16236:16243   */\n      dup5\n        /* \"#utility.yul\":16232:16255   */\n      sub\n        /* \"#utility.yul\":16228:16260   */\n      slt\n        /* \"#utility.yul\":16225:16344   */\n      iszero\n      tag_345\n      jumpi\n        /* \"#utility.yul\":16263:16342   */\n      tag_346\n      tag_126\n      jump\t// in\n    tag_346:\n        /* \"#utility.yul\":16225:16344   */\n    tag_345:\n        /* \"#utility.yul\":16383:16384   */\n      0x00\n        /* \"#utility.yul\":16408:16469   */\n      tag_347\n        /* \"#utility.yul\":16461:16468   */\n      dup5\n        /* \"#utility.yul\":16452:16458   */\n      dup3\n        /* \"#utility.yul\":16441:16450   */\n      dup6\n        /* \"#utility.yul\":16437:16459   */\n      add\n        /* \"#utility.yul\":16408:16469   */\n      tag_171\n      jump\t// in\n    tag_347:\n        /* \"#utility.yul\":16398:16469   */\n      swap2\n      pop\n        /* \"#utility.yul\":16354:16479   */\n      pop\n        /* \"#utility.yul\":16141:16486   */\n      swap3\n      swap2\n      pop\n      pop\n      jump\t// out\n        /* \"#utility.yul\":16492:16668   */\n    tag_172:\n        /* \"#utility.yul\":16632:16660   */\n      0x436f6c6c61746572616c207472616e73666572206661696c6564000000000000\n        /* \"#utility.yul\":16628:16629   */\n      0x00\n        /* \"#utility.yul\":16620:16626   */\n      dup3\n        /* \"#utility.yul\":16616:16630   */\n      add\n        /* \"#utility.yul\":16609:16661   */\n      mstore\n        /* \"#utility.yul\":16492:16668   */\n      pop\n      jump\t// out\n        /* \"#utility.yul\":16674:17040   */\n    tag_173:\n        /* \"#utility.yul\":16816:16819   */\n      0x00\n        /* \"#utility.yul\":16837:16904   */\n      tag_350\n        /* \"#utility.yul\":16901:16903   */\n      0x1a\n        /* \"#utility.yul\":16896:16899   */\n      dup4\n        /* \"#utility.yul\":16837:16904   */\n      tag_162\n      jump\t// in\n    tag_350:\n        /* \"#utility.yul\":16830:16904   */\n      swap2\n      pop\n        /* \"#utility.yul\":16913:17006   */\n      tag_351\n        /* \"#utility.yul\":17002:17005   */\n      dup3\n        /* \"#utility.yul\":16913:17006   */\n      tag_172\n      jump\t// in\n    tag_351:\n        /* \"#utility.yul\":17031:17033   */\n      0x20\n        /* \"#utility.yul\":17026:17029   */\n      dup3\n        /* \"#utility.yul\":17022:17034   */\n      add\n        /* \"#utility.yul\":17015:17034   */\n      swap1\n      pop\n        /* \"#utility.yul\":16674:17040   */\n      swap2\n      swap1\n      pop\n      jump\t// out\n        /* \"#utility.yul\":17046:17465   */\n    tag_73:\n        /* \"#utility.yul\":17212:17216   */\n      0x00\n        /* \"#utility.yul\":17250:17252   */\n      0x20\n        /* \"#utility.yul\":17239:17248   */\n      dup3\n        /* \"#utility.yul\":17235:17253   */\n      add\n        /* \"#utility.yul\":17227:17253   */\n      swap1\n      pop\n        /* \"#utility.yul\":17299:17308   */\n      dup2\n        /* \"#utility.yul\":17293:17297   */\n      dup2\n        /* \"#utility.yul\":17289:17309   */\n      sub\n        /* \"#utility.yul\":17285:17286   */\n      0x00\n        /* \"#utility.yul\":17274:17283   */\n      dup4\n        /* \"#utility.yul\":17270:17287   */\n      add\n        /* \"#utility.yul\":17263:17310   */\n      mstore\n        /* \"#utility.yul\":17327:17458   */\n      tag_353\n        /* \"#utility.yul\":17453:17457   */\n      dup2\n        /* \"#utility.yul\":17327:17458   */\n      tag_173\n      jump\t// in\n    tag_353:\n        /* \"#utility.yul\":17319:17458   */\n      swap1\n      pop\n        /* \"#utility.yul\":17046:17465   */\n      swap2\n      swap1\n      pop\n      jump\t// out\n        /* \"#utility.yul\":17471:17803   */\n    tag_75:\n        /* \"#utility.yul\":17592:17596   */\n      0x00\n        /* \"#utility.yul\":17630:17632   */\n      0x40\n        /* \"#utility.yul\":17619:17628   */\n      dup3\n        /* \"#utility.yul\":17615:17633   */\n      add\n        /* \"#utility.yul\":17607:17633   */\n      swap1\n      pop\n        /* \"#utility.yul\":17643:17714   */\n      tag_355\n        /* \"#utility.yul\":17711:17712   */\n      0x00\n        /* \"#utility.yul\":17700:17709   */\n      dup4\n        /* \"#utility.yul\":17696:17713   */\n      add\n        /* \"#utility.yul\":17687:17693   */\n      dup6\n        /* \"#utility.yul\":17643:17714   */\n      tag_161\n      jump\t// in\n    tag_355:\n        /* \"#utility.yul\":17724:17796   */\n      tag_356\n        /* \"#utility.yul\":17792:17794   */\n      0x20\n        /* \"#utility.yul\":17781:17790   */\n      dup4\n        /* \"#utility.yul\":17777:17795   */\n      add\n        /* \"#utility.yul\":17768:17774   */\n      dup5\n        /* \"#utility.yul\":17724:17796   */\n      tag_161\n      jump\t// in\n    tag_356:\n        /* \"#utility.yul\":17471:17803   */\n      swap4\n      swap3\n      pop\n      pop\n      pop\n      jump\t// out\n        /* \"#utility.yul\":17809:17989   */\n    tag_174:\n        /* \"#utility.yul\":17857:17934   */\n      0x4e487b7100000000000000000000000000000000000000000000000000000000\n        /* \"#utility.yul\":17854:17855   */\n      0x00\n        /* \"#utility.yul\":17847:17935   */\n      mstore\n        /* \"#utility.yul\":17954:17958   */\n      0x22\n        /* \"#utility.yul\":17951:17952   */\n      0x04\n        /* \"#utility.yul\":17944:17959   */\n      mstore\n        /* \"#utility.yul\":17978:17982   */\n      0x24\n        /* \"#utility.yul\":17975:17976   */\n      0x00\n        /* \"#utility.yul\":17968:17983   */\n      revert\n        /* \"#utility.yul\":17995:18315   */\n    tag_96:\n        /* \"#utility.yul\":18039:18045   */\n      0x00\n        /* \"#utility.yul\":18076:18077   */\n      0x02\n        /* \"#utility.yul\":18070:18074   */\n      dup3\n        /* \"#utility.yul\":18066:18078   */\n      div\n        /* \"#utility.yul\":18056:18078   */\n      swap1\n      pop\n        /* \"#utility.yul\":18123:18124   */\n      0x01\n        /* \"#utility.yul\":18117:18121   */\n      dup3\n        /* \"#utility.yul\":18113:18125   */\n      and\n        /* \"#utility.yul\":18144:18162   */\n      dup1\n        /* \"#utility.yul\":18134:18215   */\n      tag_359\n      jumpi\n        /* \"#utility.yul\":18200:18204   */\n      0x7f\n        /* \"#utility.yul\":18192:18198   */\n      dup3\n        /* \"#utility.yul\":18188:18205   */\n      and\n        /* \"#utility.yul\":18178:18205   */\n      swap2\n      pop\n        /* \"#utility.yul\":18134:18215   */\n    tag_359:\n        /* \"#utility.yul\":18262:18264   */\n      0x20\n        /* \"#utility.yul\":18254:18260   */\n      dup3\n        /* \"#utility.yul\":18251:18265   */\n      lt\n        /* \"#utility.yul\":18231:18249   */\n      dup2\n        /* \"#utility.yul\":18228:18266   */\n      sub\n        /* \"#utility.yul\":18225:18309   */\n      tag_360\n      jumpi\n        /* \"#utility.yul\":18281:18299   */\n      tag_361\n      tag_174\n      jump\t// in\n    tag_361:\n        /* \"#utility.yul\":18225:18309   */\n    tag_360:\n        /* \"#utility.yul\":18046:18315   */\n      pop\n        /* \"#utility.yul\":17995:18315   */\n      swap2\n      swap1\n      pop\n      jump\t// out\n        /* \"#utility.yul\":18321:18462   */\n    tag_175:\n        /* \"#utility.yul\":18370:18374   */\n      0x00\n        /* \"#utility.yul\":18393:18396   */\n      dup2\n        /* \"#utility.yul\":18385:18396   */\n      swap1\n      pop\n        /* \"#utility.yul\":18416:18419   */\n      dup2\n        /* \"#utility.yul\":18413:18414   */\n      0x00\n        /* \"#utility.yul\":18406:18420   */\n      mstore\n        /* \"#utility.yul\":18450:18454   */\n      0x20\n        /* \"#utility.yul\":18447:18448   */\n      0x00\n        /* \"#utility.yul\":18437:18455   */\n      keccak256\n        /* \"#utility.yul\":18429:18455   */\n      swap1\n      pop\n        /* \"#utility.yul\":18321:18462   */\n      swap2\n      swap1\n      pop\n      jump\t// out\n        /* \"#utility.yul\":18468:18561   */\n    tag_176:\n        /* \"#utility.yul\":18505:18511   */\n      0x00\n        /* \"#utility.yul\":18552:18554   */\n      0x20\n        /* \"#utility.yul\":18547:18549   */\n      0x1f\n        /* \"#utility.yul\":18540:18545   */\n      dup4\n        /* \"#utility.yul\":18536:18550   */\n      add\n        /* \"#utility.yul\":18532:18555   */\n      div\n        /* \"#utility.yul\":18522:18555   */\n      swap1\n      pop\n        /* \"#utility.yul\":18468:18561   */\n      swap2\n      swap1\n      pop\n      jump\t// out\n        /* \"#utility.yul\":18567:18674   */\n    tag_177:\n        /* \"#utility.yul\":18611:18619   */\n      0x00\n        /* \"#utility.yul\":18661:18666   */\n      dup3\n        /* \"#utility.yul\":18655:18659   */\n      dup3\n        /* \"#utility.yul\":18651:18667   */\n      shl\n        /* \"#utility.yul\":18630:18667   */\n      swap1\n      pop\n        /* \"#utility.yul\":18567:18674   */\n      swap3\n      swap2\n      pop\n      pop\n      jump\t// out\n        /* \"#utility.yul\":18680:19073   */\n    tag_178:\n        /* \"#utility.yul\":18749:18755   */\n      0x00\n        /* \"#utility.yul\":18799:18800   */\n      0x08\n        /* \"#utility.yul\":18787:18797   */\n      dup4\n        /* \"#utility.yul\":18783:18801   */\n      mul\n        /* \"#utility.yul\":18822:18919   */\n      tag_366\n        /* \"#utility.yul\":18852:18918   */\n      0xffffffffffffffffffffffffffffffffffffffffffffffffffffffffffffffff\n        /* \"#utility.yul\":18841:18850   */\n      dup3\n        /* \"#utility.yul\":18822:18919   */\n      tag_177\n      jump\t// in\n    tag_366:\n        /* \"#utility.yul\":18940:18979   */\n      tag_367\n        /* \"#utility.yul\":18970:18978   */\n      dup7\n        /* \"#utility.yul\":18959:18968   */\n      dup4\n        /* \"#utility.yul\":18940:18979   */\n      tag_177\n      jump\t// in\n    tag_367:\n        /* \"#utility.yul\":18928:18979   */\n      swap6\n      pop\n        /* \"#utility.yul\":19012:19016   */\n      dup1\n        /* \"#utility.yul\":19008:19017   */\n      not\n        /* \"#utility.yul\":19001:19006   */\n      dup5\n        /* \"#utility.yul\":18997:19018   */\n      and\n        /* \"#utility.yul\":18988:19018   */\n      swap4\n      pop\n        /* \"#utility.yul\":19061:19065   */\n      dup1\n        /* \"#utility.yul\":19051:19059   */\n      dup7\n        /* \"#utility.yul\":19047:19066   */\n      and\n        /* \"#utility.yul\":19040:19045   */\n      dup5\n        /* \"#utility.yul\":19037:19067   */\n      or\n        /* \"#utility.yul\":19027:19067   */\n      swap3\n      pop\n        /* \"#utility.yul\":18756:19073   */\n      pop\n      pop\n        /* \"#utility.yul\":18680:19073   */\n      swap4\n      swap3\n      pop\n      pop\n      pop\n      jump\t// out\n        /* \"#utility.yul\":19079:19139   */\n    tag_179:\n        /* \"#utility.yul\":19107:19110   */\n      0x00\n        /* \"#utility.yul\":19128:19133   */\n      dup2\n        /* \"#utility.yul\":19121:19133   */\n      swap1\n      pop\n        /* \"#utility.yul\":19079:19139   */\n      swap2\n      swap1\n      pop\n      jump\t// out\n        /* \"#utility.yul\":19145:19287   */\n    tag_180:\n        /* \"#utility.yul\":19195:19204   */\n      0x00\n        /* \"#utility.yul\":19228:19281   */\n      tag_370\n        /* \"#utility.yul\":19246:19280   */\n      tag_371\n        /* \"#utility.yul\":19255:19279   */\n      tag_372\n        /* \"#utility.yul\":19273:19278   */\n      dup5\n        /* \"#utility.yul\":19255:19279   */\n      tag_128\n      jump\t// in\n    tag_372:\n        /* \"#utility.yul\":19246:19280   */\n      tag_179\n      jump\t// in\n    tag_371:\n        /* \"#utility.yul\":19228:19281   */\n      tag_128\n      jump\t// in\n    tag_370:\n        /* \"#utility.yul\":19215:19281   */\n      swap1\n      pop\n        /* \"#utility.yul\":19145:19287   */\n      swap2\n      swap1\n      pop\n      jump\t// out\n        /* \"#utility.yul\":19293:19368   */\n    tag_181:\n        /* \"#utility.yul\":19336:19339   */\n      0x00\n        /* \"#utility.yul\":19357:19362   */\n      dup2\n        /* \"#utility.yul\":19350:19362   */\n      swap1\n      pop\n        /* \"#utility.yul\":19293:19368   */\n      swap2\n      swap1\n      pop\n      jump\t// out\n        /* \"#utility.yul\":19374:19643   */\n    tag_182:\n        /* \"#utility.yul\":19484:19523   */\n      tag_375\n        /* \"#utility.yul\":19515:19522   */\n      dup4\n        /* \"#utility.yul\":19484:19523   */\n      tag_180\n      jump\t// in\n    tag_375:\n        /* \"#utility.yul\":19545:19636   */\n      tag_376\n        /* \"#utility.yul\":19594:19635   */\n      tag_377\n        /* \"#utility.yul\":19618:19634   */\n      dup3\n        /* \"#utility.yul\":19594:19635   */\n      tag_181\n      jump\t// in\n    tag_377:\n        /* \"#utility.yul\":19586:19592   */\n      dup5\n        /* \"#utility.yul\":19579:19583   */\n      dup5\n        /* \"#utility.yul\":19573:19584   */\n      sload\n        /* \"#utility.yul\":19545:19636   */\n      tag_178\n      jump\t// in\n    tag_376:\n        /* \"#utility.yul\":19539:19543   */\n      dup3\n        /* \"#utility.yul\":19532:19637   */\n      sstore\n        /* \"#utility.yul\":19450:19643   */\n      pop\n        /* \"#utility.yul\":19374:19643   */\n      pop\n      pop\n      pop\n      jump\t// out\n        /* \"#utility.yul\":19649:19722   */\n    tag_183:\n        /* \"#utility.yul\":19694:19697   */\n      0x00\n        /* \"#utility.yul\":19649:19722   */\n      swap1\n      jump\t// out\n        /* \"#utility.yul\":19728:19917   */\n    tag_184:\n        /* \"#utility.yul\":19805:19837   */\n      tag_380\n      tag_183\n      jump\t// in\n    tag_380:\n        /* \"#utility.yul\":19846:19911   */\n      tag_381\n        /* \"#utility.yul\":19904:19910   */\n      dup2\n        /* \"#utility.yul\":19896:19902   */\n      dup5\n        /* \"#utility.yul\":19890:19894   */\n      dup5\n        /* \"#utility.yul\":19846:19911   */\n      tag_182\n      jump\t// in\n    tag_381:\n        /* \"#utility.yul\":19781:19917   */\n      pop\n        /* \"#utility.yul\":19728:19917   */\n      pop\n      pop\n      jump\t// out\n        /* \"#utility.yul\":19923:20109   */\n    tag_185:\n        /* \"#utility.yul\":19983:20103   */\n    tag_383:\n        /* \"#utility.yul\":20000:20003   */\n      dup2\n        /* \"#utility.yul\":19993:19998   */\n      dup2\n        /* \"#utility.yul\":19990:20004   */\n      lt\n        /* \"#utility.yul\":19983:20103   */\n      iszero\n      tag_385\n      jumpi\n        /* \"#utility.yul\":20054:20093   */\n      tag_386\n        /* \"#utility.yul\":20091:20092   */\n      0x00\n        /* \"#utility.yul\":20084:20089   */\n      dup3\n        /* \"#utility.yul\":20054:20093   */\n      tag_184\n      jump\t// in\n    tag_386:\n        /* \"#utility.yul\":20027:20028   */\n      0x01\n        /* \"#utility.yul\":20020:20025   */\n      dup2\n        /* \"#utility.yul\":20016:20029   */\n      add\n        /* \"#utility.yul\":20007:20029   */\n      swap1\n      pop\n        /* \"#utility.yul\":19983:20103   */\n      jump(tag_383)\n    tag_385:\n        /* \"#utility.yul\":19923:20109   */\n      pop\n      pop\n      jump\t// out\n        /* \"#utility.yul\":20115:20658   */\n    tag_186:\n        /* \"#utility.yul\":20216:20218   */\n      0x1f\n        /* \"#utility.yul\":20211:20214   */\n      dup3\n        /* \"#utility.yul\":20208:20219   */\n      gt\n        /* \"#utility.yul\":20205:20651   */\n      iszero\n      tag_388\n      jumpi\n        /* \"#utility.yul\":20250:20288   */\n      tag_389\n        /* \"#utility.yul\":20282:20287   */\n      dup2\n        /* \"#utility.yul\":20250:20288   */\n      tag_175\n      jump\t// in\n    tag_389:\n        /* \"#utility.yul\":20334:20363   */\n      tag_390\n        /* \"#utility.yul\":20352:20362   */\n      dup5\n        /* \"#utility.yul\":20334:20363   */\n      tag_176\n      jump\t// in\n    tag_390:\n        /* \"#utility.yul\":20324:20332   */\n      dup2\n        /* \"#utility.yul\":20320:20364   */\n      add\n        /* \"#utility.yul\":20517:20519   */\n      0x20\n        /* \"#utility.yul\":20505:20515   */\n      dup6\n        /* \"#utility.yul\":20502:20520   */\n      lt\n        /* \"#utility.yul\":20499:20548   */\n      iszero\n      tag_391\n      jumpi\n        /* \"#utility.yul\":20538:20546   */\n      dup2\n        /* \"#utility.yul\":20523:20546   */\n      swap1\n      pop\n        /* \"#utility.yul\":20499:20548   */\n    tag_391:\n        /* \"#utility.yul\":20561:20641   */\n      tag_392\n        /* \"#utility.yul\":20617:20639   */\n      tag_393\n        /* \"#utility.yul\":20635:20638   */\n      dup6\n        /* \"#utility.yul\":20617:20639   */\n      tag_176\n      jump\t// in\n    tag_393:\n        /* \"#utility.yul\":20607:20615   */\n      dup4\n        /* \"#utility.yul\":20603:20640   */\n      add\n        /* \"#utility.yul\":20590:20601   */\n      dup3\n        /* \"#utility.yul\":20561:20641   */\n      tag_185\n      jump\t// in\n    tag_392:\n        /* \"#utility.yul\":20220:20651   */\n      pop\n      pop\n        /* \"#utility.yul\":20205:20651   */\n    tag_388:\n        /* \"#utility.yul\":20115:20658   */\n      pop\n      pop\n      pop\n      jump\t// out\n        /* \"#utility.yul\":20664:20781   */\n    tag_187:\n        /* \"#utility.yul\":20718:20726   */\n      0x00\n        /* \"#utility.yul\":20768:20773   */\n      dup3\n        /* \"#utility.yul\":20762:20766   */\n      dup3\n        /* \"#utility.yul\":20758:20774   */\n      shr\n        /* \"#utility.yul\":20737:20774   */\n      swap1\n      pop\n        /* \"#utility.yul\":20664:20781   */\n      swap3\n      swap2\n      pop\n      pop\n      jump\t// out\n        /* \"#utility.yul\":20787:20956   */\n    tag_188:\n        /* \"#utility.yul\":20831:20837   */\n      0x00\n        /* \"#utility.yul\":20864:20915   */\n      tag_396\n        /* \"#utility.yul\":20912:20913   */\n      0x00\n        /* \"#utility.yul\":20908:20914   */\n      not\n        /* \"#utility.yul\":20900:20905   */\n      dup5\n        /* \"#utility.yul\":20897:20898   */\n      0x08\n        /* \"#utility.yul\":20893:20906   */\n      mul\n        /* \"#utility.yul\":20864:20915   */\n      tag_187\n      jump\t// in\n    tag_396:\n        /* \"#utility.yul\":20860:20916   */\n      not\n        /* \"#utility.yul\":20945:20949   */\n      dup1\n        /* \"#utility.yul\":20939:20943   */\n      dup4\n        /* \"#utility.yul\":20935:20950   */\n      and\n        /* \"#utility.yul\":20925:20950   */\n      swap2\n      pop\n        /* \"#utility.yul\":20838:20956   */\n      pop\n        /* \"#utility.yul\":20787:20956   */\n      swap3\n      swap2\n      pop\n      pop\n      jump\t// out\n        /* \"#utility.yul\":20961:21256   */\n    tag_189:\n        /* \"#utility.yul\":21037:21041   */\n      0x00\n        /* \"#utility.yul\":21183:21212   */\n      tag_398\n        /* \"#utility.yul\":21208:21211   */\n      dup4\n        /* \"#utility.yul\":21202:21206   */\n      dup4\n        /* \"#utility.yul\":21183:21212   */\n      tag_188\n      jump\t// in\n    tag_398:\n        /* \"#utility.yul\":21175:21212   */\n      swap2\n      pop\n        /* \"#utility.yul\":21245:21248   */\n      dup3\n        /* \"#utility.yul\":21242:21243   */\n      0x02\n        /* \"#utility.yul\":21238:21249   */\n      mul\n        /* \"#utility.yul\":21232:21236   */\n      dup3\n        /* \"#utility.yul\":21229:21250   */\n      or\n        /* \"#utility.yul\":21221:21250   */\n      swap1\n      pop\n        /* \"#utility.yul\":20961:21256   */\n      swap3\n      swap2\n      pop\n      pop\n      jump\t// out\n        /* \"#utility.yul\":21261:22656   */\n    tag_87:\n        /* \"#utility.yul\":21378:21415   */\n      tag_400\n        /* \"#utility.yul\":21411:21414   */\n      dup3\n        /* \"#utility.yul\":21378:21415   */\n      tag_151\n      jump\t// in\n    tag_400:\n        /* \"#utility.yul\":21480:21498   */\n      0xffffffffffffffff\n        /* \"#utility.yul\":21472:21478   */\n      dup2\n        /* \"#utility.yul\":21469:21499   */\n      gt\n        /* \"#utility.yul\":21466:21522   */\n      iszero\n      tag_401\n      jumpi\n        /* \"#utility.yul\":21502:21520   */\n      tag_402\n      tag_138\n      jump\t// in\n    tag_402:\n        /* \"#utility.yul\":21466:21522   */\n    tag_401:\n        /* \"#utility.yul\":21546:21584   */\n      tag_403\n        /* \"#utility.yul\":21578:21582   */\n      dup3\n        /* \"#utility.yul\":21572:21583   */\n      sload\n        /* \"#utility.yul\":21546:21584   */\n      tag_96\n      jump\t// in\n    tag_403:\n        /* \"#utility.yul\":21631:21698   */\n      tag_404\n        /* \"#utility.yul\":21691:21697   */\n      dup3\n        /* \"#utility.yul\":21683:21689   */\n      dup3\n        /* \"#utility.yul\":21677:21681   */\n      dup6\n        /* \"#utility.yul\":21631:21698   */\n      tag_186\n      jump\t// in\n    tag_404:\n        /* \"#utility.yul\":21725:21726   */\n      0x00\n        /* \"#utility.yul\":21749:21753   */\n      0x20\n        /* \"#utility.yul\":21736:21753   */\n      swap1\n      pop\n        /* \"#utility.yul\":21781:21783   */\n      0x1f\n        /* \"#utility.yul\":21773:21779   */\n      dup4\n        /* \"#utility.yul\":21770:21784   */\n      gt\n        /* \"#utility.yul\":21798:21799   */\n      0x01\n        /* \"#utility.yul\":21793:22411   */\n      dup2\n      eq\n      tag_406\n      jumpi\n        /* \"#utility.yul\":22455:22456   */\n      0x00\n        /* \"#utility.yul\":22472:22478   */\n      dup5\n        /* \"#utility.yul\":22469:22546   */\n      iszero\n      tag_407\n      jumpi\n        /* \"#utility.yul\":22521:22530   */\n      dup3\n        /* \"#utility.yul\":22516:22519   */\n      dup8\n        /* \"#utility.yul\":22512:22531   */\n      add\n        /* \"#utility.yul\":22506:22532   */\n      mload\n        /* \"#utility.yul\":22497:22532   */\n      swap1\n      pop\n        /* \"#utility.yul\":22469:22546   */\n    tag_407:\n        /* \"#utility.yul\":22572:22639   */\n      tag_408\n        /* \"#utility.yul\":22632:22638   */\n      dup6\n        /* \"#utility.yul\":22625:22630   */\n      dup3\n        /* \"#utility.yul\":22572:22639   */\n      tag_189\n      jump\t// in\n    tag_408:\n        /* \"#utility.yul\":22566:22570   */\n      dup7\n        /* \"#utility.yul\":22559:22640   */\n      sstore\n        /* \"#utility.yul\":22428:22650   */\n      pop\n        /* \"#utility.yul\":21763:22650   */\n      jump(tag_405)\n        /* \"#utility.yul\":21793:22411   */\n    tag_406:\n        /* \"#utility.yul\":21845:21849   */\n      0x1f\n        /* \"#utility.yul\":21841:21850   */\n      not\n        /* \"#utility.yul\":21833:21839   */\n      dup5\n        /* \"#utility.yul\":21829:21851   */\n      and\n        /* \"#utility.yul\":21879:21916   */\n      tag_409\n        /* \"#utility.yul\":21911:21915   */\n      dup7\n        /* \"#utility.yul\":21879:21916   */\n      tag_175\n      jump\t// in\n    tag_409:\n        /* \"#utility.yul\":21938:21939   */\n      0x00\n        /* \"#utility.yul\":21952:22160   */\n    tag_410:\n        /* \"#utility.yul\":21966:21973   */\n      dup3\n        /* \"#utility.yul\":21963:21964   */\n      dup2\n        /* \"#utility.yul\":21960:21974   */\n      lt\n        /* \"#utility.yul\":21952:22160   */\n      iszero\n      tag_412\n      jumpi\n        /* \"#utility.yul\":22045:22054   */\n      dup5\n        /* \"#utility.yul\":22040:22043   */\n      dup10\n        /* \"#utility.yul\":22036:22055   */\n      add\n        /* \"#utility.yul\":22030:22056   */\n      mload\n        /* \"#utility.yul\":22022:22028   */\n      dup3\n        /* \"#utility.yul\":22015:22057   */\n      sstore\n        /* \"#utility.yul\":22096:22097   */\n      0x01\n        /* \"#utility.yul\":22088:22094   */\n      dup3\n        /* \"#utility.yul\":22084:22098   */\n      add\n        /* \"#utility.yul\":22074:22098   */\n      swap2\n      pop\n        /* \"#utility.yul\":22143:22145   */\n      0x20\n        /* \"#utility.yul\":22132:22141   */\n      dup6\n        /* \"#utility.yul\":22128:22146   */\n      add\n        /* \"#utility.yul\":22115:22146   */\n      swap5\n      pop\n        /* \"#utility.yul\":21989:21993   */\n      0x20\n        /* \"#utility.yul\":21986:21987   */\n      dup2\n        /* \"#utility.yul\":21982:21994   */\n      add\n        /* \"#utility.yul\":21977:21994   */\n      swap1\n      pop\n        /* \"#utility.yul\":21952:22160   */\n      jump(tag_410)\n    tag_412:\n        /* \"#utility.yul\":22188:22194   */\n      dup7\n        /* \"#utility.yul\":22179:22186   */\n      dup4\n        /* \"#utility.yul\":22176:22195   */\n      lt\n        /* \"#utility.yul\":22173:22352   */\n      iszero\n      tag_413\n      jumpi\n        /* \"#utility.yul\":22246:22255   */\n      dup5\n        /* \"#utility.yul\":22241:22244   */\n      dup10\n        /* \"#utility.yul\":22237:22256   */\n      add\n        /* \"#utility.yul\":22231:22257   */\n      mload\n        /* \"#utility.yul\":22289:22337   */\n      tag_414\n        /* \"#utility.yul\":22331:22335   */\n      0x1f\n        /* \"#utility.yul\":22323:22329   */\n      dup10\n        /* \"#utility.yul\":22319:22336   */\n      and\n        /* \"#utility.yul\":22308:22317   */\n      dup3\n        /* \"#utility.yul\":22289:22337   */\n      tag_188\n      jump\t// in\n    tag_414:\n        /* \"#utility.yul\":22281:22287   */\n      dup4\n        /* \"#utility.yul\":22274:22338   */\n      sstore\n        /* \"#utility.yul\":22196:22352   */\n      pop\n        /* \"#utility.yul\":22173:22352   */\n    tag_413:\n        /* \"#utility.yul\":22398:22399   */\n      0x01\n        /* \"#utility.yul\":22394:22395   */\n      0x02\n        /* \"#utility.yul\":22386:22392   */\n      dup9\n        /* \"#utility.yul\":22382:22396   */\n      mul\n        /* \"#utility.yul\":22378:22400   */\n      add\n        /* \"#utility.yul\":22372:22376   */\n      dup9\n        /* \"#utility.yul\":22365:22401   */\n      sstore\n        /* \"#utility.yul\":21800:22411   */\n      pop\n      pop\n      pop\n        /* \"#utility.yul\":21763:22650   */\n    tag_405:\n      pop\n        /* \"#utility.yul\":21353:22656   */\n      pop\n      pop\n      pop\n        /* \"#utility.yul\":21261:22656   */\n      pop\n      pop\n      jump\t// out\n        /* \"#utility.yul\":22662:23306   */\n    tag_89:\n        /* \"#utility.yul\":22859:22863   */\n      0x00\n        /* \"#utility.yul\":22897:22900   */\n      0x80\n        /* \"#utility.yul\":22886:22895   */\n      dup3\n        /* \"#utility.yul\":22882:22901   */\n      add\n        /* \"#utility.yul\":22874:22901   */\n      swap1\n      pop\n        /* \"#utility.yul\":22911:22982   */\n      tag_416\n        /* \"#utility.yul\":22979:22980   */\n      0x00\n        /* \"#utility.yul\":22968:22977   */\n      dup4\n        /* \"#utility.yul\":22964:22981   */\n      add\n        /* \"#utility.yul\":22955:22961   */\n      dup8\n        /* \"#utility.yul\":22911:22982   */\n      tag_161\n      jump\t// in\n    tag_416:\n        /* \"#utility.yul\":22992:23064   */\n      tag_417\n        /* \"#utility.yul\":23060:23062   */\n      0x20\n        /* \"#utility.yul\":23049:23058   */\n      dup4\n        /* \"#utility.yul\":23045:23063   */\n      add\n        /* \"#utility.yul\":23036:23042   */\n      dup7\n        /* \"#utility.yul\":22992:23064   */\n      tag_161\n      jump\t// in\n    tag_417:\n        /* \"#utility.yul\":23111:23120   */\n      dup2\n        /* \"#utility.yul\":23105:23109   */\n      dup2\n        /* \"#utility.yul\":23101:23121   */\n      sub\n        /* \"#utility.yul\":23096:23098   */\n      0x40\n        /* \"#utility.yul\":23085:23094   */\n      dup4\n        /* \"#utility.yul\":23081:23099   */\n      add\n        /* \"#utility.yul\":23074:23122   */\n      mstore\n        /* \"#utility.yul\":23139:23217   */\n      tag_418\n        /* \"#utility.yul\":23212:23216   */\n      dup2\n        /* \"#utility.yul\":23203:23209   */\n      dup6\n        /* \"#utility.yul\":23139:23217   */\n      tag_163\n      jump\t// in\n    tag_418:\n        /* \"#utility.yul\":23131:23217   */\n      swap1\n      pop\n        /* \"#utility.yul\":23227:23299   */\n      tag_419\n        /* \"#utility.yul\":23295:23297   */\n      0x60\n        /* \"#utility.yul\":23284:23293   */\n      dup4\n        /* \"#utility.yul\":23280:23298   */\n      add\n        /* \"#utility.yul\":23271:23277   */\n      dup5\n        /* \"#utility.yul\":23227:23299   */\n      tag_161\n      jump\t// in\n    tag_419:\n        /* \"#utility.yul\":22662:23306   */\n      swap6\n      swap5\n      pop\n      pop\n      pop\n      pop\n      pop\n      jump\t// out\n\n    auxdata: 0xa264697066735822122095f9fd536e164eca1ac0337de9569b503c6e7877b7e49e0666cc2a06fb22016f64736f6c634300081a0033\n}\n",
				"bytecode": {
					"linkReferences": {},
					"object": "608060405234801561000f575f80fd5b50604051611b0d380380611b0d833981810160405281019061003191906101d7565b805f73ffffffffffffffffffffffffffffffffffffffff168173ffffffffffffffffffffffffffffffffffffffff16036100a2575f6040517f1e4fbdf70000000000000000000000000000000000000000000000000000000081526004016100999190610211565b60405180910390fd5b6100b1816100b860201b60201c565b505061022a565b5f805f9054906101000a900473ffffffffffffffffffffffffffffffffffffffff169050815f806101000a81548173ffffffffffffffffffffffffffffffffffffffff021916908373ffffffffffffffffffffffffffffffffffffffff1602179055508173ffffffffffffffffffffffffffffffffffffffff168173ffffffffffffffffffffffffffffffffffffffff167f8be0079c531659141344cd1fd0a4f28419497f9722a3daafe3b4186f6b6457e060405160405180910390a35050565b5f80fd5b5f73ffffffffffffffffffffffffffffffffffffffff82169050919050565b5f6101a68261017d565b9050919050565b6101b68161019c565b81146101c0575f80fd5b50565b5f815190506101d1816101ad565b92915050565b5f602082840312156101ec576101eb610179565b5b5f6101f9848285016101c3565b91505092915050565b61020b8161019c565b82525050565b5f6020820190506102245f830184610202565b92915050565b6118d6806102375f395ff3fe60806040526004361061006f575f3560e01c80638da5cb5b1161004d5780638da5cb5b146100cd578063a5bfd16a146100f7578063e1ec3c6814610121578063f2fde38b146101645761006f565b8063715018a61461007357806381ae108e146100895780638acdb035146100b1575b5f80fd5b34801561007e575f80fd5b5061008761018c565b005b348015610094575f80fd5b506100af60048036038101906100aa9190610d63565b61019f565b005b6100cb60048036038101906100c69190610f24565b61044f565b005b3480156100d8575f80fd5b506100e161071e565b6040516100ee9190610fd8565b60405180910390f35b348015610102575f80fd5b5061010b610745565b60405161011891906111f1565b60405180910390f35b34801561012c575f80fd5b5061014760048036038101906101429190610d63565b610968565b60405161015b989796959493929190611277565b60405180910390f35b34801561016f575f80fd5b5061018a600480360381019061018591906112fa565b610aaa565b005b610194610b2e565b61019d5f610bb5565b565b6101a7610b2e565b5f811180156101bb57506002805490508111155b6101fa576040517f08c379a00000000000000000000000000000000000000000000000000000000081526004016101f19061136f565b60405180910390fd5b5f600260018361020a91906113ba565b8154811061021b5761021a6113ed565b5b905f5260205f2090600802019050806007015f9054906101000a900460ff161561027a576040517f08c379a000000000000000000000000000000000000000000000000000000000815260040161027190611464565b60405180910390fd5b6001816007015f6101000a81548160ff021916908315150217905550806003015f9054906101000a900473ffffffffffffffffffffffffffffffffffffffff1673ffffffffffffffffffffffffffffffffffffffff1663a9059cbb826002015f9054906101000a900473ffffffffffffffffffffffffffffffffffffffff1683600401546040518363ffffffff1660e01b815260040161031b929190611482565b6020604051808303815f875af1158015610337573d5f803e3d5ffd5b505050506040513d601f19601f8201168201806040525081019061035b91906114d3565b61039a576040517f08c379a000000000000000000000000000000000000000000000000000000000815260040161039190611548565b60405180910390fd5b806001015f9054906101000a900473ffffffffffffffffffffffffffffffffffffffff1673ffffffffffffffffffffffffffffffffffffffff16816002015f9054906101000a900473ffffffffffffffffffffffffffffffffffffffff1673ffffffffffffffffffffffffffffffffffffffff167f9b1e4a3e564e29a165c2bc2add6a4a310a9070d6a908e2c54661b76c1fb32ef6848460040154604051610443929190611566565b60405180910390a35050565b610457610b2e565b6104616001610c76565b5f61046c6001610c8a565b9050610476610c9d565b81815f01818152505086816020019073ffffffffffffffffffffffffffffffffffffffff16908173ffffffffffffffffffffffffffffffffffffffff168152505087816040019073ffffffffffffffffffffffffffffffffffffffff16908173ffffffffffffffffffffffffffffffffffffffff168152505085816060019073ffffffffffffffffffffffffffffffffffffffff16908173ffffffffffffffffffffffffffffffffffffffff168152505084816080018181525050838160a00181905250828160c0018181525050600281908060018154018082558091505060019003905f5260205f2090600802015f909190919091505f820151815f01556020820151816001015f6101000a81548173ffffffffffffffffffffffffffffffffffffffff021916908373ffffffffffffffffffffffffffffffffffffffff1602179055506040820151816002015f6101000a81548173ffffffffffffffffffffffffffffffffffffffff021916908373ffffffffffffffffffffffffffffffffffffffff1602179055506060820151816003015f6101000a81548173ffffffffffffffffffffffffffffffffffffffff021916908373ffffffffffffffffffffffffffffffffffffffff1602179055506080820151816004015560a08201518160050190816106669190611787565b5060c0820151816006015560e0820151816007015f6101000a81548160ff02191690831515021790555050508573ffffffffffffffffffffffffffffffffffffffff168873ffffffffffffffffffffffffffffffffffffffff168873ffffffffffffffffffffffffffffffffffffffff167fc78bdcaf3378384d924b5b97d40513067ac0127e564e504c88d7f0ef78db15bf8589898960405161070c9493929190611856565b60405180910390a45050505050505050565b5f805f9054906101000a900473ffffffffffffffffffffffffffffffffffffffff16905090565b60606002805480602002602001604051908101604052809291908181526020015f905b8282101561095f578382905f5260205f209060080201604051806101000160405290815f8201548152602001600182015f9054906101000a900473ffffffffffffffffffffffffffffffffffffffff1673ffffffffffffffffffffffffffffffffffffffff1673ffffffffffffffffffffffffffffffffffffffff168152602001600282015f9054906101000a900473ffffffffffffffffffffffffffffffffffffffff1673ffffffffffffffffffffffffffffffffffffffff1673ffffffffffffffffffffffffffffffffffffffff168152602001600382015f9054906101000a900473ffffffffffffffffffffffffffffffffffffffff1673ffffffffffffffffffffffffffffffffffffffff1673ffffffffffffffffffffffffffffffffffffffff168152602001600482015481526020016005820180546108ac906115ba565b80601f01602080910402602001604051908101604052809291908181526020018280546108d8906115ba565b80156109235780601f106108fa57610100808354040283529160200191610923565b820191905f5260205f20905b81548152906001019060200180831161090657829003601f168201915b5050505050815260200160068201548152602001600782015f9054906101000a900460ff16151515158152505081526020019060010190610768565b50505050905090565b60028181548110610977575f80fd5b905f5260205f2090600802015f91509050805f015490806001015f9054906101000a900473ffffffffffffffffffffffffffffffffffffffff1690806002015f9054906101000a900473ffffffffffffffffffffffffffffffffffffffff1690806003015f9054906101000a900473ffffffffffffffffffffffffffffffffffffffff1690806004015490806005018054610a11906115ba565b80601f0160208091040260200160405190810160405280929190818152602001828054610a3d906115ba565b8015610a885780601f10610a5f57610100808354040283529160200191610a88565b820191905f5260205f20905b815481529060010190602001808311610a6b57829003601f168201915b505050505090806006015490806007015f9054906101000a900460ff16905088565b610ab2610b2e565b5f73ffffffffffffffffffffffffffffffffffffffff168173ffffffffffffffffffffffffffffffffffffffff1603610b22575f6040517f1e4fbdf7000000000000000000000000000000000000000000000000000000008152600401610b199190610fd8565b60405180910390fd5b610b2b81610bb5565b50565b610b36610c96565b73ffffffffffffffffffffffffffffffffffffffff16610b5461071e565b73ffffffffffffffffffffffffffffffffffffffff1614610bb357610b77610c96565b6040517f118cdaa7000000000000000000000000000000000000000000000000000000008152600401610baa9190610fd8565b60405180910390fd5b565b5f805f9054906101000a900473ffffffffffffffffffffffffffffffffffffffff169050815f806101000a81548173ffffffffffffffffffffffffffffffffffffffff021916908373ffffffffffffffffffffffffffffffffffffffff1602179055508173ffffffffffffffffffffffffffffffffffffffff168173ffffffffffffffffffffffffffffffffffffffff167f8be0079c531659141344cd1fd0a4f28419497f9722a3daafe3b4186f6b6457e060405160405180910390a35050565b6001815f015f828254019250508190555050565b5f815f01549050919050565b5f33905090565b6040518061010001604052805f81526020015f73ffffffffffffffffffffffffffffffffffffffff1681526020015f73ffffffffffffffffffffffffffffffffffffffff1681526020015f73ffffffffffffffffffffffffffffffffffffffff1681526020015f8152602001606081526020015f81526020015f151581525090565b5f604051905090565b5f80fd5b5f80fd5b5f819050919050565b610d4281610d30565b8114610d4c575f80fd5b50565b5f81359050610d5d81610d39565b92915050565b5f60208284031215610d7857610d77610d28565b5b5f610d8584828501610d4f565b91505092915050565b5f73ffffffffffffffffffffffffffffffffffffffff82169050919050565b5f610db782610d8e565b9050919050565b610dc781610dad565b8114610dd1575f80fd5b50565b5f81359050610de281610dbe565b92915050565b5f80fd5b5f80fd5b5f601f19601f8301169050919050565b7f4e487b71000000000000000000000000000000000000000000000000000000005f52604160045260245ffd5b610e3682610df0565b810181811067ffffffffffffffff82111715610e5557610e54610e00565b5b80604052505050565b5f610e67610d1f565b9050610e738282610e2d565b919050565b5f67ffffffffffffffff821115610e9257610e91610e00565b5b610e9b82610df0565b9050602081019050919050565b828183375f83830152505050565b5f610ec8610ec384610e78565b610e5e565b905082815260208101848484011115610ee457610ee3610dec565b5b610eef848285610ea8565b509392505050565b5f82601f830112610f0b57610f0a610de8565b5b8135610f1b848260208601610eb6565b91505092915050565b5f805f805f8060c08789031215610f3e57610f3d610d28565b5b5f610f4b89828a01610dd4565b9650506020610f5c89828a01610dd4565b9550506040610f6d89828a01610dd4565b9450506060610f7e89828a01610d4f565b935050608087013567ffffffffffffffff811115610f9f57610f9e610d2c565b5b610fab89828a01610ef7565b92505060a0610fbc89828a01610d4f565b9150509295509295509295565b610fd281610dad565b82525050565b5f602082019050610feb5f830184610fc9565b92915050565b5f81519050919050565b5f82825260208201905092915050565b5f819050602082019050919050565b61102381610d30565b82525050565b61103281610dad565b82525050565b5f81519050919050565b5f82825260208201905092915050565b8281835e5f83830152505050565b5f61106a82611038565b6110748185611042565b9350611084818560208601611052565b61108d81610df0565b840191505092915050565b5f8115159050919050565b6110ac81611098565b82525050565b5f61010083015f8301516110c85f86018261101a565b5060208301516110db6020860182611029565b5060408301516110ee6040860182611029565b5060608301516111016060860182611029565b506080830151611114608086018261101a565b5060a083015184820360a086015261112c8282611060565b91505060c083015161114160c086018261101a565b5060e083015161115460e08601826110a3565b508091505092915050565b5f61116a83836110b2565b905092915050565b5f602082019050919050565b5f61118882610ff1565b6111928185610ffb565b9350836020820285016111a48561100b565b805f5b858110156111df57848403895281516111c0858261115f565b94506111cb83611172565b925060208a019950506001810190506111a7565b50829750879550505050505092915050565b5f6020820190508181035f830152611209818461117e565b905092915050565b61121a81610d30565b82525050565b5f82825260208201905092915050565b5f61123a82611038565b6112448185611220565b9350611254818560208601611052565b61125d81610df0565b840191505092915050565b61127181611098565b82525050565b5f6101008201905061128b5f83018b611211565b611298602083018a610fc9565b6112a56040830189610fc9565b6112b26060830188610fc9565b6112bf6080830187611211565b81810360a08301526112d18186611230565b90506112e060c0830185611211565b6112ed60e0830184611268565b9998505050505050505050565b5f6020828403121561130f5761130e610d28565b5b5f61131c84828501610dd4565b91505092915050565b7f4c6f616e20494420646f6573206e6f74206578697374000000000000000000005f82015250565b5f611359601683611220565b915061136482611325565b602082019050919050565b5f6020820190508181035f8301526113868161134d565b9050919050565b7f4e487b71000000000000000000000000000000000000000000000000000000005f52601160045260245ffd5b5f6113c482610d30565b91506113cf83610d30565b92508282039050818111156113e7576113e661138d565b5b92915050565b7f4e487b71000000000000000000000000000000000000000000000000000000005f52603260045260245ffd5b7f4c6f616e20697320616c726561647920636c6f736564000000000000000000005f82015250565b5f61144e601683611220565b91506114598261141a565b602082019050919050565b5f6020820190508181035f83015261147b81611442565b9050919050565b5f6040820190506114955f830185610fc9565b6114a26020830184611211565b9392505050565b6114b281611098565b81146114bc575f80fd5b50565b5f815190506114cd816114a9565b92915050565b5f602082840312156114e8576114e7610d28565b5b5f6114f5848285016114bf565b91505092915050565b7f436f6c6c61746572616c207472616e73666572206661696c65640000000000005f82015250565b5f611532601a83611220565b915061153d826114fe565b602082019050919050565b5f6020820190508181035f83015261155f81611526565b9050919050565b5f6040820190506115795f830185611211565b6115866020830184611211565b9392505050565b7f4e487b71000000000000000000000000000000000000000000000000000000005f52602260045260245ffd5b5f60028204905060018216806115d157607f821691505b6020821081036115e4576115e361158d565b5b50919050565b5f819050815f5260205f209050919050565b5f6020601f8301049050919050565b5f82821b905092915050565b5f600883026116467fffffffffffffffffffffffffffffffffffffffffffffffffffffffffffffffff8261160b565b611650868361160b565b95508019841693508086168417925050509392505050565b5f819050919050565b5f61168b61168661168184610d30565b611668565b610d30565b9050919050565b5f819050919050565b6116a483611671565b6116b86116b082611692565b848454611617565b825550505050565b5f90565b6116cc6116c0565b6116d781848461169b565b505050565b5b818110156116fa576116ef5f826116c4565b6001810190506116dd565b5050565b601f82111561173f57611710816115ea565b611719846115fc565b81016020851015611728578190505b61173c611734856115fc565b8301826116dc565b50505b505050565b5f82821c905092915050565b5f61175f5f1984600802611744565b1980831691505092915050565b5f6117778383611750565b9150826002028217905092915050565b61179082611038565b67ffffffffffffffff8111156117a9576117a8610e00565b5b6117b382546115ba565b6117be8282856116fe565b5f60209050601f8311600181146117ef575f84156117dd578287015190505b6117e7858261176c565b86555061184e565b601f1984166117fd866115ea565b5f5b82811015611824578489015182556001820191506020850194506020810190506117ff565b86831015611841578489015161183d601f891682611750565b8355505b6001600288020188555050505b505050505050565b5f6080820190506118695f830187611211565b6118766020830186611211565b81810360408301526118888185611230565b90506118976060830184611211565b9594505050505056fea264697066735822122095f9fd536e164eca1ac0337de9569b503c6e7877b7e49e0666cc2a06fb22016f64736f6c634300081a0033",
					"opcodes": "PUSH1 0x80 PUSH1 0x40 MSTORE CALLVALUE DUP1 ISZERO PUSH2 0xF JUMPI PUSH0 DUP1 REVERT JUMPDEST POP PUSH1 0x40 MLOAD PUSH2 0x1B0D CODESIZE SUB DUP1 PUSH2 0x1B0D DUP4 CODECOPY DUP2 DUP2 ADD PUSH1 0x40 MSTORE DUP2 ADD SWAP1 PUSH2 0x31 SWAP2 SWAP1 PUSH2 0x1D7 JUMP JUMPDEST DUP1 PUSH0 PUSH20 0xFFFFFFFFFFFFFFFFFFFFFFFFFFFFFFFFFFFFFFFF AND DUP2 PUSH20 0xFFFFFFFFFFFFFFFFFFFFFFFFFFFFFFFFFFFFFFFF AND SUB PUSH2 0xA2 JUMPI PUSH0 PUSH1 0x40 MLOAD PUSH32 0x1E4FBDF700000000000000000000000000000000000000000000000000000000 DUP2 MSTORE PUSH1 0x4 ADD PUSH2 0x99 SWAP2 SWAP1 PUSH2 0x211 JUMP JUMPDEST PUSH1 0x40 MLOAD DUP1 SWAP2 SUB SWAP1 REVERT JUMPDEST PUSH2 0xB1 DUP2 PUSH2 0xB8 PUSH1 0x20 SHL PUSH1 0x20 SHR JUMP JUMPDEST POP POP PUSH2 0x22A JUMP JUMPDEST PUSH0 DUP1 PUSH0 SWAP1 SLOAD SWAP1 PUSH2 0x100 EXP SWAP1 DIV PUSH20 0xFFFFFFFFFFFFFFFFFFFFFFFFFFFFFFFFFFFFFFFF AND SWAP1 POP DUP2 PUSH0 DUP1 PUSH2 0x100 EXP DUP2 SLOAD DUP2 PUSH20 0xFFFFFFFFFFFFFFFFFFFFFFFFFFFFFFFFFFFFFFFF MUL NOT AND SWAP1 DUP4 PUSH20 0xFFFFFFFFFFFFFFFFFFFFFFFFFFFFFFFFFFFFFFFF AND MUL OR SWAP1 SSTORE POP DUP2 PUSH20 0xFFFFFFFFFFFFFFFFFFFFFFFFFFFFFFFFFFFFFFFF AND DUP2 PUSH20 0xFFFFFFFFFFFFFFFFFFFFFFFFFFFFFFFFFFFFFFFF AND PUSH32 0x8BE0079C531659141344CD1FD0A4F28419497F9722A3DAAFE3B4186F6B6457E0 PUSH1 0x40 MLOAD PUSH1 0x40 MLOAD DUP1 SWAP2 SUB SWAP1 LOG3 POP POP JUMP JUMPDEST PUSH0 DUP1 REVERT JUMPDEST PUSH0 PUSH20 0xFFFFFFFFFFFFFFFFFFFFFFFFFFFFFFFFFFFFFFFF DUP3 AND SWAP1 POP SWAP2 SWAP1 POP JUMP JUMPDEST PUSH0 PUSH2 0x1A6 DUP3 PUSH2 0x17D JUMP JUMPDEST SWAP1 POP SWAP2 SWAP1 POP JUMP JUMPDEST PUSH2 0x1B6 DUP2 PUSH2 0x19C JUMP JUMPDEST DUP2 EQ PUSH2 0x1C0 JUMPI PUSH0 DUP1 REVERT JUMPDEST POP JUMP JUMPDEST PUSH0 DUP2 MLOAD SWAP1 POP PUSH2 0x1D1 DUP2 PUSH2 0x1AD JUMP JUMPDEST SWAP3 SWAP2 POP POP JUMP JUMPDEST PUSH0 PUSH1 0x20 DUP3 DUP5 SUB SLT ISZERO PUSH2 0x1EC JUMPI PUSH2 0x1EB PUSH2 0x179 JUMP JUMPDEST JUMPDEST PUSH0 PUSH2 0x1F9 DUP5 DUP3 DUP6 ADD PUSH2 0x1C3 JUMP JUMPDEST SWAP2 POP POP SWAP3 SWAP2 POP POP JUMP JUMPDEST PUSH2 0x20B DUP2 PUSH2 0x19C JUMP JUMPDEST DUP3 MSTORE POP POP JUMP JUMPDEST PUSH0 PUSH1 0x20 DUP3 ADD SWAP1 POP PUSH2 0x224 PUSH0 DUP4 ADD DUP5 PUSH2 0x202 JUMP JUMPDEST SWAP3 SWAP2 POP POP JUMP JUMPDEST PUSH2 0x18D6 DUP1 PUSH2 0x237 PUSH0 CODECOPY PUSH0 RETURN INVALID PUSH1 0x80 PUSH1 0x40 MSTORE PUSH1 0x4 CALLDATASIZE LT PUSH2 0x6F JUMPI PUSH0 CALLDATALOAD PUSH1 0xE0 SHR DUP1 PUSH4 0x8DA5CB5B GT PUSH2 0x4D JUMPI DUP1 PUSH4 0x8DA5CB5B EQ PUSH2 0xCD JUMPI DUP1 PUSH4 0xA5BFD16A EQ PUSH2 0xF7 JUMPI DUP1 PUSH4 0xE1EC3C68 EQ PUSH2 0x121 JUMPI DUP1 PUSH4 0xF2FDE38B EQ PUSH2 0x164 JUMPI PUSH2 0x6F JUMP JUMPDEST DUP1 PUSH4 0x715018A6 EQ PUSH2 0x73 JUMPI DUP1 PUSH4 0x81AE108E EQ PUSH2 0x89 JUMPI DUP1 PUSH4 0x8ACDB035 EQ PUSH2 0xB1 JUMPI JUMPDEST PUSH0 DUP1 REVERT JUMPDEST CALLVALUE DUP1 ISZERO PUSH2 0x7E JUMPI PUSH0 DUP1 REVERT JUMPDEST POP PUSH2 0x87 PUSH2 0x18C JUMP JUMPDEST STOP JUMPDEST CALLVALUE DUP1 ISZERO PUSH2 0x94 JUMPI PUSH0 DUP1 REVERT JUMPDEST POP PUSH2 0xAF PUSH1 0x4 DUP1 CALLDATASIZE SUB DUP2 ADD SWAP1 PUSH2 0xAA SWAP2 SWAP1 PUSH2 0xD63 JUMP JUMPDEST PUSH2 0x19F JUMP JUMPDEST STOP JUMPDEST PUSH2 0xCB PUSH1 0x4 DUP1 CALLDATASIZE SUB DUP2 ADD SWAP1 PUSH2 0xC6 SWAP2 SWAP1 PUSH2 0xF24 JUMP JUMPDEST PUSH2 0x44F JUMP JUMPDEST STOP JUMPDEST CALLVALUE DUP1 ISZERO PUSH2 0xD8 JUMPI PUSH0 DUP1 REVERT JUMPDEST POP PUSH2 0xE1 PUSH2 0x71E JUMP JUMPDEST PUSH1 0x40 MLOAD PUSH2 0xEE SWAP2 SWAP1 PUSH2 0xFD8 JUMP JUMPDEST PUSH1 0x40 MLOAD DUP1 SWAP2 SUB SWAP1 RETURN JUMPDEST CALLVALUE DUP1 ISZERO PUSH2 0x102 JUMPI PUSH0 DUP1 REVERT JUMPDEST POP PUSH2 0x10B PUSH2 0x745 JUMP JUMPDEST PUSH1 0x40 MLOAD PUSH2 0x118 SWAP2 SWAP1 PUSH2 0x11F1 JUMP JUMPDEST PUSH1 0x40 MLOAD DUP1 SWAP2 SUB SWAP1 RETURN JUMPDEST CALLVALUE DUP1 ISZERO PUSH2 0x12C JUMPI PUSH0 DUP1 REVERT JUMPDEST POP PUSH2 0x147 PUSH1 0x4 DUP1 CALLDATASIZE SUB DUP2 ADD SWAP1 PUSH2 0x142 SWAP2 SWAP1 PUSH2 0xD63 JUMP JUMPDEST PUSH2 0x968 JUMP JUMPDEST PUSH1 0x40 MLOAD PUSH2 0x15B SWAP9 SWAP8 SWAP7 SWAP6 SWAP5 SWAP4 SWAP3 SWAP2 SWAP1 PUSH2 0x1277 JUMP JUMPDEST PUSH1 0x40 MLOAD DUP1 SWAP2 SUB SWAP1 RETURN JUMPDEST CALLVALUE DUP1 ISZERO PUSH2 0x16F JUMPI PUSH0 DUP1 REVERT JUMPDEST POP PUSH2 0x18A PUSH1 0x4 DUP1 CALLDATASIZE SUB DUP2 ADD SWAP1 PUSH2 0x185 SWAP2 SWAP1 PUSH2 0x12FA JUMP JUMPDEST PUSH2 0xAAA JUMP JUMPDEST STOP JUMPDEST PUSH2 0x194 PUSH2 0xB2E JUMP JUMPDEST PUSH2 0x19D PUSH0 PUSH2 0xBB5 JUMP JUMPDEST JUMP JUMPDEST PUSH2 0x1A7 PUSH2 0xB2E JUMP JUMPDEST PUSH0 DUP2 GT DUP1 ISZERO PUSH2 0x1BB JUMPI POP PUSH1 0x2 DUP1 SLOAD SWAP1 POP DUP2 GT ISZERO JUMPDEST PUSH2 0x1FA JUMPI PUSH1 0x40 MLOAD PUSH32 0x8C379A000000000000000000000000000000000000000000000000000000000 DUP2 MSTORE PUSH1 0x4 ADD PUSH2 0x1F1 SWAP1 PUSH2 0x136F JUMP JUMPDEST PUSH1 0x40 MLOAD DUP1 SWAP2 SUB SWAP1 REVERT JUMPDEST PUSH0 PUSH1 0x2 PUSH1 0x1 DUP4 PUSH2 0x20A SWAP2 SWAP1 PUSH2 0x13BA JUMP JUMPDEST DUP2 SLOAD DUP2 LT PUSH2 0x21B JUMPI PUSH2 0x21A PUSH2 0x13ED JUMP JUMPDEST JUMPDEST SWAP1 PUSH0 MSTORE PUSH1 0x20 PUSH0 KECCAK256 SWAP1 PUSH1 0x8 MUL ADD SWAP1 POP DUP1 PUSH1 0x7 ADD PUSH0 SWAP1 SLOAD SWAP1 PUSH2 0x100 EXP SWAP1 DIV PUSH1 0xFF AND ISZERO PUSH2 0x27A JUMPI PUSH1 0x40 MLOAD PUSH32 0x8C379A000000000000000000000000000000000000000000000000000000000 DUP2 MSTORE PUSH1 0x4 ADD PUSH2 0x271 SWAP1 PUSH2 0x1464 JUMP JUMPDEST PUSH1 0x40 MLOAD DUP1 SWAP2 SUB SWAP1 REVERT JUMPDEST PUSH1 0x1 DUP2 PUSH1 0x7 ADD PUSH0 PUSH2 0x100 EXP DUP2 SLOAD DUP2 PUSH1 0xFF MUL NOT AND SWAP1 DUP4 ISZERO ISZERO MUL OR SWAP1 SSTORE POP DUP1 PUSH1 0x3 ADD PUSH0 SWAP1 SLOAD SWAP1 PUSH2 0x100 EXP SWAP1 DIV PUSH20 0xFFFFFFFFFFFFFFFFFFFFFFFFFFFFFFFFFFFFFFFF AND PUSH20 0xFFFFFFFFFFFFFFFFFFFFFFFFFFFFFFFFFFFFFFFF AND PUSH4 0xA9059CBB DUP3 PUSH1 0x2 ADD PUSH0 SWAP1 SLOAD SWAP1 PUSH2 0x100 EXP SWAP1 DIV PUSH20 0xFFFFFFFFFFFFFFFFFFFFFFFFFFFFFFFFFFFFFFFF AND DUP4 PUSH1 0x4 ADD SLOAD PUSH1 0x40 MLOAD DUP4 PUSH4 0xFFFFFFFF AND PUSH1 0xE0 SHL DUP2 MSTORE PUSH1 0x4 ADD PUSH2 0x31B SWAP3 SWAP2 SWAP1 PUSH2 0x1482 JUMP JUMPDEST PUSH1 0x20 PUSH1 0x40 MLOAD DUP1 DUP4 SUB DUP2 PUSH0 DUP8 GAS CALL ISZERO DUP1 ISZERO PUSH2 0x337 JUMPI RETURNDATASIZE PUSH0 DUP1 RETURNDATACOPY RETURNDATASIZE PUSH0 REVERT JUMPDEST POP POP POP POP PUSH1 0x40 MLOAD RETURNDATASIZE PUSH1 0x1F NOT PUSH1 0x1F DUP3 ADD AND DUP3 ADD DUP1 PUSH1 0x40 MSTORE POP DUP2 ADD SWAP1 PUSH2 0x35B SWAP2 SWAP1 PUSH2 0x14D3 JUMP JUMPDEST PUSH2 0x39A JUMPI PUSH1 0x40 MLOAD PUSH32 0x8C379A000000000000000000000000000000000000000000000000000000000 DUP2 MSTORE PUSH1 0x4 ADD PUSH2 0x391 SWAP1 PUSH2 0x1548 JUMP JUMPDEST PUSH1 0x40 MLOAD DUP1 SWAP2 SUB SWAP1 REVERT JUMPDEST DUP1 PUSH1 0x1 ADD PUSH0 SWAP1 SLOAD SWAP1 PUSH2 0x100 EXP SWAP1 DIV PUSH20 0xFFFFFFFFFFFFFFFFFFFFFFFFFFFFFFFFFFFFFFFF AND PUSH20 0xFFFFFFFFFFFFFFFFFFFFFFFFFFFFFFFFFFFFFFFF AND DUP2 PUSH1 0x2 ADD PUSH0 SWAP1 SLOAD SWAP1 PUSH2 0x100 EXP SWAP1 DIV PUSH20 0xFFFFFFFFFFFFFFFFFFFFFFFFFFFFFFFFFFFFFFFF AND PUSH20 0xFFFFFFFFFFFFFFFFFFFFFFFFFFFFFFFFFFFFFFFF AND PUSH32 0x9B1E4A3E564E29A165C2BC2ADD6A4A310A9070D6A908E2C54661B76C1FB32EF6 DUP5 DUP5 PUSH1 0x4 ADD SLOAD PUSH1 0x40 MLOAD PUSH2 0x443 SWAP3 SWAP2 SWAP1 PUSH2 0x1566 JUMP JUMPDEST PUSH1 0x40 MLOAD DUP1 SWAP2 SUB SWAP1 LOG3 POP POP JUMP JUMPDEST PUSH2 0x457 PUSH2 0xB2E JUMP JUMPDEST PUSH2 0x461 PUSH1 0x1 PUSH2 0xC76 JUMP JUMPDEST PUSH0 PUSH2 0x46C PUSH1 0x1 PUSH2 0xC8A JUMP JUMPDEST SWAP1 POP PUSH2 0x476 PUSH2 0xC9D JUMP JUMPDEST DUP2 DUP2 PUSH0 ADD DUP2 DUP2 MSTORE POP POP DUP7 DUP2 PUSH1 0x20 ADD SWAP1 PUSH20 0xFFFFFFFFFFFFFFFFFFFFFFFFFFFFFFFFFFFFFFFF AND SWAP1 DUP2 PUSH20 0xFFFFFFFFFFFFFFFFFFFFFFFFFFFFFFFFFFFFFFFF AND DUP2 MSTORE POP POP DUP8 DUP2 PUSH1 0x40 ADD SWAP1 PUSH20 0xFFFFFFFFFFFFFFFFFFFFFFFFFFFFFFFFFFFFFFFF AND SWAP1 DUP2 PUSH20 0xFFFFFFFFFFFFFFFFFFFFFFFFFFFFFFFFFFFFFFFF AND DUP2 MSTORE POP POP DUP6 DUP2 PUSH1 0x60 ADD SWAP1 PUSH20 0xFFFFFFFFFFFFFFFFFFFFFFFFFFFFFFFFFFFFFFFF AND SWAP1 DUP2 PUSH20 0xFFFFFFFFFFFFFFFFFFFFFFFFFFFFFFFFFFFFFFFF AND DUP2 MSTORE POP POP DUP5 DUP2 PUSH1 0x80 ADD DUP2 DUP2 MSTORE POP POP DUP4 DUP2 PUSH1 0xA0 ADD DUP2 SWAP1 MSTORE POP DUP3 DUP2 PUSH1 0xC0 ADD DUP2 DUP2 MSTORE POP POP PUSH1 0x2 DUP2 SWAP1 DUP1 PUSH1 0x1 DUP2 SLOAD ADD DUP1 DUP3 SSTORE DUP1 SWAP2 POP POP PUSH1 0x1 SWAP1 SUB SWAP1 PUSH0 MSTORE PUSH1 0x20 PUSH0 KECCAK256 SWAP1 PUSH1 0x8 MUL ADD PUSH0 SWAP1 SWAP2 SWAP1 SWAP2 SWAP1 SWAP2 POP PUSH0 DUP3 ADD MLOAD DUP2 PUSH0 ADD SSTORE PUSH1 0x20 DUP3 ADD MLOAD DUP2 PUSH1 0x1 ADD PUSH0 PUSH2 0x100 EXP DUP2 SLOAD DUP2 PUSH20 0xFFFFFFFFFFFFFFFFFFFFFFFFFFFFFFFFFFFFFFFF MUL NOT AND SWAP1 DUP4 PUSH20 0xFFFFFFFFFFFFFFFFFFFFFFFFFFFFFFFFFFFFFFFF AND MUL OR SWAP1 SSTORE POP PUSH1 0x40 DUP3 ADD MLOAD DUP2 PUSH1 0x2 ADD PUSH0 PUSH2 0x100 EXP DUP2 SLOAD DUP2 PUSH20 0xFFFFFFFFFFFFFFFFFFFFFFFFFFFFFFFFFFFFFFFF MUL NOT AND SWAP1 DUP4 PUSH20 0xFFFFFFFFFFFFFFFFFFFFFFFFFFFFFFFFFFFFFFFF AND MUL OR SWAP1 SSTORE POP PUSH1 0x60 DUP3 ADD MLOAD DUP2 PUSH1 0x3 ADD PUSH0 PUSH2 0x100 EXP DUP2 SLOAD DUP2 PUSH20 0xFFFFFFFFFFFFFFFFFFFFFFFFFFFFFFFFFFFFFFFF MUL NOT AND SWAP1 DUP4 PUSH20 0xFFFFFFFFFFFFFFFFFFFFFFFFFFFFFFFFFFFFFFFF AND MUL OR SWAP1 SSTORE POP PUSH1 0x80 DUP3 ADD MLOAD DUP2 PUSH1 0x4 ADD SSTORE PUSH1 0xA0 DUP3 ADD MLOAD DUP2 PUSH1 0x5 ADD SWAP1 DUP2 PUSH2 0x666 SWAP2 SWAP1 PUSH2 0x1787 JUMP JUMPDEST POP PUSH1 0xC0 DUP3 ADD MLOAD DUP2 PUSH1 0x6 ADD SSTORE PUSH1 0xE0 DUP3 ADD MLOAD DUP2 PUSH1 0x7 ADD PUSH0 PUSH2 0x100 EXP DUP2 SLOAD DUP2 PUSH1 0xFF MUL NOT AND SWAP1 DUP4 ISZERO ISZERO MUL OR SWAP1 SSTORE POP POP POP DUP6 PUSH20 0xFFFFFFFFFFFFFFFFFFFFFFFFFFFFFFFFFFFFFFFF AND DUP9 PUSH20 0xFFFFFFFFFFFFFFFFFFFFFFFFFFFFFFFFFFFFFFFF AND DUP9 PUSH20 0xFFFFFFFFFFFFFFFFFFFFFFFFFFFFFFFFFFFFFFFF AND PUSH32 0xC78BDCAF3378384D924B5B97D40513067AC0127E564E504C88D7F0EF78DB15BF DUP6 DUP10 DUP10 DUP10 PUSH1 0x40 MLOAD PUSH2 0x70C SWAP5 SWAP4 SWAP3 SWAP2 SWAP1 PUSH2 0x1856 JUMP JUMPDEST PUSH1 0x40 MLOAD DUP1 SWAP2 SUB SWAP1 LOG4 POP POP POP POP POP POP POP POP JUMP JUMPDEST PUSH0 DUP1 PUSH0 SWAP1 SLOAD SWAP1 PUSH2 0x100 EXP SWAP1 DIV PUSH20 0xFFFFFFFFFFFFFFFFFFFFFFFFFFFFFFFFFFFFFFFF AND SWAP1 POP SWAP1 JUMP JUMPDEST PUSH1 0x60 PUSH1 0x2 DUP1 SLOAD DUP1 PUSH1 0x20 MUL PUSH1 0x20 ADD PUSH1 0x40 MLOAD SWAP1 DUP2 ADD PUSH1 0x40 MSTORE DUP1 SWAP3 SWAP2 SWAP1 DUP2 DUP2 MSTORE PUSH1 0x20 ADD PUSH0 SWAP1 JUMPDEST DUP3 DUP3 LT ISZERO PUSH2 0x95F JUMPI DUP4 DUP3 SWAP1 PUSH0 MSTORE PUSH1 0x20 PUSH0 KECCAK256 SWAP1 PUSH1 0x8 MUL ADD PUSH1 0x40 MLOAD DUP1 PUSH2 0x100 ADD PUSH1 0x40 MSTORE SWAP1 DUP2 PUSH0 DUP3 ADD SLOAD DUP2 MSTORE PUSH1 0x20 ADD PUSH1 0x1 DUP3 ADD PUSH0 SWAP1 SLOAD SWAP1 PUSH2 0x100 EXP SWAP1 DIV PUSH20 0xFFFFFFFFFFFFFFFFFFFFFFFFFFFFFFFFFFFFFFFF AND PUSH20 0xFFFFFFFFFFFFFFFFFFFFFFFFFFFFFFFFFFFFFFFF AND PUSH20 0xFFFFFFFFFFFFFFFFFFFFFFFFFFFFFFFFFFFFFFFF AND DUP2 MSTORE PUSH1 0x20 ADD PUSH1 0x2 DUP3 ADD PUSH0 SWAP1 SLOAD SWAP1 PUSH2 0x100 EXP SWAP1 DIV PUSH20 0xFFFFFFFFFFFFFFFFFFFFFFFFFFFFFFFFFFFFFFFF AND PUSH20 0xFFFFFFFFFFFFFFFFFFFFFFFFFFFFFFFFFFFFFFFF AND PUSH20 0xFFFFFFFFFFFFFFFFFFFFFFFFFFFFFFFFFFFFFFFF AND DUP2 MSTORE PUSH1 0x20 ADD PUSH1 0x3 DUP3 ADD PUSH0 SWAP1 SLOAD SWAP1 PUSH2 0x100 EXP SWAP1 DIV PUSH20 0xFFFFFFFFFFFFFFFFFFFFFFFFFFFFFFFFFFFFFFFF AND PUSH20 0xFFFFFFFFFFFFFFFFFFFFFFFFFFFFFFFFFFFFFFFF AND PUSH20 0xFFFFFFFFFFFFFFFFFFFFFFFFFFFFFFFFFFFFFFFF AND DUP2 MSTORE PUSH1 0x20 ADD PUSH1 0x4 DUP3 ADD SLOAD DUP2 MSTORE PUSH1 0x20 ADD PUSH1 0x5 DUP3 ADD DUP1 SLOAD PUSH2 0x8AC SWAP1 PUSH2 0x15BA JUMP JUMPDEST DUP1 PUSH1 0x1F ADD PUSH1 0x20 DUP1 SWAP2 DIV MUL PUSH1 0x20 ADD PUSH1 0x40 MLOAD SWAP1 DUP2 ADD PUSH1 0x40 MSTORE DUP1 SWAP3 SWAP2 SWAP1 DUP2 DUP2 MSTORE PUSH1 0x20 ADD DUP3 DUP1 SLOAD PUSH2 0x8D8 SWAP1 PUSH2 0x15BA JUMP JUMPDEST DUP1 ISZERO PUSH2 0x923 JUMPI DUP1 PUSH1 0x1F LT PUSH2 0x8FA JUMPI PUSH2 0x100 DUP1 DUP4 SLOAD DIV MUL DUP4 MSTORE SWAP2 PUSH1 0x20 ADD SWAP2 PUSH2 0x923 JUMP JUMPDEST DUP3 ADD SWAP2 SWAP1 PUSH0 MSTORE PUSH1 0x20 PUSH0 KECCAK256 SWAP1 JUMPDEST DUP2 SLOAD DUP2 MSTORE SWAP1 PUSH1 0x1 ADD SWAP1 PUSH1 0x20 ADD DUP1 DUP4 GT PUSH2 0x906 JUMPI DUP3 SWAP1 SUB PUSH1 0x1F AND DUP3 ADD SWAP2 JUMPDEST POP POP POP POP POP DUP2 MSTORE PUSH1 0x20 ADD PUSH1 0x6 DUP3 ADD SLOAD DUP2 MSTORE PUSH1 0x20 ADD PUSH1 0x7 DUP3 ADD PUSH0 SWAP1 SLOAD SWAP1 PUSH2 0x100 EXP SWAP1 DIV PUSH1 0xFF AND ISZERO ISZERO ISZERO ISZERO DUP2 MSTORE POP POP DUP2 MSTORE PUSH1 0x20 ADD SWAP1 PUSH1 0x1 ADD SWAP1 PUSH2 0x768 JUMP JUMPDEST POP POP POP POP SWAP1 POP SWAP1 JUMP JUMPDEST PUSH1 0x2 DUP2 DUP2 SLOAD DUP2 LT PUSH2 0x977 JUMPI PUSH0 DUP1 REVERT JUMPDEST SWAP1 PUSH0 MSTORE PUSH1 0x20 PUSH0 KECCAK256 SWAP1 PUSH1 0x8 MUL ADD PUSH0 SWAP2 POP SWAP1 POP DUP1 PUSH0 ADD SLOAD SWAP1 DUP1 PUSH1 0x1 ADD PUSH0 SWAP1 SLOAD SWAP1 PUSH2 0x100 EXP SWAP1 DIV PUSH20 0xFFFFFFFFFFFFFFFFFFFFFFFFFFFFFFFFFFFFFFFF AND SWAP1 DUP1 PUSH1 0x2 ADD PUSH0 SWAP1 SLOAD SWAP1 PUSH2 0x100 EXP SWAP1 DIV PUSH20 0xFFFFFFFFFFFFFFFFFFFFFFFFFFFFFFFFFFFFFFFF AND SWAP1 DUP1 PUSH1 0x3 ADD PUSH0 SWAP1 SLOAD SWAP1 PUSH2 0x100 EXP SWAP1 DIV PUSH20 0xFFFFFFFFFFFFFFFFFFFFFFFFFFFFFFFFFFFFFFFF AND SWAP1 DUP1 PUSH1 0x4 ADD SLOAD SWAP1 DUP1 PUSH1 0x5 ADD DUP1 SLOAD PUSH2 0xA11 SWAP1 PUSH2 0x15BA JUMP JUMPDEST DUP1 PUSH1 0x1F ADD PUSH1 0x20 DUP1 SWAP2 DIV MUL PUSH1 0x20 ADD PUSH1 0x40 MLOAD SWAP1 DUP2 ADD PUSH1 0x40 MSTORE DUP1 SWAP3 SWAP2 SWAP1 DUP2 DUP2 MSTORE PUSH1 0x20 ADD DUP3 DUP1 SLOAD PUSH2 0xA3D SWAP1 PUSH2 0x15BA JUMP JUMPDEST DUP1 ISZERO PUSH2 0xA88 JUMPI DUP1 PUSH1 0x1F LT PUSH2 0xA5F JUMPI PUSH2 0x100 DUP1 DUP4 SLOAD DIV MUL DUP4 MSTORE SWAP2 PUSH1 0x20 ADD SWAP2 PUSH2 0xA88 JUMP JUMPDEST DUP3 ADD SWAP2 SWAP1 PUSH0 MSTORE PUSH1 0x20 PUSH0 KECCAK256 SWAP1 JUMPDEST DUP2 SLOAD DUP2 MSTORE SWAP1 PUSH1 0x1 ADD SWAP1 PUSH1 0x20 ADD DUP1 DUP4 GT PUSH2 0xA6B JUMPI DUP3 SWAP1 SUB PUSH1 0x1F AND DUP3 ADD SWAP2 JUMPDEST POP POP POP POP POP SWAP1 DUP1 PUSH1 0x6 ADD SLOAD SWAP1 DUP1 PUSH1 0x7 ADD PUSH0 SWAP1 SLOAD SWAP1 PUSH2 0x100 EXP SWAP1 DIV PUSH1 0xFF AND SWAP1 POP DUP9 JUMP JUMPDEST PUSH2 0xAB2 PUSH2 0xB2E JUMP JUMPDEST PUSH0 PUSH20 0xFFFFFFFFFFFFFFFFFFFFFFFFFFFFFFFFFFFFFFFF AND DUP2 PUSH20 0xFFFFFFFFFFFFFFFFFFFFFFFFFFFFFFFFFFFFFFFF AND SUB PUSH2 0xB22 JUMPI PUSH0 PUSH1 0x40 MLOAD PUSH32 0x1E4FBDF700000000000000000000000000000000000000000000000000000000 DUP2 MSTORE PUSH1 0x4 ADD PUSH2 0xB19 SWAP2 SWAP1 PUSH2 0xFD8 JUMP JUMPDEST PUSH1 0x40 MLOAD DUP1 SWAP2 SUB SWAP1 REVERT JUMPDEST PUSH2 0xB2B DUP2 PUSH2 0xBB5 JUMP JUMPDEST POP JUMP JUMPDEST PUSH2 0xB36 PUSH2 0xC96 JUMP JUMPDEST PUSH20 0xFFFFFFFFFFFFFFFFFFFFFFFFFFFFFFFFFFFFFFFF AND PUSH2 0xB54 PUSH2 0x71E JUMP JUMPDEST PUSH20 0xFFFFFFFFFFFFFFFFFFFFFFFFFFFFFFFFFFFFFFFF AND EQ PUSH2 0xBB3 JUMPI PUSH2 0xB77 PUSH2 0xC96 JUMP JUMPDEST PUSH1 0x40 MLOAD PUSH32 0x118CDAA700000000000000000000000000000000000000000000000000000000 DUP2 MSTORE PUSH1 0x4 ADD PUSH2 0xBAA SWAP2 SWAP1 PUSH2 0xFD8 JUMP JUMPDEST PUSH1 0x40 MLOAD DUP1 SWAP2 SUB SWAP1 REVERT JUMPDEST JUMP JUMPDEST PUSH0 DUP1 PUSH0 SWAP1 SLOAD SWAP1 PUSH2 0x100 EXP SWAP1 DIV PUSH20 0xFFFFFFFFFFFFFFFFFFFFFFFFFFFFFFFFFFFFFFFF AND SWAP1 POP DUP2 PUSH0 DUP1 PUSH2 0x100 EXP DUP2 SLOAD DUP2 PUSH20 0xFFFFFFFFFFFFFFFFFFFFFFFFFFFFFFFFFFFFFFFF MUL NOT AND SWAP1 DUP4 PUSH20 0xFFFFFFFFFFFFFFFFFFFFFFFFFFFFFFFFFFFFFFFF AND MUL OR SWAP1 SSTORE POP DUP2 PUSH20 0xFFFFFFFFFFFFFFFFFFFFFFFFFFFFFFFFFFFFFFFF AND DUP2 PUSH20 0xFFFFFFFFFFFFFFFFFFFFFFFFFFFFFFFFFFFFFFFF AND PUSH32 0x8BE0079C531659141344CD1FD0A4F28419497F9722A3DAAFE3B4186F6B6457E0 PUSH1 0x40 MLOAD PUSH1 0x40 MLOAD DUP1 SWAP2 SUB SWAP1 LOG3 POP POP JUMP JUMPDEST PUSH1 0x1 DUP2 PUSH0 ADD PUSH0 DUP3 DUP3 SLOAD ADD SWAP3 POP POP DUP2 SWAP1 SSTORE POP POP JUMP JUMPDEST PUSH0 DUP2 PUSH0 ADD SLOAD SWAP1 POP SWAP2 SWAP1 POP JUMP JUMPDEST PUSH0 CALLER SWAP1 POP SWAP1 JUMP JUMPDEST PUSH1 0x40 MLOAD DUP1 PUSH2 0x100 ADD PUSH1 0x40 MSTORE DUP1 PUSH0 DUP2 MSTORE PUSH1 0x20 ADD PUSH0 PUSH20 0xFFFFFFFFFFFFFFFFFFFFFFFFFFFFFFFFFFFFFFFF AND DUP2 MSTORE PUSH1 0x20 ADD PUSH0 PUSH20 0xFFFFFFFFFFFFFFFFFFFFFFFFFFFFFFFFFFFFFFFF AND DUP2 MSTORE PUSH1 0x20 ADD PUSH0 PUSH20 0xFFFFFFFFFFFFFFFFFFFFFFFFFFFFFFFFFFFFFFFF AND DUP2 MSTORE PUSH1 0x20 ADD PUSH0 DUP2 MSTORE PUSH1 0x20 ADD PUSH1 0x60 DUP2 MSTORE PUSH1 0x20 ADD PUSH0 DUP2 MSTORE PUSH1 0x20 ADD PUSH0 ISZERO ISZERO DUP2 MSTORE POP SWAP1 JUMP JUMPDEST PUSH0 PUSH1 0x40 MLOAD SWAP1 POP SWAP1 JUMP JUMPDEST PUSH0 DUP1 REVERT JUMPDEST PUSH0 DUP1 REVERT JUMPDEST PUSH0 DUP2 SWAP1 POP SWAP2 SWAP1 POP JUMP JUMPDEST PUSH2 0xD42 DUP2 PUSH2 0xD30 JUMP JUMPDEST DUP2 EQ PUSH2 0xD4C JUMPI PUSH0 DUP1 REVERT JUMPDEST POP JUMP JUMPDEST PUSH0 DUP2 CALLDATALOAD SWAP1 POP PUSH2 0xD5D DUP2 PUSH2 0xD39 JUMP JUMPDEST SWAP3 SWAP2 POP POP JUMP JUMPDEST PUSH0 PUSH1 0x20 DUP3 DUP5 SUB SLT ISZERO PUSH2 0xD78 JUMPI PUSH2 0xD77 PUSH2 0xD28 JUMP JUMPDEST JUMPDEST PUSH0 PUSH2 0xD85 DUP5 DUP3 DUP6 ADD PUSH2 0xD4F JUMP JUMPDEST SWAP2 POP POP SWAP3 SWAP2 POP POP JUMP JUMPDEST PUSH0 PUSH20 0xFFFFFFFFFFFFFFFFFFFFFFFFFFFFFFFFFFFFFFFF DUP3 AND SWAP1 POP SWAP2 SWAP1 POP JUMP JUMPDEST PUSH0 PUSH2 0xDB7 DUP3 PUSH2 0xD8E JUMP JUMPDEST SWAP1 POP SWAP2 SWAP1 POP JUMP JUMPDEST PUSH2 0xDC7 DUP2 PUSH2 0xDAD JUMP JUMPDEST DUP2 EQ PUSH2 0xDD1 JUMPI PUSH0 DUP1 REVERT JUMPDEST POP JUMP JUMPDEST PUSH0 DUP2 CALLDATALOAD SWAP1 POP PUSH2 0xDE2 DUP2 PUSH2 0xDBE JUMP JUMPDEST SWAP3 SWAP2 POP POP JUMP JUMPDEST PUSH0 DUP1 REVERT JUMPDEST PUSH0 DUP1 REVERT JUMPDEST PUSH0 PUSH1 0x1F NOT PUSH1 0x1F DUP4 ADD AND SWAP1 POP SWAP2 SWAP1 POP JUMP JUMPDEST PUSH32 0x4E487B7100000000000000000000000000000000000000000000000000000000 PUSH0 MSTORE PUSH1 0x41 PUSH1 0x4 MSTORE PUSH1 0x24 PUSH0 REVERT JUMPDEST PUSH2 0xE36 DUP3 PUSH2 0xDF0 JUMP JUMPDEST DUP2 ADD DUP2 DUP2 LT PUSH8 0xFFFFFFFFFFFFFFFF DUP3 GT OR ISZERO PUSH2 0xE55 JUMPI PUSH2 0xE54 PUSH2 0xE00 JUMP JUMPDEST JUMPDEST DUP1 PUSH1 0x40 MSTORE POP POP POP JUMP JUMPDEST PUSH0 PUSH2 0xE67 PUSH2 0xD1F JUMP JUMPDEST SWAP1 POP PUSH2 0xE73 DUP3 DUP3 PUSH2 0xE2D JUMP JUMPDEST SWAP2 SWAP1 POP JUMP JUMPDEST PUSH0 PUSH8 0xFFFFFFFFFFFFFFFF DUP3 GT ISZERO PUSH2 0xE92 JUMPI PUSH2 0xE91 PUSH2 0xE00 JUMP JUMPDEST JUMPDEST PUSH2 0xE9B DUP3 PUSH2 0xDF0 JUMP JUMPDEST SWAP1 POP PUSH1 0x20 DUP2 ADD SWAP1 POP SWAP2 SWAP1 POP JUMP JUMPDEST DUP3 DUP2 DUP4 CALLDATACOPY PUSH0 DUP4 DUP4 ADD MSTORE POP POP POP JUMP JUMPDEST PUSH0 PUSH2 0xEC8 PUSH2 0xEC3 DUP5 PUSH2 0xE78 JUMP JUMPDEST PUSH2 0xE5E JUMP JUMPDEST SWAP1 POP DUP3 DUP2 MSTORE PUSH1 0x20 DUP2 ADD DUP5 DUP5 DUP5 ADD GT ISZERO PUSH2 0xEE4 JUMPI PUSH2 0xEE3 PUSH2 0xDEC JUMP JUMPDEST JUMPDEST PUSH2 0xEEF DUP5 DUP3 DUP6 PUSH2 0xEA8 JUMP JUMPDEST POP SWAP4 SWAP3 POP POP POP JUMP JUMPDEST PUSH0 DUP3 PUSH1 0x1F DUP4 ADD SLT PUSH2 0xF0B JUMPI PUSH2 0xF0A PUSH2 0xDE8 JUMP JUMPDEST JUMPDEST DUP2 CALLDATALOAD PUSH2 0xF1B DUP5 DUP3 PUSH1 0x20 DUP7 ADD PUSH2 0xEB6 JUMP JUMPDEST SWAP2 POP POP SWAP3 SWAP2 POP POP JUMP JUMPDEST PUSH0 DUP1 PUSH0 DUP1 PUSH0 DUP1 PUSH1 0xC0 DUP8 DUP10 SUB SLT ISZERO PUSH2 0xF3E JUMPI PUSH2 0xF3D PUSH2 0xD28 JUMP JUMPDEST JUMPDEST PUSH0 PUSH2 0xF4B DUP10 DUP3 DUP11 ADD PUSH2 0xDD4 JUMP JUMPDEST SWAP7 POP POP PUSH1 0x20 PUSH2 0xF5C DUP10 DUP3 DUP11 ADD PUSH2 0xDD4 JUMP JUMPDEST SWAP6 POP POP PUSH1 0x40 PUSH2 0xF6D DUP10 DUP3 DUP11 ADD PUSH2 0xDD4 JUMP JUMPDEST SWAP5 POP POP PUSH1 0x60 PUSH2 0xF7E DUP10 DUP3 DUP11 ADD PUSH2 0xD4F JUMP JUMPDEST SWAP4 POP POP PUSH1 0x80 DUP8 ADD CALLDATALOAD PUSH8 0xFFFFFFFFFFFFFFFF DUP2 GT ISZERO PUSH2 0xF9F JUMPI PUSH2 0xF9E PUSH2 0xD2C JUMP JUMPDEST JUMPDEST PUSH2 0xFAB DUP10 DUP3 DUP11 ADD PUSH2 0xEF7 JUMP JUMPDEST SWAP3 POP POP PUSH1 0xA0 PUSH2 0xFBC DUP10 DUP3 DUP11 ADD PUSH2 0xD4F JUMP JUMPDEST SWAP2 POP POP SWAP3 SWAP6 POP SWAP3 SWAP6 POP SWAP3 SWAP6 JUMP JUMPDEST PUSH2 0xFD2 DUP2 PUSH2 0xDAD JUMP JUMPDEST DUP3 MSTORE POP POP JUMP JUMPDEST PUSH0 PUSH1 0x20 DUP3 ADD SWAP1 POP PUSH2 0xFEB PUSH0 DUP4 ADD DUP5 PUSH2 0xFC9 JUMP JUMPDEST SWAP3 SWAP2 POP POP JUMP JUMPDEST PUSH0 DUP2 MLOAD SWAP1 POP SWAP2 SWAP1 POP JUMP JUMPDEST PUSH0 DUP3 DUP3 MSTORE PUSH1 0x20 DUP3 ADD SWAP1 POP SWAP3 SWAP2 POP POP JUMP JUMPDEST PUSH0 DUP2 SWAP1 POP PUSH1 0x20 DUP3 ADD SWAP1 POP SWAP2 SWAP1 POP JUMP JUMPDEST PUSH2 0x1023 DUP2 PUSH2 0xD30 JUMP JUMPDEST DUP3 MSTORE POP POP JUMP JUMPDEST PUSH2 0x1032 DUP2 PUSH2 0xDAD JUMP JUMPDEST DUP3 MSTORE POP POP JUMP JUMPDEST PUSH0 DUP2 MLOAD SWAP1 POP SWAP2 SWAP1 POP JUMP JUMPDEST PUSH0 DUP3 DUP3 MSTORE PUSH1 0x20 DUP3 ADD SWAP1 POP SWAP3 SWAP2 POP POP JUMP JUMPDEST DUP3 DUP2 DUP4 MCOPY PUSH0 DUP4 DUP4 ADD MSTORE POP POP POP JUMP JUMPDEST PUSH0 PUSH2 0x106A DUP3 PUSH2 0x1038 JUMP JUMPDEST PUSH2 0x1074 DUP2 DUP6 PUSH2 0x1042 JUMP JUMPDEST SWAP4 POP PUSH2 0x1084 DUP2 DUP6 PUSH1 0x20 DUP7 ADD PUSH2 0x1052 JUMP JUMPDEST PUSH2 0x108D DUP2 PUSH2 0xDF0 JUMP JUMPDEST DUP5 ADD SWAP2 POP POP SWAP3 SWAP2 POP POP JUMP JUMPDEST PUSH0 DUP2 ISZERO ISZERO SWAP1 POP SWAP2 SWAP1 POP JUMP JUMPDEST PUSH2 0x10AC DUP2 PUSH2 0x1098 JUMP JUMPDEST DUP3 MSTORE POP POP JUMP JUMPDEST PUSH0 PUSH2 0x100 DUP4 ADD PUSH0 DUP4 ADD MLOAD PUSH2 0x10C8 PUSH0 DUP7 ADD DUP3 PUSH2 0x101A JUMP JUMPDEST POP PUSH1 0x20 DUP4 ADD MLOAD PUSH2 0x10DB PUSH1 0x20 DUP7 ADD DUP3 PUSH2 0x1029 JUMP JUMPDEST POP PUSH1 0x40 DUP4 ADD MLOAD PUSH2 0x10EE PUSH1 0x40 DUP7 ADD DUP3 PUSH2 0x1029 JUMP JUMPDEST POP PUSH1 0x60 DUP4 ADD MLOAD PUSH2 0x1101 PUSH1 0x60 DUP7 ADD DUP3 PUSH2 0x1029 JUMP JUMPDEST POP PUSH1 0x80 DUP4 ADD MLOAD PUSH2 0x1114 PUSH1 0x80 DUP7 ADD DUP3 PUSH2 0x101A JUMP JUMPDEST POP PUSH1 0xA0 DUP4 ADD MLOAD DUP5 DUP3 SUB PUSH1 0xA0 DUP7 ADD MSTORE PUSH2 0x112C DUP3 DUP3 PUSH2 0x1060 JUMP JUMPDEST SWAP2 POP POP PUSH1 0xC0 DUP4 ADD MLOAD PUSH2 0x1141 PUSH1 0xC0 DUP7 ADD DUP3 PUSH2 0x101A JUMP JUMPDEST POP PUSH1 0xE0 DUP4 ADD MLOAD PUSH2 0x1154 PUSH1 0xE0 DUP7 ADD DUP3 PUSH2 0x10A3 JUMP JUMPDEST POP DUP1 SWAP2 POP POP SWAP3 SWAP2 POP POP JUMP JUMPDEST PUSH0 PUSH2 0x116A DUP4 DUP4 PUSH2 0x10B2 JUMP JUMPDEST SWAP1 POP SWAP3 SWAP2 POP POP JUMP JUMPDEST PUSH0 PUSH1 0x20 DUP3 ADD SWAP1 POP SWAP2 SWAP1 POP JUMP JUMPDEST PUSH0 PUSH2 0x1188 DUP3 PUSH2 0xFF1 JUMP JUMPDEST PUSH2 0x1192 DUP2 DUP6 PUSH2 0xFFB JUMP JUMPDEST SWAP4 POP DUP4 PUSH1 0x20 DUP3 MUL DUP6 ADD PUSH2 0x11A4 DUP6 PUSH2 0x100B JUMP JUMPDEST DUP1 PUSH0 JUMPDEST DUP6 DUP2 LT ISZERO PUSH2 0x11DF JUMPI DUP5 DUP5 SUB DUP10 MSTORE DUP2 MLOAD PUSH2 0x11C0 DUP6 DUP3 PUSH2 0x115F JUMP JUMPDEST SWAP5 POP PUSH2 0x11CB DUP4 PUSH2 0x1172 JUMP JUMPDEST SWAP3 POP PUSH1 0x20 DUP11 ADD SWAP10 POP POP PUSH1 0x1 DUP2 ADD SWAP1 POP PUSH2 0x11A7 JUMP JUMPDEST POP DUP3 SWAP8 POP DUP8 SWAP6 POP POP POP POP POP POP SWAP3 SWAP2 POP POP JUMP JUMPDEST PUSH0 PUSH1 0x20 DUP3 ADD SWAP1 POP DUP2 DUP2 SUB PUSH0 DUP4 ADD MSTORE PUSH2 0x1209 DUP2 DUP5 PUSH2 0x117E JUMP JUMPDEST SWAP1 POP SWAP3 SWAP2 POP POP JUMP JUMPDEST PUSH2 0x121A DUP2 PUSH2 0xD30 JUMP JUMPDEST DUP3 MSTORE POP POP JUMP JUMPDEST PUSH0 DUP3 DUP3 MSTORE PUSH1 0x20 DUP3 ADD SWAP1 POP SWAP3 SWAP2 POP POP JUMP JUMPDEST PUSH0 PUSH2 0x123A DUP3 PUSH2 0x1038 JUMP JUMPDEST PUSH2 0x1244 DUP2 DUP6 PUSH2 0x1220 JUMP JUMPDEST SWAP4 POP PUSH2 0x1254 DUP2 DUP6 PUSH1 0x20 DUP7 ADD PUSH2 0x1052 JUMP JUMPDEST PUSH2 0x125D DUP2 PUSH2 0xDF0 JUMP JUMPDEST DUP5 ADD SWAP2 POP POP SWAP3 SWAP2 POP POP JUMP JUMPDEST PUSH2 0x1271 DUP2 PUSH2 0x1098 JUMP JUMPDEST DUP3 MSTORE POP POP JUMP JUMPDEST PUSH0 PUSH2 0x100 DUP3 ADD SWAP1 POP PUSH2 0x128B PUSH0 DUP4 ADD DUP12 PUSH2 0x1211 JUMP JUMPDEST PUSH2 0x1298 PUSH1 0x20 DUP4 ADD DUP11 PUSH2 0xFC9 JUMP JUMPDEST PUSH2 0x12A5 PUSH1 0x40 DUP4 ADD DUP10 PUSH2 0xFC9 JUMP JUMPDEST PUSH2 0x12B2 PUSH1 0x60 DUP4 ADD DUP9 PUSH2 0xFC9 JUMP JUMPDEST PUSH2 0x12BF PUSH1 0x80 DUP4 ADD DUP8 PUSH2 0x1211 JUMP JUMPDEST DUP2 DUP2 SUB PUSH1 0xA0 DUP4 ADD MSTORE PUSH2 0x12D1 DUP2 DUP7 PUSH2 0x1230 JUMP JUMPDEST SWAP1 POP PUSH2 0x12E0 PUSH1 0xC0 DUP4 ADD DUP6 PUSH2 0x1211 JUMP JUMPDEST PUSH2 0x12ED PUSH1 0xE0 DUP4 ADD DUP5 PUSH2 0x1268 JUMP JUMPDEST SWAP10 SWAP9 POP POP POP POP POP POP POP POP POP JUMP JUMPDEST PUSH0 PUSH1 0x20 DUP3 DUP5 SUB SLT ISZERO PUSH2 0x130F JUMPI PUSH2 0x130E PUSH2 0xD28 JUMP JUMPDEST JUMPDEST PUSH0 PUSH2 0x131C DUP5 DUP3 DUP6 ADD PUSH2 0xDD4 JUMP JUMPDEST SWAP2 POP POP SWAP3 SWAP2 POP POP JUMP JUMPDEST PUSH32 0x4C6F616E20494420646F6573206E6F7420657869737400000000000000000000 PUSH0 DUP3 ADD MSTORE POP JUMP JUMPDEST PUSH0 PUSH2 0x1359 PUSH1 0x16 DUP4 PUSH2 0x1220 JUMP JUMPDEST SWAP2 POP PUSH2 0x1364 DUP3 PUSH2 0x1325 JUMP JUMPDEST PUSH1 0x20 DUP3 ADD SWAP1 POP SWAP2 SWAP1 POP JUMP JUMPDEST PUSH0 PUSH1 0x20 DUP3 ADD SWAP1 POP DUP2 DUP2 SUB PUSH0 DUP4 ADD MSTORE PUSH2 0x1386 DUP2 PUSH2 0x134D JUMP JUMPDEST SWAP1 POP SWAP2 SWAP1 POP JUMP JUMPDEST PUSH32 0x4E487B7100000000000000000000000000000000000000000000000000000000 PUSH0 MSTORE PUSH1 0x11 PUSH1 0x4 MSTORE PUSH1 0x24 PUSH0 REVERT JUMPDEST PUSH0 PUSH2 0x13C4 DUP3 PUSH2 0xD30 JUMP JUMPDEST SWAP2 POP PUSH2 0x13CF DUP4 PUSH2 0xD30 JUMP JUMPDEST SWAP3 POP DUP3 DUP3 SUB SWAP1 POP DUP2 DUP2 GT ISZERO PUSH2 0x13E7 JUMPI PUSH2 0x13E6 PUSH2 0x138D JUMP JUMPDEST JUMPDEST SWAP3 SWAP2 POP POP JUMP JUMPDEST PUSH32 0x4E487B7100000000000000000000000000000000000000000000000000000000 PUSH0 MSTORE PUSH1 0x32 PUSH1 0x4 MSTORE PUSH1 0x24 PUSH0 REVERT JUMPDEST PUSH32 0x4C6F616E20697320616C726561647920636C6F73656400000000000000000000 PUSH0 DUP3 ADD MSTORE POP JUMP JUMPDEST PUSH0 PUSH2 0x144E PUSH1 0x16 DUP4 PUSH2 0x1220 JUMP JUMPDEST SWAP2 POP PUSH2 0x1459 DUP3 PUSH2 0x141A JUMP JUMPDEST PUSH1 0x20 DUP3 ADD SWAP1 POP SWAP2 SWAP1 POP JUMP JUMPDEST PUSH0 PUSH1 0x20 DUP3 ADD SWAP1 POP DUP2 DUP2 SUB PUSH0 DUP4 ADD MSTORE PUSH2 0x147B DUP2 PUSH2 0x1442 JUMP JUMPDEST SWAP1 POP SWAP2 SWAP1 POP JUMP JUMPDEST PUSH0 PUSH1 0x40 DUP3 ADD SWAP1 POP PUSH2 0x1495 PUSH0 DUP4 ADD DUP6 PUSH2 0xFC9 JUMP JUMPDEST PUSH2 0x14A2 PUSH1 0x20 DUP4 ADD DUP5 PUSH2 0x1211 JUMP JUMPDEST SWAP4 SWAP3 POP POP POP JUMP JUMPDEST PUSH2 0x14B2 DUP2 PUSH2 0x1098 JUMP JUMPDEST DUP2 EQ PUSH2 0x14BC JUMPI PUSH0 DUP1 REVERT JUMPDEST POP JUMP JUMPDEST PUSH0 DUP2 MLOAD SWAP1 POP PUSH2 0x14CD DUP2 PUSH2 0x14A9 JUMP JUMPDEST SWAP3 SWAP2 POP POP JUMP JUMPDEST PUSH0 PUSH1 0x20 DUP3 DUP5 SUB SLT ISZERO PUSH2 0x14E8 JUMPI PUSH2 0x14E7 PUSH2 0xD28 JUMP JUMPDEST JUMPDEST PUSH0 PUSH2 0x14F5 DUP5 DUP3 DUP6 ADD PUSH2 0x14BF JUMP JUMPDEST SWAP2 POP POP SWAP3 SWAP2 POP POP JUMP JUMPDEST PUSH32 0x436F6C6C61746572616C207472616E73666572206661696C6564000000000000 PUSH0 DUP3 ADD MSTORE POP JUMP JUMPDEST PUSH0 PUSH2 0x1532 PUSH1 0x1A DUP4 PUSH2 0x1220 JUMP JUMPDEST SWAP2 POP PUSH2 0x153D DUP3 PUSH2 0x14FE JUMP JUMPDEST PUSH1 0x20 DUP3 ADD SWAP1 POP SWAP2 SWAP1 POP JUMP JUMPDEST PUSH0 PUSH1 0x20 DUP3 ADD SWAP1 POP DUP2 DUP2 SUB PUSH0 DUP4 ADD MSTORE PUSH2 0x155F DUP2 PUSH2 0x1526 JUMP JUMPDEST SWAP1 POP SWAP2 SWAP1 POP JUMP JUMPDEST PUSH0 PUSH1 0x40 DUP3 ADD SWAP1 POP PUSH2 0x1579 PUSH0 DUP4 ADD DUP6 PUSH2 0x1211 JUMP JUMPDEST PUSH2 0x1586 PUSH1 0x20 DUP4 ADD DUP5 PUSH2 0x1211 JUMP JUMPDEST SWAP4 SWAP3 POP POP POP JUMP JUMPDEST PUSH32 0x4E487B7100000000000000000000000000000000000000000000000000000000 PUSH0 MSTORE PUSH1 0x22 PUSH1 0x4 MSTORE PUSH1 0x24 PUSH0 REVERT JUMPDEST PUSH0 PUSH1 0x2 DUP3 DIV SWAP1 POP PUSH1 0x1 DUP3 AND DUP1 PUSH2 0x15D1 JUMPI PUSH1 0x7F DUP3 AND SWAP2 POP JUMPDEST PUSH1 0x20 DUP3 LT DUP2 SUB PUSH2 0x15E4 JUMPI PUSH2 0x15E3 PUSH2 0x158D JUMP JUMPDEST JUMPDEST POP SWAP2 SWAP1 POP JUMP JUMPDEST PUSH0 DUP2 SWAP1 POP DUP2 PUSH0 MSTORE PUSH1 0x20 PUSH0 KECCAK256 SWAP1 POP SWAP2 SWAP1 POP JUMP JUMPDEST PUSH0 PUSH1 0x20 PUSH1 0x1F DUP4 ADD DIV SWAP1 POP SWAP2 SWAP1 POP JUMP JUMPDEST PUSH0 DUP3 DUP3 SHL SWAP1 POP SWAP3 SWAP2 POP POP JUMP JUMPDEST PUSH0 PUSH1 0x8 DUP4 MUL PUSH2 0x1646 PUSH32 0xFFFFFFFFFFFFFFFFFFFFFFFFFFFFFFFFFFFFFFFFFFFFFFFFFFFFFFFFFFFFFFFF DUP3 PUSH2 0x160B JUMP JUMPDEST PUSH2 0x1650 DUP7 DUP4 PUSH2 0x160B JUMP JUMPDEST SWAP6 POP DUP1 NOT DUP5 AND SWAP4 POP DUP1 DUP7 AND DUP5 OR SWAP3 POP POP POP SWAP4 SWAP3 POP POP POP JUMP JUMPDEST PUSH0 DUP2 SWAP1 POP SWAP2 SWAP1 POP JUMP JUMPDEST PUSH0 PUSH2 0x168B PUSH2 0x1686 PUSH2 0x1681 DUP5 PUSH2 0xD30 JUMP JUMPDEST PUSH2 0x1668 JUMP JUMPDEST PUSH2 0xD30 JUMP JUMPDEST SWAP1 POP SWAP2 SWAP1 POP JUMP JUMPDEST PUSH0 DUP2 SWAP1 POP SWAP2 SWAP1 POP JUMP JUMPDEST PUSH2 0x16A4 DUP4 PUSH2 0x1671 JUMP JUMPDEST PUSH2 0x16B8 PUSH2 0x16B0 DUP3 PUSH2 0x1692 JUMP JUMPDEST DUP5 DUP5 SLOAD PUSH2 0x1617 JUMP JUMPDEST DUP3 SSTORE POP POP POP POP JUMP JUMPDEST PUSH0 SWAP1 JUMP JUMPDEST PUSH2 0x16CC PUSH2 0x16C0 JUMP JUMPDEST PUSH2 0x16D7 DUP2 DUP5 DUP5 PUSH2 0x169B JUMP JUMPDEST POP POP POP JUMP JUMPDEST JUMPDEST DUP2 DUP2 LT ISZERO PUSH2 0x16FA JUMPI PUSH2 0x16EF PUSH0 DUP3 PUSH2 0x16C4 JUMP JUMPDEST PUSH1 0x1 DUP2 ADD SWAP1 POP PUSH2 0x16DD JUMP JUMPDEST POP POP JUMP JUMPDEST PUSH1 0x1F DUP3 GT ISZERO PUSH2 0x173F JUMPI PUSH2 0x1710 DUP2 PUSH2 0x15EA JUMP JUMPDEST PUSH2 0x1719 DUP5 PUSH2 0x15FC JUMP JUMPDEST DUP2 ADD PUSH1 0x20 DUP6 LT ISZERO PUSH2 0x1728 JUMPI DUP2 SWAP1 POP JUMPDEST PUSH2 0x173C PUSH2 0x1734 DUP6 PUSH2 0x15FC JUMP JUMPDEST DUP4 ADD DUP3 PUSH2 0x16DC JUMP JUMPDEST POP POP JUMPDEST POP POP POP JUMP JUMPDEST PUSH0 DUP3 DUP3 SHR SWAP1 POP SWAP3 SWAP2 POP POP JUMP JUMPDEST PUSH0 PUSH2 0x175F PUSH0 NOT DUP5 PUSH1 0x8 MUL PUSH2 0x1744 JUMP JUMPDEST NOT DUP1 DUP4 AND SWAP2 POP POP SWAP3 SWAP2 POP POP JUMP JUMPDEST PUSH0 PUSH2 0x1777 DUP4 DUP4 PUSH2 0x1750 JUMP JUMPDEST SWAP2 POP DUP3 PUSH1 0x2 MUL DUP3 OR SWAP1 POP SWAP3 SWAP2 POP POP JUMP JUMPDEST PUSH2 0x1790 DUP3 PUSH2 0x1038 JUMP JUMPDEST PUSH8 0xFFFFFFFFFFFFFFFF DUP2 GT ISZERO PUSH2 0x17A9 JUMPI PUSH2 0x17A8 PUSH2 0xE00 JUMP JUMPDEST JUMPDEST PUSH2 0x17B3 DUP3 SLOAD PUSH2 0x15BA JUMP JUMPDEST PUSH2 0x17BE DUP3 DUP3 DUP6 PUSH2 0x16FE JUMP JUMPDEST PUSH0 PUSH1 0x20 SWAP1 POP PUSH1 0x1F DUP4 GT PUSH1 0x1 DUP2 EQ PUSH2 0x17EF JUMPI PUSH0 DUP5 ISZERO PUSH2 0x17DD JUMPI DUP3 DUP8 ADD MLOAD SWAP1 POP JUMPDEST PUSH2 0x17E7 DUP6 DUP3 PUSH2 0x176C JUMP JUMPDEST DUP7 SSTORE POP PUSH2 0x184E JUMP JUMPDEST PUSH1 0x1F NOT DUP5 AND PUSH2 0x17FD DUP7 PUSH2 0x15EA JUMP JUMPDEST PUSH0 JUMPDEST DUP3 DUP2 LT ISZERO PUSH2 0x1824 JUMPI DUP5 DUP10 ADD MLOAD DUP3 SSTORE PUSH1 0x1 DUP3 ADD SWAP2 POP PUSH1 0x20 DUP6 ADD SWAP5 POP PUSH1 0x20 DUP2 ADD SWAP1 POP PUSH2 0x17FF JUMP JUMPDEST DUP7 DUP4 LT ISZERO PUSH2 0x1841 JUMPI DUP5 DUP10 ADD MLOAD PUSH2 0x183D PUSH1 0x1F DUP10 AND DUP3 PUSH2 0x1750 JUMP JUMPDEST DUP4 SSTORE POP JUMPDEST PUSH1 0x1 PUSH1 0x2 DUP9 MUL ADD DUP9 SSTORE POP POP POP JUMPDEST POP POP POP POP POP POP JUMP JUMPDEST PUSH0 PUSH1 0x80 DUP3 ADD SWAP1 POP PUSH2 0x1869 PUSH0 DUP4 ADD DUP8 PUSH2 0x1211 JUMP JUMPDEST PUSH2 0x1876 PUSH1 0x20 DUP4 ADD DUP7 PUSH2 0x1211 JUMP JUMPDEST DUP2 DUP2 SUB PUSH1 0x40 DUP4 ADD MSTORE PUSH2 0x1888 DUP2 DUP6 PUSH2 0x1230 JUMP JUMPDEST SWAP1 POP PUSH2 0x1897 PUSH1 0x60 DUP4 ADD DUP5 PUSH2 0x1211 JUMP JUMPDEST SWAP6 SWAP5 POP POP POP POP POP JUMP INVALID LOG2 PUSH5 0x6970667358 0x22 SLT KECCAK256 SWAP6 0xF9 REVERT MSTORE8 PUSH15 0x164ECA1AC0337DE9569B503C6E7877 0xB7 0xE4 SWAP15 MOD PUSH7 0xCC2A06FB22016F PUSH5 0x736F6C6343 STOP ADDMOD BYTE STOP CALLER "
				},
				"gasEstimates": {
					"creation": {
						"codeDepositCost": "1271600",
						"executionCost": "infinite",
						"totalCost": "infinite"
					},
					"external": {
						"closeRepaidLoan(uint256)": "infinite",
						"createNewLoan(address,address,address,uint256,string,uint256)": "infinite",
						"getAllLoans()": "infinite",
						"loans(uint256)": "infinite",
						"owner()": "2515",
						"renounceOwnership()": "infinite",
						"transferOwnership(address)": "infinite"
					}
				},
				"methodIdentifiers": {
					"closeRepaidLoan(uint256)": "81ae108e",
					"createNewLoan(address,address,address,uint256,string,uint256)": "8acdb035",
					"getAllLoans()": "a5bfd16a",
					"loans(uint256)": "e1ec3c68",
					"owner()": "8da5cb5b",
					"renounceOwnership()": "715018a6",
					"transferOwnership(address)": "f2fde38b"
				}
			},
			"storageLayout": {
				"storage": [
					{
						"astId": 8,
						"contract": "contracts/ManageLoan.sol:ManageLoan",
						"label": "_owner",
						"offset": 0,
						"slot": "0",
						"type": "t_address"
					},
					{
						"astId": 343,
						"contract": "contracts/ManageLoan.sol:ManageLoan",
						"label": "_loanIDCounter",
						"offset": 0,
						"slot": "1",
						"type": "t_struct(Counter)261_storage"
					},
					{
						"astId": 373,
						"contract": "contracts/ManageLoan.sol:ManageLoan",
						"label": "loans",
						"offset": 0,
						"slot": "2",
						"type": "t_array(t_struct(Loan)369_storage)dyn_storage"
					}
				],
				"types": {
					"t_address": {
						"encoding": "inplace",
						"label": "address",
						"numberOfBytes": "20"
					},
					"t_array(t_struct(Loan)369_storage)dyn_storage": {
						"base": "t_struct(Loan)369_storage",
						"encoding": "dynamic_array",
						"label": "struct ManageLoan.Loan[]",
						"numberOfBytes": "32"
					},
					"t_bool": {
						"encoding": "inplace",
						"label": "bool",
						"numberOfBytes": "1"
					},
					"t_string_storage": {
						"encoding": "bytes",
						"label": "string",
						"numberOfBytes": "32"
					},
					"t_struct(Counter)261_storage": {
						"encoding": "inplace",
						"label": "struct Counters.Counter",
						"members": [
							{
								"astId": 260,
								"contract": "contracts/ManageLoan.sol:ManageLoan",
								"label": "_value",
								"offset": 0,
								"slot": "0",
								"type": "t_uint256"
							}
						],
						"numberOfBytes": "32"
					},
					"t_struct(Loan)369_storage": {
						"encoding": "inplace",
						"label": "struct ManageLoan.Loan",
						"members": [
							{
								"astId": 354,
								"contract": "contracts/ManageLoan.sol:ManageLoan",
								"label": "loanID",
								"offset": 0,
								"slot": "0",
								"type": "t_uint256"
							},
							{
								"astId": 356,
								"contract": "contracts/ManageLoan.sol:ManageLoan",
								"label": "lender",
								"offset": 0,
								"slot": "1",
								"type": "t_address"
							},
							{
								"astId": 358,
								"contract": "contracts/ManageLoan.sol:ManageLoan",
								"label": "borrower",
								"offset": 0,
								"slot": "2",
								"type": "t_address"
							},
							{
								"astId": 360,
								"contract": "contracts/ManageLoan.sol:ManageLoan",
								"label": "collateralContract",
								"offset": 0,
								"slot": "3",
								"type": "t_address"
							},
							{
								"astId": 362,
								"contract": "contracts/ManageLoan.sol:ManageLoan",
								"label": "collateralAmount",
								"offset": 0,
								"slot": "4",
								"type": "t_uint256"
							},
							{
								"astId": 364,
								"contract": "contracts/ManageLoan.sol:ManageLoan",
								"label": "loanCurrency",
								"offset": 0,
								"slot": "5",
								"type": "t_string_storage"
							},
							{
								"astId": 366,
								"contract": "contracts/ManageLoan.sol:ManageLoan",
								"label": "loanAmount",
								"offset": 0,
								"slot": "6",
								"type": "t_uint256"
							},
							{
								"astId": 368,
								"contract": "contracts/ManageLoan.sol:ManageLoan",
								"label": "isClosed",
								"offset": 0,
								"slot": "7",
								"type": "t_bool"
							}
						],
						"numberOfBytes": "256"
					},
					"t_uint256": {
						"encoding": "inplace",
						"label": "uint256",
						"numberOfBytes": "32"
					}
				}
			},
			"userdoc": {
				"kind": "user",
				"methods": {},
				"version": 1
			}
		}
	}
}